{
  "_format": "hh-sol-artifact-1",
  "contractName": "DutchAuctionFactory",
  "sourceName": "contracts/Auctions/Factories/DutchAuctionFactory.sol",
  "abi": [
    {
      "inputs": [
        {
          "internalType": "uint256",
          "name": "",
          "type": "uint256"
        }
      ],
      "name": "DutchAuctionAddresses",
      "outputs": [
        {
          "internalType": "contract DutchAuction",
          "name": "",
          "type": "address"
        }
      ],
      "stateMutability": "view",
      "type": "function"
    },
    {
      "inputs": [
        {
          "internalType": "uint256",
          "name": "_startingPrice",
          "type": "uint256"
        },
        {
          "internalType": "uint256",
          "name": "_discountRate",
          "type": "uint256"
        },
        {
          "internalType": "address",
          "name": "_nft",
          "type": "address"
        },
        {
          "internalType": "uint256",
          "name": "_nftId",
          "type": "uint256"
        }
      ],
      "name": "createDutchAuction",
      "outputs": [],
      "stateMutability": "nonpayable",
      "type": "function"
    },
    {
      "inputs": [],
      "name": "returnAllDutchAuctions",
      "outputs": [
        {
          "internalType": "contract DutchAuction[]",
          "name": "",
          "type": "address[]"
        }
      ],
      "stateMutability": "view",
      "type": "function"
    }
  ],
  "bytecode": "0x608060405234801561001057600080fd5b50611301806100206000396000f3fe60806040523480156200001157600080fd5b5060043610620000465760003560e01c806372a8229c146200004b578063e16ca6c01462000081578063ea5d794314620000a1575b600080fd5b6200006960048036038101906200006391906200028e565b620000c3565b6040516200007891906200034b565b60405180910390f35b6200009f6004803603810190620000999190620003ad565b62000103565b005b620000ab620001b0565b604051620000ba9190620004ed565b60405180910390f35b60008181548110620000d457600080fd5b906000526020600020016000915054906101000a900473ffffffffffffffffffffffffffffffffffffffff1681565b600084848484604051620001179062000240565b62000126949392919062000533565b604051809103906000f08015801562000143573d6000803e3d6000fd5b5090506000819080600181540180825580915050600190039060005260206000200160009091909190916101000a81548173ffffffffffffffffffffffffffffffffffffffff021916908373ffffffffffffffffffffffffffffffffffffffff1602179055505050505050565b606060008054806020026020016040519081016040528092919081815260200182805480156200023657602002820191906000526020600020905b8160009054906101000a900473ffffffffffffffffffffffffffffffffffffffff1673ffffffffffffffffffffffffffffffffffffffff1681526020019060010190808311620001eb575b5050505050905090565b610d4b806200058183390190565b600080fd5b6000819050919050565b620002688162000253565b81146200027457600080fd5b50565b60008135905062000288816200025d565b92915050565b600060208284031215620002a757620002a66200024e565b5b6000620002b78482850162000277565b91505092915050565b600073ffffffffffffffffffffffffffffffffffffffff82169050919050565b6000819050919050565b60006200030b62000305620002ff84620002c0565b620002e0565b620002c0565b9050919050565b60006200031f82620002ea565b9050919050565b6000620003338262000312565b9050919050565b620003458162000326565b82525050565b60006020820190506200036260008301846200033a565b92915050565b60006200037582620002c0565b9050919050565b620003878162000368565b81146200039357600080fd5b50565b600081359050620003a7816200037c565b92915050565b60008060008060808587031215620003ca57620003c96200024e565b5b6000620003da8782880162000277565b9450506020620003ed8782880162000277565b9350506040620004008782880162000396565b9250506060620004138782880162000277565b91505092959194509250565b600081519050919050565b600082825260208201905092915050565b6000819050602082019050919050565b620004568162000326565b82525050565b60006200046a83836200044b565b60208301905092915050565b6000602082019050919050565b600062000490826200041f565b6200049c81856200042a565b9350620004a9836200043b565b8060005b83811015620004e0578151620004c488826200045c565b9750620004d18362000476565b925050600181019050620004ad565b5085935050505092915050565b6000602082019050818103600083015262000509818462000483565b905092915050565b6200051c8162000253565b82525050565b6200052d8162000368565b82525050565b60006080820190506200054a600083018762000511565b62000559602083018662000511565b62000568604083018562000522565b62000577606083018462000511565b9594505050505056fe6101606040523480156200001257600080fd5b5060405162000d4b38038062000d4b8339818101604052810190620000389190620001e0565b3273ffffffffffffffffffffffffffffffffffffffff1660c08173ffffffffffffffffffffffffffffffffffffffff16815250508360e0818152505042610100818152505062093a80426200008e919062000281565b610120818152505082610140818152505062093a8083620000b09190620002de565b841015620000f5576040517f08c379a0000000000000000000000000000000000000000000000000000000008152600401620000ec90620003a0565b60405180910390fd5b8173ffffffffffffffffffffffffffffffffffffffff1660808173ffffffffffffffffffffffffffffffffffffffff16815250508060a0818152505050505050620003c2565b600080fd5b6000819050919050565b620001558162000140565b81146200016157600080fd5b50565b60008151905062000175816200014a565b92915050565b600073ffffffffffffffffffffffffffffffffffffffff82169050919050565b6000620001a8826200017b565b9050919050565b620001ba816200019b565b8114620001c657600080fd5b50565b600081519050620001da81620001af565b92915050565b60008060008060808587031215620001fd57620001fc6200013b565b5b60006200020d8782880162000164565b9450506020620002208782880162000164565b93505060406200023387828801620001c9565b9250506060620002468782880162000164565b91505092959194509250565b7f4e487b7100000000000000000000000000000000000000000000000000000000600052601160045260246000fd5b60006200028e8262000140565b91506200029b8362000140565b9250827fffffffffffffffffffffffffffffffffffffffffffffffffffffffffffffffff03821115620002d357620002d262000252565b5b828201905092915050565b6000620002eb8262000140565b9150620002f88362000140565b9250817fffffffffffffffffffffffffffffffffffffffffffffffffffffffffffffffff048311821515161562000334576200033362000252565b5b828202905092915050565b600082825260208201905092915050565b7f7374617274696e67207072696365203c206d696e000000000000000000000000600082015250565b6000620003886014836200033f565b9150620003958262000350565b602082019050919050565b60006020820190508181036000830152620003bb8162000379565b9050919050565b60805160a05160c05160e0516101005161012051610140516108f6620004556000396000818161028f01526105090152600081816102ef015261052d015260008181610213015261025e0152600081816101ef01526102bd0152600081816103dc015281816104d001526105510152600081816103fe015261057501526000818161023701526103a001526108f66000f3fe6080604052600436106100865760003560e01c8063a6f2ae3a11610059578063a6f2ae3a14610137578063be7502d914610141578063c092292a1461016c578063cfda701b14610197578063fbd39f94146101c257610086565b806328a771371461008b5780632fe6ceab146100b657806371b0fe9c146100e157806398d5fdca1461010c575b600080fd5b34801561009757600080fd5b506100a06101ed565b6040516100ad91906105b0565b60405180910390f35b3480156100c257600080fd5b506100cb610211565b6040516100d891906105b0565b60405180910390f35b3480156100ed57600080fd5b506100f6610235565b604051610103919061064a565b60405180910390f35b34801561011857600080fd5b50610121610259565b60405161012e91906105b0565b60405180910390f35b61013f6102ed565b005b34801561014d57600080fd5b50610156610507565b60405161016391906105b0565b60405180910390f35b34801561017857600080fd5b5061018161052b565b60405161018e91906105b0565b60405180910390f35b3480156101a357600080fd5b506101ac61054f565b6040516101b99190610686565b60405180910390f35b3480156101ce57600080fd5b506101d7610573565b6040516101e491906105b0565b60405180910390f35b7f000000000000000000000000000000000000000000000000000000000000000081565b7f000000000000000000000000000000000000000000000000000000000000000081565b7f000000000000000000000000000000000000000000000000000000000000000081565b6000807f00000000000000000000000000000000000000000000000000000000000000004261028891906106d0565b90506000817f00000000000000000000000000000000000000000000000000000000000000006102b89190610704565b9050807f00000000000000000000000000000000000000000000000000000000000000006102e691906106d0565b9250505090565b7f0000000000000000000000000000000000000000000000000000000000000000421061034f576040517f08c379a0000000000000000000000000000000000000000000000000000000008152600401610346906107bb565b60405180910390fd5b6000610359610259565b90508034101561039e576040517f08c379a000000000000000000000000000000000000000000000000000000000815260040161039590610827565b60405180910390fd5b7f000000000000000000000000000000000000000000000000000000000000000073ffffffffffffffffffffffffffffffffffffffff166323b872dd7f0000000000000000000000000000000000000000000000000000000000000000337f00000000000000000000000000000000000000000000000000000000000000006040518463ffffffff1660e01b815260040161043b93929190610889565b600060405180830381600087803b15801561045557600080fd5b505af1158015610469573d6000803e3d6000fd5b505050506000813461047b91906106d0565b905060008111156104ce573373ffffffffffffffffffffffffffffffffffffffff166108fc829081150290604051600060405180830381858888f193505050501580156104cc573d6000803e3d6000fd5b505b7f000000000000000000000000000000000000000000000000000000000000000073ffffffffffffffffffffffffffffffffffffffff16ff5b7f000000000000000000000000000000000000000000000000000000000000000081565b7f000000000000000000000000000000000000000000000000000000000000000081565b7f000000000000000000000000000000000000000000000000000000000000000081565b7f000000000000000000000000000000000000000000000000000000000000000081565b6000819050919050565b6105aa81610597565b82525050565b60006020820190506105c560008301846105a1565b92915050565b600073ffffffffffffffffffffffffffffffffffffffff82169050919050565b6000819050919050565b600061061061060b610606846105cb565b6105eb565b6105cb565b9050919050565b6000610622826105f5565b9050919050565b600061063482610617565b9050919050565b61064481610629565b82525050565b600060208201905061065f600083018461063b565b92915050565b6000610670826105cb565b9050919050565b61068081610665565b82525050565b600060208201905061069b6000830184610677565b92915050565b7f4e487b7100000000000000000000000000000000000000000000000000000000600052601160045260246000fd5b60006106db82610597565b91506106e683610597565b9250828210156106f9576106f86106a1565b5b828203905092915050565b600061070f82610597565b915061071a83610597565b9250817fffffffffffffffffffffffffffffffffffffffffffffffffffffffffffffffff0483118215151615610753576107526106a1565b5b828202905092915050565b600082825260208201905092915050565b7f61756374696f6e20657870697265640000000000000000000000000000000000600082015250565b60006107a5600f8361075e565b91506107b08261076f565b602082019050919050565b600060208201905081810360008301526107d481610798565b9050919050565b7f455448203c207072696365000000000000000000000000000000000000000000600082015250565b6000610811600b8361075e565b915061081c826107db565b602082019050919050565b6000602082019050818103600083015261084081610804565b9050919050565b600061085282610617565b9050919050565b61086281610847565b82525050565b6000610873826105cb565b9050919050565b61088381610868565b82525050565b600060608201905061089e6000830186610859565b6108ab602083018561087a565b6108b860408301846105a1565b94935050505056fea2646970667358221220e2e0037cdf17eac5373fb64f87c27bb009978f4e3468a6ee8d07dc349cef6f3d64736f6c634300080d0033a26469706673582212207a5e06bbff1585d91f94cc60cd91aafad6899a8e21cf8a6ca56915ecc199029c64736f6c634300080d0033",
  "linkReferences": {},
  "deployedLinkReferences": {}
}