{
  "_format": "hh-sol-artifact-1",
  "contractName": "EngAuctionFactory",
  "sourceName": "contracts/Auctions/Factories/EngAuctionFactory.sol",
  "abi": [
    {
      "inputs": [
        {
          "internalType": "uint256",
          "name": "",
          "type": "uint256"
        }
      ],
      "name": "EngAuctionAddresses",
      "outputs": [
        {
          "internalType": "contract EngAuction",
          "name": "",
          "type": "address"
        }
      ],
      "stateMutability": "view",
      "type": "function"
    },
    {
      "inputs": [
        {
          "internalType": "address",
          "name": "_nft",
          "type": "address"
        },
        {
          "internalType": "uint256",
          "name": "_nftId",
          "type": "uint256"
        },
        {
          "internalType": "uint256",
          "name": "_startingBid",
          "type": "uint256"
        }
      ],
      "name": "createEngAuction",
      "outputs": [],
      "stateMutability": "nonpayable",
      "type": "function"
    },
    {
      "inputs": [],
      "name": "returnAllEngAuctions",
      "outputs": [
        {
          "internalType": "contract EngAuction[]",
          "name": "",
          "type": "address[]"
        }
      ],
      "stateMutability": "view",
      "type": "function"
    }
  ],
  "bytecode": "0x608060405234801561001057600080fd5b506119ca806100206000396000f3fe608060405234801561001057600080fd5b50600436106100415760003560e01c80634ac7c69a1461004657806391dfd949146100645780639762bb0d14610094575b600080fd5b61004e6100b0565b60405161005b919061035d565b60405180910390f35b61007e600480360381019061007991906103ba565b61013e565b60405161008b91906103f6565b60405180910390f35b6100ae60048036038101906100a9919061044f565b61017d565b005b6060600080548060200260200160405190810160405280929190818152602001828054801561013457602002820191906000526020600020905b8160009054906101000a900473ffffffffffffffffffffffffffffffffffffffff1673ffffffffffffffffffffffffffffffffffffffff16815260200190600101908083116100ea575b5050505050905090565b6000818154811061014e57600080fd5b906000526020600020016000915054906101000a900473ffffffffffffffffffffffffffffffffffffffff1681565b600083838360405161018e90610222565b61019a939291906104c0565b604051809103906000f0801580156101b6573d6000803e3d6000fd5b5090506000819080600181540180825580915050600190039060005260206000200160009091909190916101000a81548173ffffffffffffffffffffffffffffffffffffffff021916908373ffffffffffffffffffffffffffffffffffffffff16021790555050505050565b61149d806104f883390190565b600081519050919050565b600082825260208201905092915050565b6000819050602082019050919050565b600073ffffffffffffffffffffffffffffffffffffffff82169050919050565b6000819050919050565b60006102a061029b6102968461025b565b61027b565b61025b565b9050919050565b60006102b282610285565b9050919050565b60006102c4826102a7565b9050919050565b6102d4816102b9565b82525050565b60006102e683836102cb565b60208301905092915050565b6000602082019050919050565b600061030a8261022f565b610314818561023a565b935061031f8361024b565b8060005b8381101561035057815161033788826102da565b9750610342836102f2565b925050600181019050610323565b5085935050505092915050565b6000602082019050818103600083015261037781846102ff565b905092915050565b600080fd5b6000819050919050565b61039781610384565b81146103a257600080fd5b50565b6000813590506103b48161038e565b92915050565b6000602082840312156103d0576103cf61037f565b5b60006103de848285016103a5565b91505092915050565b6103f0816102b9565b82525050565b600060208201905061040b60008301846103e7565b92915050565b600061041c8261025b565b9050919050565b61042c81610411565b811461043757600080fd5b50565b60008135905061044981610423565b92915050565b6000806000606084860312156104685761046761037f565b5b60006104768682870161043a565b9350506020610487868287016103a5565b9250506040610498868287016103a5565b9150509250925092565b6104ab81610411565b82525050565b6104ba81610384565b82525050565b60006060820190506104d560008301866104a2565b6104e260208301856104b1565b6104ef60408301846104b1565b94935050505056fe60e06040523480156200001157600080fd5b506040516200149d3803806200149d83398181016040528101906200003791906200015c565b8273ffffffffffffffffffffffffffffffffffffffff1660808173ffffffffffffffffffffffffffffffffffffffff16815250508160a081815250503273ffffffffffffffffffffffffffffffffffffffff1660c08173ffffffffffffffffffffffffffffffffffffffff168152505080600281905550505050620001b8565b600080fd5b600073ffffffffffffffffffffffffffffffffffffffff82169050919050565b6000620000e982620000bc565b9050919050565b620000fb81620000dc565b81146200010757600080fd5b50565b6000815190506200011b81620000f0565b92915050565b6000819050919050565b620001368162000121565b81146200014257600080fd5b50565b60008151905062000156816200012b565b92915050565b600080600060608486031215620001785762000177620000b7565b5b600062000188868287016200010a565b93505060206200019b8682870162000145565b9250506040620001ae8682870162000145565b9150509250925092565b60805160a05160c05161127662000227600039600081816106ea0152818161088401528181610ad10152610b7c0152600081816107b601528181610a6001528181610b9d0152610c6e01526000818161064a0152818161077801528181610a000152610b3f01526112766000f3fe6080604052600436106100c25760003560e01c80637cc3ae8c1161007f578063cfda701b11610059578063cfda701b14610213578063d57bde791461023e578063efbe1c1c14610269578063fbd39f9414610280576100c2565b80637cc3ae8c146101a657806391f90157146101d1578063be9a6555146101fc576100c2565b806312fa6feb146100c75780631998aeef146100f25780631f2698ab146100fc5780633ccfd60b1461012757806362ea82db1461013e57806371b0fe9c1461017b575b600080fd5b3480156100d357600080fd5b506100dc6102ab565b6040516100e99190610cab565b60405180910390f35b6100fa6102bc565b005b34801561010857600080fd5b506101116104fc565b60405161011e9190610cab565b60405180910390f35b34801561013357600080fd5b5061013c61050f565b005b34801561014a57600080fd5b5061016560048036038101906101609190610d29565b610630565b6040516101729190610d6f565b60405180910390f35b34801561018757600080fd5b50610190610648565b60405161019d9190610de9565b60405180910390f35b3480156101b257600080fd5b506101bb61066c565b6040516101c89190610d6f565b60405180910390f35b3480156101dd57600080fd5b506101e6610672565b6040516101f39190610e13565b60405180910390f35b34801561020857600080fd5b50610211610698565b005b34801561021f57600080fd5b50610228610882565b6040516102359190610e4f565b60405180910390f35b34801561024a57600080fd5b506102536108a6565b6040516102609190610d6f565b60405180910390f35b34801561027557600080fd5b5061027e6108ac565b005b34801561028c57600080fd5b50610295610c6c565b6040516102a29190610d6f565b60405180910390f35b60018054906101000a900460ff1681565b600160009054906101000a900460ff1661030b576040517f08c379a000000000000000000000000000000000000000000000000000000000815260040161030290610ec7565b60405180910390fd5b600054421061034f576040517f08c379a000000000000000000000000000000000000000000000000000000000815260040161034690610f33565b60405180910390fd5b6002543411610393576040517f08c379a000000000000000000000000000000000000000000000000000000000815260040161038a90610f9f565b60405180910390fd5b600073ffffffffffffffffffffffffffffffffffffffff16600160029054906101000a900473ffffffffffffffffffffffffffffffffffffffff1673ffffffffffffffffffffffffffffffffffffffff16146104645760025460036000600160029054906101000a900473ffffffffffffffffffffffffffffffffffffffff1673ffffffffffffffffffffffffffffffffffffffff1673ffffffffffffffffffffffffffffffffffffffff168152602001908152602001600020600082825461045c9190610fee565b925050819055505b33600160026101000a81548173ffffffffffffffffffffffffffffffffffffffff021916908373ffffffffffffffffffffffffffffffffffffffff160217905550346002819055503373ffffffffffffffffffffffffffffffffffffffff167fe684a55f31b79eca403df938249029212a5925ec6be8012e099b45bc1019e5d2346040516104f29190610d6f565b60405180910390a2565b600160009054906101000a900460ff1681565b6000600360003373ffffffffffffffffffffffffffffffffffffffff1673ffffffffffffffffffffffffffffffffffffffff1681526020019081526020016000205490506000600360003373ffffffffffffffffffffffffffffffffffffffff1673ffffffffffffffffffffffffffffffffffffffff168152602001908152602001600020819055503373ffffffffffffffffffffffffffffffffffffffff166108fc829081150290604051600060405180830381858888f193505050501580156105de573d6000803e3d6000fd5b503373ffffffffffffffffffffffffffffffffffffffff167f884edad9ce6fa2440d8a54cc123490eb96d2768479d49ff9c7366125a9424364826040516106259190610d6f565b60405180910390a250565b60036020528060005260406000206000915090505481565b7f000000000000000000000000000000000000000000000000000000000000000081565b60005481565b600160029054906101000a900473ffffffffffffffffffffffffffffffffffffffff1681565b600160009054906101000a900460ff16156106e8576040517f08c379a00000000000000000000000000000000000000000000000000000000081526004016106df90611090565b60405180910390fd5b7f000000000000000000000000000000000000000000000000000000000000000073ffffffffffffffffffffffffffffffffffffffff163373ffffffffffffffffffffffffffffffffffffffff1614610776576040517f08c379a000000000000000000000000000000000000000000000000000000000815260040161076d906110fc565b60405180910390fd5b7f000000000000000000000000000000000000000000000000000000000000000073ffffffffffffffffffffffffffffffffffffffff166323b872dd33307f00000000000000000000000000000000000000000000000000000000000000006040518463ffffffff1660e01b81526004016107f39392919061111c565b600060405180830381600087803b15801561080d57600080fd5b505af1158015610821573d6000803e3d6000fd5b5050505060018060006101000a81548160ff02191690831515021790555062093a804261084e9190610fee565b6000819055507f1b55ba3aa851a46be3b365aee5b5c140edd620d578922f3e8466d2cbd96f954b60405160405180910390a1565b7f000000000000000000000000000000000000000000000000000000000000000081565b60025481565b600160009054906101000a900460ff166108fb576040517f08c379a00000000000000000000000000000000000000000000000000000000081526004016108f290610ec7565b60405180910390fd5b600054421015610940576040517f08c379a00000000000000000000000000000000000000000000000000000000081526004016109379061119f565b60405180910390fd5b60018054906101000a900460ff161561098e576040517f08c379a000000000000000000000000000000000000000000000000000000000815260040161098590610f33565b60405180910390fd5b60018060016101000a81548160ff021916908315150217905550600073ffffffffffffffffffffffffffffffffffffffff16600160029054906101000a900473ffffffffffffffffffffffffffffffffffffffff1673ffffffffffffffffffffffffffffffffffffffff1614610b3d577f000000000000000000000000000000000000000000000000000000000000000073ffffffffffffffffffffffffffffffffffffffff166342842e0e30600160029054906101000a900473ffffffffffffffffffffffffffffffffffffffff167f00000000000000000000000000000000000000000000000000000000000000006040518463ffffffff1660e01b8152600401610a9d9392919061111c565b600060405180830381600087803b158015610ab757600080fd5b505af1158015610acb573d6000803e3d6000fd5b505050507f000000000000000000000000000000000000000000000000000000000000000073ffffffffffffffffffffffffffffffffffffffff166108fc6002549081150290604051600060405180830381858888f19350505050158015610b37573d6000803e3d6000fd5b50610c0d565b7f000000000000000000000000000000000000000000000000000000000000000073ffffffffffffffffffffffffffffffffffffffff166342842e0e307f00000000000000000000000000000000000000000000000000000000000000007f00000000000000000000000000000000000000000000000000000000000000006040518463ffffffff1660e01b8152600401610bda939291906111e0565b600060405180830381600087803b158015610bf457600080fd5b505af1158015610c08573d6000803e3d6000fd5b505050505b7f7d7570b046e5ead3a4f3fbc9fa2445113625a1e79823776146316bafed6b8cc5600160029054906101000a900473ffffffffffffffffffffffffffffffffffffffff16600254604051610c62929190611217565b60405180910390a1565b7f000000000000000000000000000000000000000000000000000000000000000081565b60008115159050919050565b610ca581610c90565b82525050565b6000602082019050610cc06000830184610c9c565b92915050565b600080fd5b600073ffffffffffffffffffffffffffffffffffffffff82169050919050565b6000610cf682610ccb565b9050919050565b610d0681610ceb565b8114610d1157600080fd5b50565b600081359050610d2381610cfd565b92915050565b600060208284031215610d3f57610d3e610cc6565b5b6000610d4d84828501610d14565b91505092915050565b6000819050919050565b610d6981610d56565b82525050565b6000602082019050610d846000830184610d60565b92915050565b6000819050919050565b6000610daf610daa610da584610ccb565b610d8a565b610ccb565b9050919050565b6000610dc182610d94565b9050919050565b6000610dd382610db6565b9050919050565b610de381610dc8565b82525050565b6000602082019050610dfe6000830184610dda565b92915050565b610e0d81610ceb565b82525050565b6000602082019050610e286000830184610e04565b92915050565b6000610e3982610ccb565b9050919050565b610e4981610e2e565b82525050565b6000602082019050610e646000830184610e40565b92915050565b600082825260208201905092915050565b7f6e6f742073746172746564000000000000000000000000000000000000000000600082015250565b6000610eb1600b83610e6a565b9150610ebc82610e7b565b602082019050919050565b60006020820190508181036000830152610ee081610ea4565b9050919050565b7f656e646564000000000000000000000000000000000000000000000000000000600082015250565b6000610f1d600583610e6a565b9150610f2882610ee7565b602082019050919050565b60006020820190508181036000830152610f4c81610f10565b9050919050565b7f76616c7565203c20686967686573740000000000000000000000000000000000600082015250565b6000610f89600f83610e6a565b9150610f9482610f53565b602082019050919050565b60006020820190508181036000830152610fb881610f7c565b9050919050565b7f4e487b7100000000000000000000000000000000000000000000000000000000600052601160045260246000fd5b6000610ff982610d56565b915061100483610d56565b9250827fffffffffffffffffffffffffffffffffffffffffffffffffffffffffffffffff0382111561103957611038610fbf565b5b828201905092915050565b7f7374617274656400000000000000000000000000000000000000000000000000600082015250565b600061107a600783610e6a565b915061108582611044565b602082019050919050565b600060208201905081810360008301526110a98161106d565b9050919050565b7f6e6f742073656c6c657200000000000000000000000000000000000000000000600082015250565b60006110e6600a83610e6a565b91506110f1826110b0565b602082019050919050565b60006020820190508181036000830152611115816110d9565b9050919050565b60006060820190506111316000830186610e04565b61113e6020830185610e04565b61114b6040830184610d60565b949350505050565b7f6e6f7420656e6465640000000000000000000000000000000000000000000000600082015250565b6000611189600983610e6a565b915061119482611153565b602082019050919050565b600060208201905081810360008301526111b88161117c565b9050919050565b60006111ca82610db6565b9050919050565b6111da816111bf565b82525050565b60006060820190506111f56000830186610e04565b61120260208301856111d1565b61120f6040830184610d60565b949350505050565b600060408201905061122c6000830185610e04565b6112396020830184610d60565b939250505056fea26469706673582212203a36b86d90abaab991cf595a1165d43c8d6c128eda8f0aeb21d1f72d0177cf5a64736f6c634300080d0033a2646970667358221220ba6805349e1f84ccaeafc585e295cb68de5bb85f5bf03aa9d8acb1d80bf0f7b464736f6c634300080d0033",
  "linkReferences": {},
  "deployedLinkReferences": {}
}