{
  "_format": "hh-sol-artifact-1",
  "contractName": "NFT",
  "sourceName": "contracts/NFT.sol",
  "abi": [
    {
      "inputs": [
        {
          "internalType": "address",
          "name": "_marketplace",
          "type": "address"
        }
      ],
      "stateMutability": "nonpayable",
      "type": "constructor"
    },
    {
      "anonymous": false,
      "inputs": [
        {
          "indexed": true,
          "internalType": "address",
          "name": "owner",
          "type": "address"
        },
        {
          "indexed": true,
          "internalType": "address",
          "name": "approved",
          "type": "address"
        },
        {
          "indexed": true,
          "internalType": "uint256",
          "name": "tokenId",
          "type": "uint256"
        }
      ],
      "name": "Approval",
      "type": "event"
    },
    {
      "anonymous": false,
      "inputs": [
        {
          "indexed": true,
          "internalType": "address",
          "name": "owner",
          "type": "address"
        },
        {
          "indexed": true,
          "internalType": "address",
          "name": "operator",
          "type": "address"
        },
        {
          "indexed": false,
          "internalType": "bool",
          "name": "approved",
          "type": "bool"
        }
      ],
      "name": "ApprovalForAll",
      "type": "event"
    },
    {
      "anonymous": false,
      "inputs": [
        {
          "indexed": true,
          "internalType": "address",
          "name": "from",
          "type": "address"
        },
        {
          "indexed": true,
          "internalType": "address",
          "name": "to",
          "type": "address"
        },
        {
          "indexed": true,
          "internalType": "uint256",
          "name": "tokenId",
          "type": "uint256"
        }
      ],
      "name": "Transfer",
      "type": "event"
    },
    {
      "inputs": [
        {
          "internalType": "address",
          "name": "to",
          "type": "address"
        },
        {
          "internalType": "uint256",
          "name": "tokenId",
          "type": "uint256"
        }
      ],
      "name": "approve",
      "outputs": [],
      "stateMutability": "nonpayable",
      "type": "function"
    },
    {
      "inputs": [
        {
          "internalType": "address",
          "name": "owner",
          "type": "address"
        }
      ],
      "name": "balanceOf",
      "outputs": [
        {
          "internalType": "uint256",
          "name": "",
          "type": "uint256"
        }
      ],
      "stateMutability": "view",
      "type": "function"
    },
    {
      "inputs": [
        {
          "internalType": "string",
          "name": "tokenURI",
          "type": "string"
        }
      ],
      "name": "createNFT",
      "outputs": [
        {
          "internalType": "uint256",
          "name": "",
          "type": "uint256"
        }
      ],
      "stateMutability": "nonpayable",
      "type": "function"
    },
    {
      "inputs": [
        {
          "internalType": "uint256",
          "name": "tokenId",
          "type": "uint256"
        }
      ],
      "name": "getApproved",
      "outputs": [
        {
          "internalType": "address",
          "name": "",
          "type": "address"
        }
      ],
      "stateMutability": "view",
      "type": "function"
    },
    {
      "inputs": [
        {
          "internalType": "address",
          "name": "owner",
          "type": "address"
        },
        {
          "internalType": "address",
          "name": "operator",
          "type": "address"
        }
      ],
      "name": "isApprovedForAll",
      "outputs": [
        {
          "internalType": "bool",
          "name": "",
          "type": "bool"
        }
      ],
      "stateMutability": "view",
      "type": "function"
    },
    {
      "inputs": [],
      "name": "name",
      "outputs": [
        {
          "internalType": "string",
          "name": "",
          "type": "string"
        }
      ],
      "stateMutability": "view",
      "type": "function"
    },
    {
      "inputs": [
        {
          "internalType": "uint256",
          "name": "tokenId",
          "type": "uint256"
        }
      ],
      "name": "ownerOf",
      "outputs": [
        {
          "internalType": "address",
          "name": "",
          "type": "address"
        }
      ],
      "stateMutability": "view",
      "type": "function"
    },
    {
      "inputs": [
        {
          "internalType": "address",
          "name": "from",
          "type": "address"
        },
        {
          "internalType": "address",
          "name": "to",
          "type": "address"
        },
        {
          "internalType": "uint256",
          "name": "tokenId",
          "type": "uint256"
        }
      ],
      "name": "safeTransferFrom",
      "outputs": [],
      "stateMutability": "nonpayable",
      "type": "function"
    },
    {
      "inputs": [
        {
          "internalType": "address",
          "name": "from",
          "type": "address"
        },
        {
          "internalType": "address",
          "name": "to",
          "type": "address"
        },
        {
          "internalType": "uint256",
          "name": "tokenId",
          "type": "uint256"
        },
        {
          "internalType": "bytes",
          "name": "_data",
          "type": "bytes"
        }
      ],
      "name": "safeTransferFrom",
      "outputs": [],
      "stateMutability": "nonpayable",
      "type": "function"
    },
    {
      "inputs": [
        {
          "internalType": "address",
          "name": "operator",
          "type": "address"
        },
        {
          "internalType": "bool",
          "name": "approved",
          "type": "bool"
        }
      ],
      "name": "setApprovalForAll",
      "outputs": [],
      "stateMutability": "nonpayable",
      "type": "function"
    },
    {
      "inputs": [
        {
          "internalType": "bytes4",
          "name": "interfaceId",
          "type": "bytes4"
        }
      ],
      "name": "supportsInterface",
      "outputs": [
        {
          "internalType": "bool",
          "name": "",
          "type": "bool"
        }
      ],
      "stateMutability": "view",
      "type": "function"
    },
    {
      "inputs": [],
      "name": "symbol",
      "outputs": [
        {
          "internalType": "string",
          "name": "",
          "type": "string"
        }
      ],
      "stateMutability": "view",
      "type": "function"
    },
    {
      "inputs": [
        {
          "internalType": "uint256",
          "name": "tokenId",
          "type": "uint256"
        }
      ],
      "name": "tokenURI",
      "outputs": [
        {
          "internalType": "string",
          "name": "",
          "type": "string"
        }
      ],
      "stateMutability": "view",
      "type": "function"
    },
    {
      "inputs": [
        {
          "internalType": "address",
          "name": "from",
          "type": "address"
        },
        {
          "internalType": "address",
          "name": "to",
          "type": "address"
        },
        {
          "internalType": "uint256",
          "name": "tokenId",
          "type": "uint256"
        }
      ],
      "name": "transferFrom",
      "outputs": [],
      "stateMutability": "nonpayable",
      "type": "function"
    }
  ],
  "bytecode": "0x60a06040523480156200001157600080fd5b5060405162002f2538038062002f2583398181016040528101906200003791906200022c565b6040518060400160405280600a81526020017f4170652046616d696c79000000000000000000000000000000000000000000008152506040518060400160405280600381526020017f41504600000000000000000000000000000000000000000000000000000000008152508160009080519060200190620000bb92919062000112565b508060019080519060200190620000d492919062000112565b5050508073ffffffffffffffffffffffffffffffffffffffff1660808173ffffffffffffffffffffffffffffffffffffffff168152505050620002c2565b82805462000120906200028d565b90600052602060002090601f01602090048101928262000144576000855562000190565b82601f106200015f57805160ff191683800117855562000190565b8280016001018555821562000190579182015b828111156200018f57825182559160200191906001019062000172565b5b5090506200019f9190620001a3565b5090565b5b80821115620001be576000816000905550600101620001a4565b5090565b600080fd5b600073ffffffffffffffffffffffffffffffffffffffff82169050919050565b6000620001f482620001c7565b9050919050565b6200020681620001e7565b81146200021257600080fd5b50565b6000815190506200022681620001fb565b92915050565b600060208284031215620002455762000244620001c2565b5b6000620002558482850162000215565b91505092915050565b7f4e487b7100000000000000000000000000000000000000000000000000000000600052602260045260246000fd5b60006002820490506001821680620002a657607f821691505b602082108103620002bc57620002bb6200025e565b5b50919050565b608051612c47620002de6000396000610a8d0152612c476000f3fe608060405234801561001057600080fd5b50600436106100ea5760003560e01c806370a082311161008c578063b88d4fde11610066578063b88d4fde1461025b578063c87b56dd14610277578063da2ed03e146102a7578063e985e9c5146102d7576100ea565b806370a08231146101f157806395d89b4114610221578063a22cb4651461023f576100ea565b8063095ea7b3116100c8578063095ea7b31461016d57806323b872dd1461018957806342842e0e146101a55780636352211e146101c1576100ea565b806301ffc9a7146100ef57806306fdde031461011f578063081812fc1461013d575b600080fd5b610109600480360381019061010491906119be565b610307565b6040516101169190611a06565b60405180910390f35b6101276103e9565b6040516101349190611aba565b60405180910390f35b61015760048036038101906101529190611b12565b61047b565b6040516101649190611b80565b60405180910390f35b61018760048036038101906101829190611bc7565b610500565b005b6101a3600480360381019061019e9190611c07565b610617565b005b6101bf60048036038101906101ba9190611c07565b610677565b005b6101db60048036038101906101d69190611b12565b610697565b6040516101e89190611b80565b60405180910390f35b61020b60048036038101906102069190611c5a565b610748565b6040516102189190611c96565b60405180910390f35b6102296107ff565b6040516102369190611aba565b60405180910390f35b61025960048036038101906102549190611cdd565b610891565b005b61027560048036038101906102709190611e52565b6108a7565b005b610291600480360381019061028c9190611b12565b610909565b60405161029e9190611aba565b60405180910390f35b6102c160048036038101906102bc9190611f76565b610a5a565b6040516102ce9190611c96565b60405180910390f35b6102f160048036038101906102ec9190611fbf565b610abc565b6040516102fe9190611a06565b60405180910390f35b60007f80ac58cd000000000000000000000000000000000000000000000000000000007bffffffffffffffffffffffffffffffffffffffffffffffffffffffff1916827bffffffffffffffffffffffffffffffffffffffffffffffffffffffff191614806103d257507f5b5e139f000000000000000000000000000000000000000000000000000000007bffffffffffffffffffffffffffffffffffffffffffffffffffffffff1916827bffffffffffffffffffffffffffffffffffffffffffffffffffffffff1916145b806103e257506103e182610b50565b5b9050919050565b6060600080546103f89061202e565b80601f01602080910402602001604051908101604052809291908181526020018280546104249061202e565b80156104715780601f1061044657610100808354040283529160200191610471565b820191906000526020600020905b81548152906001019060200180831161045457829003601f168201915b5050505050905090565b600061048682610bba565b6104c5576040517f08c379a00000000000000000000000000000000000000000000000000000000081526004016104bc906120d1565b60405180910390fd5b6004600083815260200190815260200160002060009054906101000a900473ffffffffffffffffffffffffffffffffffffffff169050919050565b600061050b82610697565b90508073ffffffffffffffffffffffffffffffffffffffff168373ffffffffffffffffffffffffffffffffffffffff160361057b576040517f08c379a000000000000000000000000000000000000000000000000000000000815260040161057290612163565b60405180910390fd5b8073ffffffffffffffffffffffffffffffffffffffff1661059a610c26565b73ffffffffffffffffffffffffffffffffffffffff1614806105c957506105c8816105c3610c26565b610abc565b5b610608576040517f08c379a00000000000000000000000000000000000000000000000000000000081526004016105ff906121f5565b60405180910390fd5b6106128383610c2e565b505050565b610628610622610c26565b82610ce7565b610667576040517f08c379a000000000000000000000000000000000000000000000000000000000815260040161065e90612287565b60405180910390fd5b610672838383610dc5565b505050565b610692838383604051806020016040528060008152506108a7565b505050565b6000806002600084815260200190815260200160002060009054906101000a900473ffffffffffffffffffffffffffffffffffffffff169050600073ffffffffffffffffffffffffffffffffffffffff168173ffffffffffffffffffffffffffffffffffffffff160361073f576040517f08c379a000000000000000000000000000000000000000000000000000000000815260040161073690612319565b60405180910390fd5b80915050919050565b60008073ffffffffffffffffffffffffffffffffffffffff168273ffffffffffffffffffffffffffffffffffffffff16036107b8576040517f08c379a00000000000000000000000000000000000000000000000000000000081526004016107af906123ab565b60405180910390fd5b600360008373ffffffffffffffffffffffffffffffffffffffff1673ffffffffffffffffffffffffffffffffffffffff168152602001908152602001600020549050919050565b60606001805461080e9061202e565b80601f016020809104026020016040519081016040528092919081815260200182805461083a9061202e565b80156108875780601f1061085c57610100808354040283529160200191610887565b820191906000526020600020905b81548152906001019060200180831161086a57829003601f168201915b5050505050905090565b6108a361089c610c26565b838361102b565b5050565b6108b86108b2610c26565b83610ce7565b6108f7576040517f08c379a00000000000000000000000000000000000000000000000000000000081526004016108ee90612287565b60405180910390fd5b61090384848484611197565b50505050565b606061091482610bba565b610953576040517f08c379a000000000000000000000000000000000000000000000000000000000815260040161094a9061243d565b60405180910390fd5b60006006600084815260200190815260200160002080546109739061202e565b80601f016020809104026020016040519081016040528092919081815260200182805461099f9061202e565b80156109ec5780601f106109c1576101008083540402835291602001916109ec565b820191906000526020600020905b8154815290600101906020018083116109cf57829003601f168201915b5050505050905060006109fd6111f3565b90506000815103610a12578192505050610a55565b600082511115610a47578082604051602001610a2f929190612499565b60405160208183030381529060405292505050610a55565b610a508461120a565b925050505b919050565b6000610a6660076112b1565b6000610a7260076112c7565b9050610a7e33826112d5565b610a8881846112f3565b610ab37f00000000000000000000000000000000000000000000000000000000000000006001610891565b80915050919050565b6000600560008473ffffffffffffffffffffffffffffffffffffffff1673ffffffffffffffffffffffffffffffffffffffff16815260200190815260200160002060008373ffffffffffffffffffffffffffffffffffffffff1673ffffffffffffffffffffffffffffffffffffffff16815260200190815260200160002060009054906101000a900460ff16905092915050565b60007f01ffc9a7000000000000000000000000000000000000000000000000000000007bffffffffffffffffffffffffffffffffffffffffffffffffffffffff1916827bffffffffffffffffffffffffffffffffffffffffffffffffffffffff1916149050919050565b60008073ffffffffffffffffffffffffffffffffffffffff166002600084815260200190815260200160002060009054906101000a900473ffffffffffffffffffffffffffffffffffffffff1673ffffffffffffffffffffffffffffffffffffffff1614159050919050565b600033905090565b816004600083815260200190815260200160002060006101000a81548173ffffffffffffffffffffffffffffffffffffffff021916908373ffffffffffffffffffffffffffffffffffffffff160217905550808273ffffffffffffffffffffffffffffffffffffffff16610ca183610697565b73ffffffffffffffffffffffffffffffffffffffff167f8c5be1e5ebec7d5bd14f71427d1e84f3dd0314c0f7b2291e5b200ac8c7c3b92560405160405180910390a45050565b6000610cf282610bba565b610d31576040517f08c379a0000000000000000000000000000000000000000000000000000000008152600401610d289061252f565b60405180910390fd5b6000610d3c83610697565b90508073ffffffffffffffffffffffffffffffffffffffff168473ffffffffffffffffffffffffffffffffffffffff161480610dab57508373ffffffffffffffffffffffffffffffffffffffff16610d938461047b565b73ffffffffffffffffffffffffffffffffffffffff16145b80610dbc5750610dbb8185610abc565b5b91505092915050565b8273ffffffffffffffffffffffffffffffffffffffff16610de582610697565b73ffffffffffffffffffffffffffffffffffffffff1614610e3b576040517f08c379a0000000000000000000000000000000000000000000000000000000008152600401610e32906125c1565b60405180910390fd5b600073ffffffffffffffffffffffffffffffffffffffff168273ffffffffffffffffffffffffffffffffffffffff1603610eaa576040517f08c379a0000000000000000000000000000000000000000000000000000000008152600401610ea190612653565b60405180910390fd5b610eb5838383611367565b610ec0600082610c2e565b6001600360008573ffffffffffffffffffffffffffffffffffffffff1673ffffffffffffffffffffffffffffffffffffffff1681526020019081526020016000206000828254610f1091906126a2565b925050819055506001600360008473ffffffffffffffffffffffffffffffffffffffff1673ffffffffffffffffffffffffffffffffffffffff1681526020019081526020016000206000828254610f6791906126d6565b92505081905550816002600083815260200190815260200160002060006101000a81548173ffffffffffffffffffffffffffffffffffffffff021916908373ffffffffffffffffffffffffffffffffffffffff160217905550808273ffffffffffffffffffffffffffffffffffffffff168473ffffffffffffffffffffffffffffffffffffffff167fddf252ad1be2c89b69c2b068fc378daa952ba7f163c4a11628f55a4df523b3ef60405160405180910390a461102683838361136c565b505050565b8173ffffffffffffffffffffffffffffffffffffffff168373ffffffffffffffffffffffffffffffffffffffff1603611099576040517f08c379a000000000000000000000000000000000000000000000000000000000815260040161109090612778565b60405180910390fd5b80600560008573ffffffffffffffffffffffffffffffffffffffff1673ffffffffffffffffffffffffffffffffffffffff16815260200190815260200160002060008473ffffffffffffffffffffffffffffffffffffffff1673ffffffffffffffffffffffffffffffffffffffff16815260200190815260200160002060006101000a81548160ff0219169083151502179055508173ffffffffffffffffffffffffffffffffffffffff168373ffffffffffffffffffffffffffffffffffffffff167f17307eab39ab6107e8899845ad3d59bd9653f200f220920489ca2b5937696c318360405161118a9190611a06565b60405180910390a3505050565b6111a2848484610dc5565b6111ae84848484611371565b6111ed576040517f08c379a00000000000000000000000000000000000000000000000000000000081526004016111e49061280a565b60405180910390fd5b50505050565b606060405180602001604052806000815250905090565b606061121582610bba565b611254576040517f08c379a000000000000000000000000000000000000000000000000000000000815260040161124b9061289c565b60405180910390fd5b600061125e6111f3565b9050600081511161127e57604051806020016040528060008152506112a9565b80611288846114f8565b604051602001611299929190612499565b6040516020818303038152906040525b915050919050565b6001816000016000828254019250508190555050565b600081600001549050919050565b6112ef828260405180602001604052806000815250611658565b5050565b6112fc82610bba565b61133b576040517f08c379a00000000000000000000000000000000000000000000000000000000081526004016113329061292e565b60405180910390fd5b806006600084815260200190815260200160002090805190602001906113629291906118af565b505050565b505050565b505050565b60006113928473ffffffffffffffffffffffffffffffffffffffff166116b3565b156114eb578373ffffffffffffffffffffffffffffffffffffffff1663150b7a026113bb610c26565b8786866040518563ffffffff1660e01b81526004016113dd94939291906129a3565b6020604051808303816000875af192505050801561141957506040513d601f19601f820116820180604052508101906114169190612a04565b60015b61149b573d8060008114611449576040519150601f19603f3d011682016040523d82523d6000602084013e61144e565b606091505b506000815103611493576040517f08c379a000000000000000000000000000000000000000000000000000000000815260040161148a9061280a565b60405180910390fd5b805181602001fd5b63150b7a0260e01b7bffffffffffffffffffffffffffffffffffffffffffffffffffffffff1916817bffffffffffffffffffffffffffffffffffffffffffffffffffffffff1916149150506114f0565b600190505b949350505050565b60606000820361153f576040518060400160405280600181526020017f30000000000000000000000000000000000000000000000000000000000000008152509050611653565b600082905060005b6000821461157157808061155a90612a31565b915050600a8261156a9190612aa8565b9150611547565b60008167ffffffffffffffff81111561158d5761158c611d27565b5b6040519080825280601f01601f1916602001820160405280156115bf5781602001600182028036833780820191505090505b5090505b6000851461164c576001826115d891906126a2565b9150600a856115e79190612ad9565b60306115f391906126d6565b60f81b81838151811061160957611608612b0a565b5b60200101907effffffffffffffffffffffffffffffffffffffffffffffffffffffffffffff1916908160001a905350600a856116459190612aa8565b94506115c3565b8093505050505b919050565b61166283836116d6565b61166f6000848484611371565b6116ae576040517f08c379a00000000000000000000000000000000000000000000000000000000081526004016116a59061280a565b60405180910390fd5b505050565b6000808273ffffffffffffffffffffffffffffffffffffffff163b119050919050565b600073ffffffffffffffffffffffffffffffffffffffff168273ffffffffffffffffffffffffffffffffffffffff1603611745576040517f08c379a000000000000000000000000000000000000000000000000000000000815260040161173c90612b85565b60405180910390fd5b61174e81610bba565b1561178e576040517f08c379a000000000000000000000000000000000000000000000000000000000815260040161178590612bf1565b60405180910390fd5b61179a60008383611367565b6001600360008473ffffffffffffffffffffffffffffffffffffffff1673ffffffffffffffffffffffffffffffffffffffff16815260200190815260200160002060008282546117ea91906126d6565b92505081905550816002600083815260200190815260200160002060006101000a81548173ffffffffffffffffffffffffffffffffffffffff021916908373ffffffffffffffffffffffffffffffffffffffff160217905550808273ffffffffffffffffffffffffffffffffffffffff16600073ffffffffffffffffffffffffffffffffffffffff167fddf252ad1be2c89b69c2b068fc378daa952ba7f163c4a11628f55a4df523b3ef60405160405180910390a46118ab6000838361136c565b5050565b8280546118bb9061202e565b90600052602060002090601f0160209004810192826118dd5760008555611924565b82601f106118f657805160ff1916838001178555611924565b82800160010185558215611924579182015b82811115611923578251825591602001919060010190611908565b5b5090506119319190611935565b5090565b5b8082111561194e576000816000905550600101611936565b5090565b6000604051905090565b600080fd5b600080fd5b60007fffffffff0000000000000000000000000000000000000000000000000000000082169050919050565b61199b81611966565b81146119a657600080fd5b50565b6000813590506119b881611992565b92915050565b6000602082840312156119d4576119d361195c565b5b60006119e2848285016119a9565b91505092915050565b60008115159050919050565b611a00816119eb565b82525050565b6000602082019050611a1b60008301846119f7565b92915050565b600081519050919050565b600082825260208201905092915050565b60005b83811015611a5b578082015181840152602081019050611a40565b83811115611a6a576000848401525b50505050565b6000601f19601f8301169050919050565b6000611a8c82611a21565b611a968185611a2c565b9350611aa6818560208601611a3d565b611aaf81611a70565b840191505092915050565b60006020820190508181036000830152611ad48184611a81565b905092915050565b6000819050919050565b611aef81611adc565b8114611afa57600080fd5b50565b600081359050611b0c81611ae6565b92915050565b600060208284031215611b2857611b2761195c565b5b6000611b3684828501611afd565b91505092915050565b600073ffffffffffffffffffffffffffffffffffffffff82169050919050565b6000611b6a82611b3f565b9050919050565b611b7a81611b5f565b82525050565b6000602082019050611b956000830184611b71565b92915050565b611ba481611b5f565b8114611baf57600080fd5b50565b600081359050611bc181611b9b565b92915050565b60008060408385031215611bde57611bdd61195c565b5b6000611bec85828601611bb2565b9250506020611bfd85828601611afd565b9150509250929050565b600080600060608486031215611c2057611c1f61195c565b5b6000611c2e86828701611bb2565b9350506020611c3f86828701611bb2565b9250506040611c5086828701611afd565b9150509250925092565b600060208284031215611c7057611c6f61195c565b5b6000611c7e84828501611bb2565b91505092915050565b611c9081611adc565b82525050565b6000602082019050611cab6000830184611c87565b92915050565b611cba816119eb565b8114611cc557600080fd5b50565b600081359050611cd781611cb1565b92915050565b60008060408385031215611cf457611cf361195c565b5b6000611d0285828601611bb2565b9250506020611d1385828601611cc8565b9150509250929050565b600080fd5b600080fd5b7f4e487b7100000000000000000000000000000000000000000000000000000000600052604160045260246000fd5b611d5f82611a70565b810181811067ffffffffffffffff82111715611d7e57611d7d611d27565b5b80604052505050565b6000611d91611952565b9050611d9d8282611d56565b919050565b600067ffffffffffffffff821115611dbd57611dbc611d27565b5b611dc682611a70565b9050602081019050919050565b82818337600083830152505050565b6000611df5611df084611da2565b611d87565b905082815260208101848484011115611e1157611e10611d22565b5b611e1c848285611dd3565b509392505050565b600082601f830112611e3957611e38611d1d565b5b8135611e49848260208601611de2565b91505092915050565b60008060008060808587031215611e6c57611e6b61195c565b5b6000611e7a87828801611bb2565b9450506020611e8b87828801611bb2565b9350506040611e9c87828801611afd565b925050606085013567ffffffffffffffff811115611ebd57611ebc611961565b5b611ec987828801611e24565b91505092959194509250565b600067ffffffffffffffff821115611ef057611eef611d27565b5b611ef982611a70565b9050602081019050919050565b6000611f19611f1484611ed5565b611d87565b905082815260208101848484011115611f3557611f34611d22565b5b611f40848285611dd3565b509392505050565b600082601f830112611f5d57611f5c611d1d565b5b8135611f6d848260208601611f06565b91505092915050565b600060208284031215611f8c57611f8b61195c565b5b600082013567ffffffffffffffff811115611faa57611fa9611961565b5b611fb684828501611f48565b91505092915050565b60008060408385031215611fd657611fd561195c565b5b6000611fe485828601611bb2565b9250506020611ff585828601611bb2565b9150509250929050565b7f4e487b7100000000000000000000000000000000000000000000000000000000600052602260045260246000fd5b6000600282049050600182168061204657607f821691505b60208210810361205957612058611fff565b5b50919050565b7f4552433732313a20617070726f76656420717565727920666f72206e6f6e657860008201527f697374656e7420746f6b656e0000000000000000000000000000000000000000602082015250565b60006120bb602c83611a2c565b91506120c68261205f565b604082019050919050565b600060208201905081810360008301526120ea816120ae565b9050919050565b7f4552433732313a20617070726f76616c20746f2063757272656e74206f776e6560008201527f7200000000000000000000000000000000000000000000000000000000000000602082015250565b600061214d602183611a2c565b9150612158826120f1565b604082019050919050565b6000602082019050818103600083015261217c81612140565b9050919050565b7f4552433732313a20617070726f76652063616c6c6572206973206e6f74206f7760008201527f6e6572206e6f7220617070726f76656420666f7220616c6c0000000000000000602082015250565b60006121df603883611a2c565b91506121ea82612183565b604082019050919050565b6000602082019050818103600083015261220e816121d2565b9050919050565b7f4552433732313a207472616e736665722063616c6c6572206973206e6f74206f60008201527f776e6572206e6f7220617070726f766564000000000000000000000000000000602082015250565b6000612271603183611a2c565b915061227c82612215565b604082019050919050565b600060208201905081810360008301526122a081612264565b9050919050565b7f4552433732313a206f776e657220717565727920666f72206e6f6e657869737460008201527f656e7420746f6b656e0000000000000000000000000000000000000000000000602082015250565b6000612303602983611a2c565b915061230e826122a7565b604082019050919050565b60006020820190508181036000830152612332816122f6565b9050919050565b7f4552433732313a2062616c616e636520717565727920666f7220746865207a6560008201527f726f206164647265737300000000000000000000000000000000000000000000602082015250565b6000612395602a83611a2c565b91506123a082612339565b604082019050919050565b600060208201905081810360008301526123c481612388565b9050919050565b7f45524337323155524953746f726167653a2055524920717565727920666f722060008201527f6e6f6e6578697374656e7420746f6b656e000000000000000000000000000000602082015250565b6000612427603183611a2c565b9150612432826123cb565b604082019050919050565b600060208201905081810360008301526124568161241a565b9050919050565b600081905092915050565b600061247382611a21565b61247d818561245d565b935061248d818560208601611a3d565b80840191505092915050565b60006124a58285612468565b91506124b18284612468565b91508190509392505050565b7f4552433732313a206f70657261746f7220717565727920666f72206e6f6e657860008201527f697374656e7420746f6b656e0000000000000000000000000000000000000000602082015250565b6000612519602c83611a2c565b9150612524826124bd565b604082019050919050565b600060208201905081810360008301526125488161250c565b9050919050565b7f4552433732313a207472616e736665722066726f6d20696e636f72726563742060008201527f6f776e6572000000000000000000000000000000000000000000000000000000602082015250565b60006125ab602583611a2c565b91506125b68261254f565b604082019050919050565b600060208201905081810360008301526125da8161259e565b9050919050565b7f4552433732313a207472616e7366657220746f20746865207a65726f2061646460008201527f7265737300000000000000000000000000000000000000000000000000000000602082015250565b600061263d602483611a2c565b9150612648826125e1565b604082019050919050565b6000602082019050818103600083015261266c81612630565b9050919050565b7f4e487b7100000000000000000000000000000000000000000000000000000000600052601160045260246000fd5b60006126ad82611adc565b91506126b883611adc565b9250828210156126cb576126ca612673565b5b828203905092915050565b60006126e182611adc565b91506126ec83611adc565b9250827fffffffffffffffffffffffffffffffffffffffffffffffffffffffffffffffff0382111561272157612720612673565b5b828201905092915050565b7f4552433732313a20617070726f766520746f2063616c6c657200000000000000600082015250565b6000612762601983611a2c565b915061276d8261272c565b602082019050919050565b6000602082019050818103600083015261279181612755565b9050919050565b7f4552433732313a207472616e7366657220746f206e6f6e20455243373231526560008201527f63656976657220696d706c656d656e7465720000000000000000000000000000602082015250565b60006127f4603283611a2c565b91506127ff82612798565b604082019050919050565b60006020820190508181036000830152612823816127e7565b9050919050565b7f4552433732314d657461646174613a2055524920717565727920666f72206e6f60008201527f6e6578697374656e7420746f6b656e0000000000000000000000000000000000602082015250565b6000612886602f83611a2c565b91506128918261282a565b604082019050919050565b600060208201905081810360008301526128b581612879565b9050919050565b7f45524337323155524953746f726167653a2055524920736574206f66206e6f6e60008201527f6578697374656e7420746f6b656e000000000000000000000000000000000000602082015250565b6000612918602e83611a2c565b9150612923826128bc565b604082019050919050565b600060208201905081810360008301526129478161290b565b9050919050565b600081519050919050565b600082825260208201905092915050565b60006129758261294e565b61297f8185612959565b935061298f818560208601611a3d565b61299881611a70565b840191505092915050565b60006080820190506129b86000830187611b71565b6129c56020830186611b71565b6129d26040830185611c87565b81810360608301526129e4818461296a565b905095945050505050565b6000815190506129fe81611992565b92915050565b600060208284031215612a1a57612a1961195c565b5b6000612a28848285016129ef565b91505092915050565b6000612a3c82611adc565b91507fffffffffffffffffffffffffffffffffffffffffffffffffffffffffffffffff8203612a6e57612a6d612673565b5b600182019050919050565b7f4e487b7100000000000000000000000000000000000000000000000000000000600052601260045260246000fd5b6000612ab382611adc565b9150612abe83611adc565b925082612ace57612acd612a79565b5b828204905092915050565b6000612ae482611adc565b9150612aef83611adc565b925082612aff57612afe612a79565b5b828206905092915050565b7f4e487b7100000000000000000000000000000000000000000000000000000000600052603260045260246000fd5b7f4552433732313a206d696e7420746f20746865207a65726f2061646472657373600082015250565b6000612b6f602083611a2c565b9150612b7a82612b39565b602082019050919050565b60006020820190508181036000830152612b9e81612b62565b9050919050565b7f4552433732313a20746f6b656e20616c7265616479206d696e74656400000000600082015250565b6000612bdb601c83611a2c565b9150612be682612ba5565b602082019050919050565b60006020820190508181036000830152612c0a81612bce565b905091905056fea2646970667358221220a4086834fbdaf62c452c045e2a4c3cff53655c046d89bf868ef471b8a1de2d9d64736f6c634300080d0033",
  "linkReferences": {},
  "deployedLinkReferences": {}
}