{
  "_format": "hh-sol-artifact-1",
  "contractName": "NFT",
  "sourceName": "contracts/NFT.sol",
  "abi": [
    {
      "inputs": [
        {
          "internalType": "address",
          "name": "_marketplace",
          "type": "address"
        },
        {
          "internalType": "address",
          "name": "forwarder",
          "type": "address"
        }
      ],
      "stateMutability": "nonpayable",
      "type": "constructor"
    },
    {
      "anonymous": false,
      "inputs": [
        {
          "indexed": true,
          "internalType": "address",
          "name": "owner",
          "type": "address"
        },
        {
          "indexed": true,
          "internalType": "address",
          "name": "approved",
          "type": "address"
        },
        {
          "indexed": true,
          "internalType": "uint256",
          "name": "tokenId",
          "type": "uint256"
        }
      ],
      "name": "Approval",
      "type": "event"
    },
    {
      "anonymous": false,
      "inputs": [
        {
          "indexed": true,
          "internalType": "address",
          "name": "owner",
          "type": "address"
        },
        {
          "indexed": true,
          "internalType": "address",
          "name": "operator",
          "type": "address"
        },
        {
          "indexed": false,
          "internalType": "bool",
          "name": "approved",
          "type": "bool"
        }
      ],
      "name": "ApprovalForAll",
      "type": "event"
    },
    {
      "anonymous": false,
      "inputs": [
        {
          "indexed": true,
          "internalType": "address",
          "name": "from",
          "type": "address"
        },
        {
          "indexed": true,
          "internalType": "address",
          "name": "to",
          "type": "address"
        },
        {
          "indexed": true,
          "internalType": "uint256",
          "name": "tokenId",
          "type": "uint256"
        }
      ],
      "name": "Transfer",
      "type": "event"
    },
    {
      "inputs": [
        {
          "internalType": "address",
          "name": "to",
          "type": "address"
        },
        {
          "internalType": "uint256",
          "name": "tokenId",
          "type": "uint256"
        }
      ],
      "name": "approve",
      "outputs": [],
      "stateMutability": "nonpayable",
      "type": "function"
    },
    {
      "inputs": [
        {
          "internalType": "address",
          "name": "owner",
          "type": "address"
        }
      ],
      "name": "balanceOf",
      "outputs": [
        {
          "internalType": "uint256",
          "name": "",
          "type": "uint256"
        }
      ],
      "stateMutability": "view",
      "type": "function"
    },
    {
      "inputs": [
        {
          "internalType": "string",
          "name": "tokenURI",
          "type": "string"
        }
      ],
      "name": "createNFT",
      "outputs": [
        {
          "internalType": "uint256",
          "name": "",
          "type": "uint256"
        }
      ],
      "stateMutability": "nonpayable",
      "type": "function"
    },
    {
      "inputs": [
        {
          "internalType": "uint256",
          "name": "tokenId",
          "type": "uint256"
        }
      ],
      "name": "getApproved",
      "outputs": [
        {
          "internalType": "address",
          "name": "",
          "type": "address"
        }
      ],
      "stateMutability": "view",
      "type": "function"
    },
    {
      "inputs": [],
      "name": "getTrustedForwarder",
      "outputs": [
        {
          "internalType": "address",
          "name": "forwarder",
          "type": "address"
        }
      ],
      "stateMutability": "view",
      "type": "function"
    },
    {
      "inputs": [
        {
          "internalType": "address",
          "name": "owner",
          "type": "address"
        },
        {
          "internalType": "address",
          "name": "operator",
          "type": "address"
        }
      ],
      "name": "isApprovedForAll",
      "outputs": [
        {
          "internalType": "bool",
          "name": "",
          "type": "bool"
        }
      ],
      "stateMutability": "view",
      "type": "function"
    },
    {
      "inputs": [
        {
          "internalType": "address",
          "name": "forwarder",
          "type": "address"
        }
      ],
      "name": "isTrustedForwarder",
      "outputs": [
        {
          "internalType": "bool",
          "name": "",
          "type": "bool"
        }
      ],
      "stateMutability": "view",
      "type": "function"
    },
    {
      "inputs": [],
      "name": "name",
      "outputs": [
        {
          "internalType": "string",
          "name": "",
          "type": "string"
        }
      ],
      "stateMutability": "view",
      "type": "function"
    },
    {
      "inputs": [
        {
          "internalType": "uint256",
          "name": "tokenId",
          "type": "uint256"
        }
      ],
      "name": "ownerOf",
      "outputs": [
        {
          "internalType": "address",
          "name": "",
          "type": "address"
        }
      ],
      "stateMutability": "view",
      "type": "function"
    },
    {
      "inputs": [
        {
          "internalType": "address",
          "name": "from",
          "type": "address"
        },
        {
          "internalType": "address",
          "name": "to",
          "type": "address"
        },
        {
          "internalType": "uint256",
          "name": "tokenId",
          "type": "uint256"
        }
      ],
      "name": "safeTransferFrom",
      "outputs": [],
      "stateMutability": "nonpayable",
      "type": "function"
    },
    {
      "inputs": [
        {
          "internalType": "address",
          "name": "from",
          "type": "address"
        },
        {
          "internalType": "address",
          "name": "to",
          "type": "address"
        },
        {
          "internalType": "uint256",
          "name": "tokenId",
          "type": "uint256"
        },
        {
          "internalType": "bytes",
          "name": "_data",
          "type": "bytes"
        }
      ],
      "name": "safeTransferFrom",
      "outputs": [],
      "stateMutability": "nonpayable",
      "type": "function"
    },
    {
      "inputs": [
        {
          "internalType": "address",
          "name": "operator",
          "type": "address"
        },
        {
          "internalType": "bool",
          "name": "approved",
          "type": "bool"
        }
      ],
      "name": "setApprovalForAll",
      "outputs": [],
      "stateMutability": "nonpayable",
      "type": "function"
    },
    {
      "inputs": [
        {
          "internalType": "bytes4",
          "name": "interfaceId",
          "type": "bytes4"
        }
      ],
      "name": "supportsInterface",
      "outputs": [
        {
          "internalType": "bool",
          "name": "",
          "type": "bool"
        }
      ],
      "stateMutability": "view",
      "type": "function"
    },
    {
      "inputs": [],
      "name": "symbol",
      "outputs": [
        {
          "internalType": "string",
          "name": "",
          "type": "string"
        }
      ],
      "stateMutability": "view",
      "type": "function"
    },
    {
      "inputs": [
        {
          "internalType": "uint256",
          "name": "tokenId",
          "type": "uint256"
        }
      ],
      "name": "tokenURI",
      "outputs": [
        {
          "internalType": "string",
          "name": "",
          "type": "string"
        }
      ],
      "stateMutability": "view",
      "type": "function"
    },
    {
      "inputs": [
        {
          "internalType": "address",
          "name": "from",
          "type": "address"
        },
        {
          "internalType": "address",
          "name": "to",
          "type": "address"
        },
        {
          "internalType": "uint256",
          "name": "tokenId",
          "type": "uint256"
        }
      ],
      "name": "transferFrom",
      "outputs": [],
      "stateMutability": "nonpayable",
      "type": "function"
    },
    {
      "inputs": [],
      "name": "versionRecipient",
      "outputs": [
        {
          "internalType": "string",
          "name": "",
          "type": "string"
        }
      ],
      "stateMutability": "view",
      "type": "function"
    }
  ],
  "bytecode": "0x60a06040526040518060400160405280600681526020017f76302e302e3100000000000000000000000000000000000000000000000000008152506008908051906020019062000051929190620001b6565b503480156200005f57600080fd5b50604051620031c2380380620031c28339818101604052810190620000859190620002d0565b6040518060400160405280600a81526020017f4170652046616d696c79000000000000000000000000000000000000000000008152506040518060400160405280600381526020017f4150460000000000000000000000000000000000000000000000000000000000815250816000908051906020019062000109929190620001b6565b50806001908051906020019062000122929190620001b6565b5050508173ffffffffffffffffffffffffffffffffffffffff1660808173ffffffffffffffffffffffffffffffffffffffff16815250506200016a816200017260201b60201c565b50506200037b565b80600760006101000a81548173ffffffffffffffffffffffffffffffffffffffff021916908373ffffffffffffffffffffffffffffffffffffffff16021790555050565b828054620001c49062000346565b90600052602060002090601f016020900481019282620001e8576000855562000234565b82601f106200020357805160ff191683800117855562000234565b8280016001018555821562000234579182015b828111156200023357825182559160200191906001019062000216565b5b50905062000243919062000247565b5090565b5b808211156200026257600081600090555060010162000248565b5090565b600080fd5b600073ffffffffffffffffffffffffffffffffffffffff82169050919050565b600062000298826200026b565b9050919050565b620002aa816200028b565b8114620002b657600080fd5b50565b600081519050620002ca816200029f565b92915050565b60008060408385031215620002ea57620002e962000266565b5b6000620002fa85828601620002b9565b92505060206200030d85828601620002b9565b9150509250929050565b7f4e487b7100000000000000000000000000000000000000000000000000000000600052602260045260246000fd5b600060028204905060018216806200035f57607f821691505b60208210810362000375576200037462000317565b5b50919050565b608051612e2b620003976000396000610c330152612e2b6000f3fe608060405234801561001057600080fd5b506004361061010b5760003560e01c80636352211e116100a2578063b88d4fde11610071578063b88d4fde146102ca578063c87b56dd146102e6578063ce1b815f14610316578063da2ed03e14610334578063e985e9c5146103645761010b565b80636352211e1461023057806370a082311461026057806395d89b4114610290578063a22cb465146102ae5761010b565b806323b872dd116100de57806323b872dd146101aa57806342842e0e146101c6578063486ff0cd146101e2578063572b6c05146102005761010b565b806301ffc9a71461011057806306fdde0314610140578063081812fc1461015e578063095ea7b31461018e575b600080fd5b61012a60048036038101906101259190611ba2565b610394565b6040516101379190611bea565b60405180910390f35b610148610476565b6040516101559190611c9e565b60405180910390f35b61017860048036038101906101739190611cf6565b610508565b6040516101859190611d64565b60405180910390f35b6101a860048036038101906101a39190611dab565b61058d565b005b6101c460048036038101906101bf9190611deb565b6106a4565b005b6101e060048036038101906101db9190611deb565b610704565b005b6101ea610724565b6040516101f79190611c9e565b60405180910390f35b61021a60048036038101906102159190611e3e565b6107b2565b6040516102279190611bea565b60405180910390f35b61024a60048036038101906102459190611cf6565b61080c565b6040516102579190611d64565b60405180910390f35b61027a60048036038101906102759190611e3e565b6108bd565b6040516102879190611e7a565b60405180910390f35b610298610974565b6040516102a59190611c9e565b60405180910390f35b6102c860048036038101906102c39190611ec1565b610a06565b005b6102e460048036038101906102df9190612036565b610a1c565b005b61030060048036038101906102fb9190611cf6565b610a7e565b60405161030d9190611c9e565b60405180910390f35b61031e610bcf565b60405161032b9190611d64565b60405180910390f35b61034e6004803603810190610349919061215a565b610bf9565b60405161035b9190611e7a565b60405180910390f35b61037e600480360381019061037991906121a3565b610c62565b60405161038b9190611bea565b60405180910390f35b60007f80ac58cd000000000000000000000000000000000000000000000000000000007bffffffffffffffffffffffffffffffffffffffffffffffffffffffff1916827bffffffffffffffffffffffffffffffffffffffffffffffffffffffff1916148061045f57507f5b5e139f000000000000000000000000000000000000000000000000000000007bffffffffffffffffffffffffffffffffffffffffffffffffffffffff1916827bffffffffffffffffffffffffffffffffffffffffffffffffffffffff1916145b8061046f575061046e82610cf6565b5b9050919050565b60606000805461048590612212565b80601f01602080910402602001604051908101604052809291908181526020018280546104b190612212565b80156104fe5780601f106104d3576101008083540402835291602001916104fe565b820191906000526020600020905b8154815290600101906020018083116104e157829003601f168201915b5050505050905090565b600061051382610d60565b610552576040517f08c379a0000000000000000000000000000000000000000000000000000000008152600401610549906122b5565b60405180910390fd5b6004600083815260200190815260200160002060009054906101000a900473ffffffffffffffffffffffffffffffffffffffff169050919050565b60006105988261080c565b90508073ffffffffffffffffffffffffffffffffffffffff168373ffffffffffffffffffffffffffffffffffffffff1603610608576040517f08c379a00000000000000000000000000000000000000000000000000000000081526004016105ff90612347565b60405180910390fd5b8073ffffffffffffffffffffffffffffffffffffffff16610627610dcc565b73ffffffffffffffffffffffffffffffffffffffff161480610656575061065581610650610dcc565b610c62565b5b610695576040517f08c379a000000000000000000000000000000000000000000000000000000000815260040161068c906123d9565b60405180910390fd5b61069f8383610ddb565b505050565b6106b56106af610dcc565b82610e94565b6106f4576040517f08c379a00000000000000000000000000000000000000000000000000000000081526004016106eb9061246b565b60405180910390fd5b6106ff838383610f72565b505050565b61071f83838360405180602001604052806000815250610a1c565b505050565b6008805461073190612212565b80601f016020809104026020016040519081016040528092919081815260200182805461075d90612212565b80156107aa5780601f1061077f576101008083540402835291602001916107aa565b820191906000526020600020905b81548152906001019060200180831161078d57829003601f168201915b505050505081565b6000600760009054906101000a900473ffffffffffffffffffffffffffffffffffffffff1673ffffffffffffffffffffffffffffffffffffffff168273ffffffffffffffffffffffffffffffffffffffff16149050919050565b6000806002600084815260200190815260200160002060009054906101000a900473ffffffffffffffffffffffffffffffffffffffff169050600073ffffffffffffffffffffffffffffffffffffffff168173ffffffffffffffffffffffffffffffffffffffff16036108b4576040517f08c379a00000000000000000000000000000000000000000000000000000000081526004016108ab906124fd565b60405180910390fd5b80915050919050565b60008073ffffffffffffffffffffffffffffffffffffffff168273ffffffffffffffffffffffffffffffffffffffff160361092d576040517f08c379a00000000000000000000000000000000000000000000000000000000081526004016109249061258f565b60405180910390fd5b600360008373ffffffffffffffffffffffffffffffffffffffff1673ffffffffffffffffffffffffffffffffffffffff168152602001908152602001600020549050919050565b60606001805461098390612212565b80601f01602080910402602001604051908101604052809291908181526020018280546109af90612212565b80156109fc5780601f106109d1576101008083540402835291602001916109fc565b820191906000526020600020905b8154815290600101906020018083116109df57829003601f168201915b5050505050905090565b610a18610a11610dcc565b83836111d8565b5050565b610a2d610a27610dcc565b83610e94565b610a6c576040517f08c379a0000000000000000000000000000000000000000000000000000000008152600401610a639061246b565b60405180910390fd5b610a7884848484611344565b50505050565b6060610a8982610d60565b610ac8576040517f08c379a0000000000000000000000000000000000000000000000000000000008152600401610abf90612621565b60405180910390fd5b6000600660008481526020019081526020016000208054610ae890612212565b80601f0160208091040260200160405190810160405280929190818152602001828054610b1490612212565b8015610b615780601f10610b3657610100808354040283529160200191610b61565b820191906000526020600020905b815481529060010190602001808311610b4457829003601f168201915b505050505090506000610b726113a0565b90506000815103610b87578192505050610bca565b600082511115610bbc578082604051602001610ba492919061267d565b60405160208183030381529060405292505050610bca565b610bc5846113b7565b925050505b919050565b6000600760009054906101000a900473ffffffffffffffffffffffffffffffffffffffff16905090565b6000610c05600961145e565b6000610c116009611474565b9050610c24610c1e610dcc565b82611482565b610c2e81846114a0565b610c597f00000000000000000000000000000000000000000000000000000000000000006001610a06565b80915050919050565b6000600560008473ffffffffffffffffffffffffffffffffffffffff1673ffffffffffffffffffffffffffffffffffffffff16815260200190815260200160002060008373ffffffffffffffffffffffffffffffffffffffff1673ffffffffffffffffffffffffffffffffffffffff16815260200190815260200160002060009054906101000a900460ff16905092915050565b60007f01ffc9a7000000000000000000000000000000000000000000000000000000007bffffffffffffffffffffffffffffffffffffffffffffffffffffffff1916827bffffffffffffffffffffffffffffffffffffffffffffffffffffffff1916149050919050565b60008073ffffffffffffffffffffffffffffffffffffffff166002600084815260200190815260200160002060009054906101000a900473ffffffffffffffffffffffffffffffffffffffff1673ffffffffffffffffffffffffffffffffffffffff1614159050919050565b6000610dd6611514565b905090565b816004600083815260200190815260200160002060006101000a81548173ffffffffffffffffffffffffffffffffffffffff021916908373ffffffffffffffffffffffffffffffffffffffff160217905550808273ffffffffffffffffffffffffffffffffffffffff16610e4e8361080c565b73ffffffffffffffffffffffffffffffffffffffff167f8c5be1e5ebec7d5bd14f71427d1e84f3dd0314c0f7b2291e5b200ac8c7c3b92560405160405180910390a45050565b6000610e9f82610d60565b610ede576040517f08c379a0000000000000000000000000000000000000000000000000000000008152600401610ed590612713565b60405180910390fd5b6000610ee98361080c565b90508073ffffffffffffffffffffffffffffffffffffffff168473ffffffffffffffffffffffffffffffffffffffff161480610f5857508373ffffffffffffffffffffffffffffffffffffffff16610f4084610508565b73ffffffffffffffffffffffffffffffffffffffff16145b80610f695750610f688185610c62565b5b91505092915050565b8273ffffffffffffffffffffffffffffffffffffffff16610f928261080c565b73ffffffffffffffffffffffffffffffffffffffff1614610fe8576040517f08c379a0000000000000000000000000000000000000000000000000000000008152600401610fdf906127a5565b60405180910390fd5b600073ffffffffffffffffffffffffffffffffffffffff168273ffffffffffffffffffffffffffffffffffffffff1603611057576040517f08c379a000000000000000000000000000000000000000000000000000000000815260040161104e90612837565b60405180910390fd5b61106283838361154b565b61106d600082610ddb565b6001600360008573ffffffffffffffffffffffffffffffffffffffff1673ffffffffffffffffffffffffffffffffffffffff16815260200190815260200160002060008282546110bd9190612886565b925050819055506001600360008473ffffffffffffffffffffffffffffffffffffffff1673ffffffffffffffffffffffffffffffffffffffff168152602001908152602001600020600082825461111491906128ba565b92505081905550816002600083815260200190815260200160002060006101000a81548173ffffffffffffffffffffffffffffffffffffffff021916908373ffffffffffffffffffffffffffffffffffffffff160217905550808273ffffffffffffffffffffffffffffffffffffffff168473ffffffffffffffffffffffffffffffffffffffff167fddf252ad1be2c89b69c2b068fc378daa952ba7f163c4a11628f55a4df523b3ef60405160405180910390a46111d3838383611550565b505050565b8173ffffffffffffffffffffffffffffffffffffffff168373ffffffffffffffffffffffffffffffffffffffff1603611246576040517f08c379a000000000000000000000000000000000000000000000000000000000815260040161123d9061295c565b60405180910390fd5b80600560008573ffffffffffffffffffffffffffffffffffffffff1673ffffffffffffffffffffffffffffffffffffffff16815260200190815260200160002060008473ffffffffffffffffffffffffffffffffffffffff1673ffffffffffffffffffffffffffffffffffffffff16815260200190815260200160002060006101000a81548160ff0219169083151502179055508173ffffffffffffffffffffffffffffffffffffffff168373ffffffffffffffffffffffffffffffffffffffff167f17307eab39ab6107e8899845ad3d59bd9653f200f220920489ca2b5937696c31836040516113379190611bea565b60405180910390a3505050565b61134f848484610f72565b61135b84848484611555565b61139a576040517f08c379a0000000000000000000000000000000000000000000000000000000008152600401611391906129ee565b60405180910390fd5b50505050565b606060405180602001604052806000815250905090565b60606113c282610d60565b611401576040517f08c379a00000000000000000000000000000000000000000000000000000000081526004016113f890612a80565b60405180910390fd5b600061140b6113a0565b9050600081511161142b5760405180602001604052806000815250611456565b80611435846116dc565b60405160200161144692919061267d565b6040516020818303038152906040525b915050919050565b6001816000016000828254019250508190555050565b600081600001549050919050565b61149c82826040518060200160405280600081525061183c565b5050565b6114a982610d60565b6114e8576040517f08c379a00000000000000000000000000000000000000000000000000000000081526004016114df90612b12565b60405180910390fd5b8060066000848152602001908152602001600020908051906020019061150f929190611a93565b505050565b60006014600036905010158015611530575061152f336107b2565b5b1561154457601436033560601c9050611548565b3390505b90565b505050565b505050565b60006115768473ffffffffffffffffffffffffffffffffffffffff16611897565b156116cf578373ffffffffffffffffffffffffffffffffffffffff1663150b7a0261159f610dcc565b8786866040518563ffffffff1660e01b81526004016115c19493929190612b87565b6020604051808303816000875af19250505080156115fd57506040513d601f19601f820116820180604052508101906115fa9190612be8565b60015b61167f573d806000811461162d576040519150601f19603f3d011682016040523d82523d6000602084013e611632565b606091505b506000815103611677576040517f08c379a000000000000000000000000000000000000000000000000000000000815260040161166e906129ee565b60405180910390fd5b805181602001fd5b63150b7a0260e01b7bffffffffffffffffffffffffffffffffffffffffffffffffffffffff1916817bffffffffffffffffffffffffffffffffffffffffffffffffffffffff1916149150506116d4565b600190505b949350505050565b606060008203611723576040518060400160405280600181526020017f30000000000000000000000000000000000000000000000000000000000000008152509050611837565b600082905060005b6000821461175557808061173e90612c15565b915050600a8261174e9190612c8c565b915061172b565b60008167ffffffffffffffff81111561177157611770611f0b565b5b6040519080825280601f01601f1916602001820160405280156117a35781602001600182028036833780820191505090505b5090505b60008514611830576001826117bc9190612886565b9150600a856117cb9190612cbd565b60306117d791906128ba565b60f81b8183815181106117ed576117ec612cee565b5b60200101907effffffffffffffffffffffffffffffffffffffffffffffffffffffffffffff1916908160001a905350600a856118299190612c8c565b94506117a7565b8093505050505b919050565b61184683836118ba565b6118536000848484611555565b611892576040517f08c379a0000000000000000000000000000000000000000000000000000000008152600401611889906129ee565b60405180910390fd5b505050565b6000808273ffffffffffffffffffffffffffffffffffffffff163b119050919050565b600073ffffffffffffffffffffffffffffffffffffffff168273ffffffffffffffffffffffffffffffffffffffff1603611929576040517f08c379a000000000000000000000000000000000000000000000000000000000815260040161192090612d69565b60405180910390fd5b61193281610d60565b15611972576040517f08c379a000000000000000000000000000000000000000000000000000000000815260040161196990612dd5565b60405180910390fd5b61197e6000838361154b565b6001600360008473ffffffffffffffffffffffffffffffffffffffff1673ffffffffffffffffffffffffffffffffffffffff16815260200190815260200160002060008282546119ce91906128ba565b92505081905550816002600083815260200190815260200160002060006101000a81548173ffffffffffffffffffffffffffffffffffffffff021916908373ffffffffffffffffffffffffffffffffffffffff160217905550808273ffffffffffffffffffffffffffffffffffffffff16600073ffffffffffffffffffffffffffffffffffffffff167fddf252ad1be2c89b69c2b068fc378daa952ba7f163c4a11628f55a4df523b3ef60405160405180910390a4611a8f60008383611550565b5050565b828054611a9f90612212565b90600052602060002090601f016020900481019282611ac15760008555611b08565b82601f10611ada57805160ff1916838001178555611b08565b82800160010185558215611b08579182015b82811115611b07578251825591602001919060010190611aec565b5b509050611b159190611b19565b5090565b5b80821115611b32576000816000905550600101611b1a565b5090565b6000604051905090565b600080fd5b600080fd5b60007fffffffff0000000000000000000000000000000000000000000000000000000082169050919050565b611b7f81611b4a565b8114611b8a57600080fd5b50565b600081359050611b9c81611b76565b92915050565b600060208284031215611bb857611bb7611b40565b5b6000611bc684828501611b8d565b91505092915050565b60008115159050919050565b611be481611bcf565b82525050565b6000602082019050611bff6000830184611bdb565b92915050565b600081519050919050565b600082825260208201905092915050565b60005b83811015611c3f578082015181840152602081019050611c24565b83811115611c4e576000848401525b50505050565b6000601f19601f8301169050919050565b6000611c7082611c05565b611c7a8185611c10565b9350611c8a818560208601611c21565b611c9381611c54565b840191505092915050565b60006020820190508181036000830152611cb88184611c65565b905092915050565b6000819050919050565b611cd381611cc0565b8114611cde57600080fd5b50565b600081359050611cf081611cca565b92915050565b600060208284031215611d0c57611d0b611b40565b5b6000611d1a84828501611ce1565b91505092915050565b600073ffffffffffffffffffffffffffffffffffffffff82169050919050565b6000611d4e82611d23565b9050919050565b611d5e81611d43565b82525050565b6000602082019050611d796000830184611d55565b92915050565b611d8881611d43565b8114611d9357600080fd5b50565b600081359050611da581611d7f565b92915050565b60008060408385031215611dc257611dc1611b40565b5b6000611dd085828601611d96565b9250506020611de185828601611ce1565b9150509250929050565b600080600060608486031215611e0457611e03611b40565b5b6000611e1286828701611d96565b9350506020611e2386828701611d96565b9250506040611e3486828701611ce1565b9150509250925092565b600060208284031215611e5457611e53611b40565b5b6000611e6284828501611d96565b91505092915050565b611e7481611cc0565b82525050565b6000602082019050611e8f6000830184611e6b565b92915050565b611e9e81611bcf565b8114611ea957600080fd5b50565b600081359050611ebb81611e95565b92915050565b60008060408385031215611ed857611ed7611b40565b5b6000611ee685828601611d96565b9250506020611ef785828601611eac565b9150509250929050565b600080fd5b600080fd5b7f4e487b7100000000000000000000000000000000000000000000000000000000600052604160045260246000fd5b611f4382611c54565b810181811067ffffffffffffffff82111715611f6257611f61611f0b565b5b80604052505050565b6000611f75611b36565b9050611f818282611f3a565b919050565b600067ffffffffffffffff821115611fa157611fa0611f0b565b5b611faa82611c54565b9050602081019050919050565b82818337600083830152505050565b6000611fd9611fd484611f86565b611f6b565b905082815260208101848484011115611ff557611ff4611f06565b5b612000848285611fb7565b509392505050565b600082601f83011261201d5761201c611f01565b5b813561202d848260208601611fc6565b91505092915050565b600080600080608085870312156120505761204f611b40565b5b600061205e87828801611d96565b945050602061206f87828801611d96565b935050604061208087828801611ce1565b925050606085013567ffffffffffffffff8111156120a1576120a0611b45565b5b6120ad87828801612008565b91505092959194509250565b600067ffffffffffffffff8211156120d4576120d3611f0b565b5b6120dd82611c54565b9050602081019050919050565b60006120fd6120f8846120b9565b611f6b565b90508281526020810184848401111561211957612118611f06565b5b612124848285611fb7565b509392505050565b600082601f83011261214157612140611f01565b5b81356121518482602086016120ea565b91505092915050565b6000602082840312156121705761216f611b40565b5b600082013567ffffffffffffffff81111561218e5761218d611b45565b5b61219a8482850161212c565b91505092915050565b600080604083850312156121ba576121b9611b40565b5b60006121c885828601611d96565b92505060206121d985828601611d96565b9150509250929050565b7f4e487b7100000000000000000000000000000000000000000000000000000000600052602260045260246000fd5b6000600282049050600182168061222a57607f821691505b60208210810361223d5761223c6121e3565b5b50919050565b7f4552433732313a20617070726f76656420717565727920666f72206e6f6e657860008201527f697374656e7420746f6b656e0000000000000000000000000000000000000000602082015250565b600061229f602c83611c10565b91506122aa82612243565b604082019050919050565b600060208201905081810360008301526122ce81612292565b9050919050565b7f4552433732313a20617070726f76616c20746f2063757272656e74206f776e6560008201527f7200000000000000000000000000000000000000000000000000000000000000602082015250565b6000612331602183611c10565b915061233c826122d5565b604082019050919050565b6000602082019050818103600083015261236081612324565b9050919050565b7f4552433732313a20617070726f76652063616c6c6572206973206e6f74206f7760008201527f6e6572206e6f7220617070726f76656420666f7220616c6c0000000000000000602082015250565b60006123c3603883611c10565b91506123ce82612367565b604082019050919050565b600060208201905081810360008301526123f2816123b6565b9050919050565b7f4552433732313a207472616e736665722063616c6c6572206973206e6f74206f60008201527f776e6572206e6f7220617070726f766564000000000000000000000000000000602082015250565b6000612455603183611c10565b9150612460826123f9565b604082019050919050565b6000602082019050818103600083015261248481612448565b9050919050565b7f4552433732313a206f776e657220717565727920666f72206e6f6e657869737460008201527f656e7420746f6b656e0000000000000000000000000000000000000000000000602082015250565b60006124e7602983611c10565b91506124f28261248b565b604082019050919050565b60006020820190508181036000830152612516816124da565b9050919050565b7f4552433732313a2062616c616e636520717565727920666f7220746865207a6560008201527f726f206164647265737300000000000000000000000000000000000000000000602082015250565b6000612579602a83611c10565b91506125848261251d565b604082019050919050565b600060208201905081810360008301526125a88161256c565b9050919050565b7f45524337323155524953746f726167653a2055524920717565727920666f722060008201527f6e6f6e6578697374656e7420746f6b656e000000000000000000000000000000602082015250565b600061260b603183611c10565b9150612616826125af565b604082019050919050565b6000602082019050818103600083015261263a816125fe565b9050919050565b600081905092915050565b600061265782611c05565b6126618185612641565b9350612671818560208601611c21565b80840191505092915050565b6000612689828561264c565b9150612695828461264c565b91508190509392505050565b7f4552433732313a206f70657261746f7220717565727920666f72206e6f6e657860008201527f697374656e7420746f6b656e0000000000000000000000000000000000000000602082015250565b60006126fd602c83611c10565b9150612708826126a1565b604082019050919050565b6000602082019050818103600083015261272c816126f0565b9050919050565b7f4552433732313a207472616e736665722066726f6d20696e636f72726563742060008201527f6f776e6572000000000000000000000000000000000000000000000000000000602082015250565b600061278f602583611c10565b915061279a82612733565b604082019050919050565b600060208201905081810360008301526127be81612782565b9050919050565b7f4552433732313a207472616e7366657220746f20746865207a65726f2061646460008201527f7265737300000000000000000000000000000000000000000000000000000000602082015250565b6000612821602483611c10565b915061282c826127c5565b604082019050919050565b6000602082019050818103600083015261285081612814565b9050919050565b7f4e487b7100000000000000000000000000000000000000000000000000000000600052601160045260246000fd5b600061289182611cc0565b915061289c83611cc0565b9250828210156128af576128ae612857565b5b828203905092915050565b60006128c582611cc0565b91506128d083611cc0565b9250827fffffffffffffffffffffffffffffffffffffffffffffffffffffffffffffffff0382111561290557612904612857565b5b828201905092915050565b7f4552433732313a20617070726f766520746f2063616c6c657200000000000000600082015250565b6000612946601983611c10565b915061295182612910565b602082019050919050565b6000602082019050818103600083015261297581612939565b9050919050565b7f4552433732313a207472616e7366657220746f206e6f6e20455243373231526560008201527f63656976657220696d706c656d656e7465720000000000000000000000000000602082015250565b60006129d8603283611c10565b91506129e38261297c565b604082019050919050565b60006020820190508181036000830152612a07816129cb565b9050919050565b7f4552433732314d657461646174613a2055524920717565727920666f72206e6f60008201527f6e6578697374656e7420746f6b656e0000000000000000000000000000000000602082015250565b6000612a6a602f83611c10565b9150612a7582612a0e565b604082019050919050565b60006020820190508181036000830152612a9981612a5d565b9050919050565b7f45524337323155524953746f726167653a2055524920736574206f66206e6f6e60008201527f6578697374656e7420746f6b656e000000000000000000000000000000000000602082015250565b6000612afc602e83611c10565b9150612b0782612aa0565b604082019050919050565b60006020820190508181036000830152612b2b81612aef565b9050919050565b600081519050919050565b600082825260208201905092915050565b6000612b5982612b32565b612b638185612b3d565b9350612b73818560208601611c21565b612b7c81611c54565b840191505092915050565b6000608082019050612b9c6000830187611d55565b612ba96020830186611d55565b612bb66040830185611e6b565b8181036060830152612bc88184612b4e565b905095945050505050565b600081519050612be281611b76565b92915050565b600060208284031215612bfe57612bfd611b40565b5b6000612c0c84828501612bd3565b91505092915050565b6000612c2082611cc0565b91507fffffffffffffffffffffffffffffffffffffffffffffffffffffffffffffffff8203612c5257612c51612857565b5b600182019050919050565b7f4e487b7100000000000000000000000000000000000000000000000000000000600052601260045260246000fd5b6000612c9782611cc0565b9150612ca283611cc0565b925082612cb257612cb1612c5d565b5b828204905092915050565b6000612cc882611cc0565b9150612cd383611cc0565b925082612ce357612ce2612c5d565b5b828206905092915050565b7f4e487b7100000000000000000000000000000000000000000000000000000000600052603260045260246000fd5b7f4552433732313a206d696e7420746f20746865207a65726f2061646472657373600082015250565b6000612d53602083611c10565b9150612d5e82612d1d565b602082019050919050565b60006020820190508181036000830152612d8281612d46565b9050919050565b7f4552433732313a20746f6b656e20616c7265616479206d696e74656400000000600082015250565b6000612dbf601c83611c10565b9150612dca82612d89565b602082019050919050565b60006020820190508181036000830152612dee81612db2565b905091905056fea2646970667358221220c6f93874f384e22fe1240e3493910e3bee6316b7687eeeb5848a0178baf7101464736f6c634300080d0033",
  "linkReferences": {},
  "deployedLinkReferences": {}
}