{
  "_format": "hh-sol-artifact-1",
  "contractName": "NFT",
  "sourceName": "contracts/NFT.sol",
  "abi": [
    {
      "inputs": [
        {
          "internalType": "address",
          "name": "_marketplace",
          "type": "address"
        }
      ],
      "stateMutability": "nonpayable",
      "type": "constructor"
    },
    {
      "anonymous": false,
      "inputs": [
        {
          "indexed": true,
          "internalType": "address",
          "name": "owner",
          "type": "address"
        },
        {
          "indexed": true,
          "internalType": "address",
          "name": "approved",
          "type": "address"
        },
        {
          "indexed": true,
          "internalType": "uint256",
          "name": "tokenId",
          "type": "uint256"
        }
      ],
      "name": "Approval",
      "type": "event"
    },
    {
      "anonymous": false,
      "inputs": [
        {
          "indexed": true,
          "internalType": "address",
          "name": "owner",
          "type": "address"
        },
        {
          "indexed": true,
          "internalType": "address",
          "name": "operator",
          "type": "address"
        },
        {
          "indexed": false,
          "internalType": "bool",
          "name": "approved",
          "type": "bool"
        }
      ],
      "name": "ApprovalForAll",
      "type": "event"
    },
    {
      "anonymous": false,
      "inputs": [
        {
          "indexed": true,
          "internalType": "address",
          "name": "from",
          "type": "address"
        },
        {
          "indexed": true,
          "internalType": "address",
          "name": "to",
          "type": "address"
        },
        {
          "indexed": true,
          "internalType": "uint256",
          "name": "tokenId",
          "type": "uint256"
        }
      ],
      "name": "Transfer",
      "type": "event"
    },
    {
      "inputs": [
        {
          "internalType": "address",
          "name": "to",
          "type": "address"
        },
        {
          "internalType": "uint256",
          "name": "tokenId",
          "type": "uint256"
        }
      ],
      "name": "approve",
      "outputs": [],
      "stateMutability": "nonpayable",
      "type": "function"
    },
    {
      "inputs": [
        {
          "internalType": "address",
          "name": "owner",
          "type": "address"
        }
      ],
      "name": "balanceOf",
      "outputs": [
        {
          "internalType": "uint256",
          "name": "",
          "type": "uint256"
        }
      ],
      "stateMutability": "view",
      "type": "function"
    },
    {
      "inputs": [
        {
          "internalType": "uint256",
          "name": "tokenId",
          "type": "uint256"
        }
      ],
      "name": "burn",
      "outputs": [],
      "stateMutability": "nonpayable",
      "type": "function"
    },
    {
      "inputs": [
        {
          "internalType": "string",
          "name": "tokenURI",
          "type": "string"
        }
      ],
      "name": "createNFT",
      "outputs": [
        {
          "internalType": "uint256",
          "name": "",
          "type": "uint256"
        }
      ],
      "stateMutability": "nonpayable",
      "type": "function"
    },
    {
      "inputs": [
        {
          "internalType": "uint256",
          "name": "tokenId",
          "type": "uint256"
        }
      ],
      "name": "getApproved",
      "outputs": [
        {
          "internalType": "address",
          "name": "",
          "type": "address"
        }
      ],
      "stateMutability": "view",
      "type": "function"
    },
    {
      "inputs": [
        {
          "internalType": "address",
          "name": "owner",
          "type": "address"
        },
        {
          "internalType": "address",
          "name": "operator",
          "type": "address"
        }
      ],
      "name": "isApprovedForAll",
      "outputs": [
        {
          "internalType": "bool",
          "name": "",
          "type": "bool"
        }
      ],
      "stateMutability": "view",
      "type": "function"
    },
    {
      "inputs": [],
      "name": "name",
      "outputs": [
        {
          "internalType": "string",
          "name": "",
          "type": "string"
        }
      ],
      "stateMutability": "view",
      "type": "function"
    },
    {
      "inputs": [
        {
          "internalType": "uint256",
          "name": "tokenId",
          "type": "uint256"
        }
      ],
      "name": "ownerOf",
      "outputs": [
        {
          "internalType": "address",
          "name": "",
          "type": "address"
        }
      ],
      "stateMutability": "view",
      "type": "function"
    },
    {
      "inputs": [
        {
          "internalType": "address",
          "name": "from",
          "type": "address"
        },
        {
          "internalType": "address",
          "name": "to",
          "type": "address"
        },
        {
          "internalType": "uint256",
          "name": "tokenId",
          "type": "uint256"
        }
      ],
      "name": "safeTransferFrom",
      "outputs": [],
      "stateMutability": "nonpayable",
      "type": "function"
    },
    {
      "inputs": [
        {
          "internalType": "address",
          "name": "from",
          "type": "address"
        },
        {
          "internalType": "address",
          "name": "to",
          "type": "address"
        },
        {
          "internalType": "uint256",
          "name": "tokenId",
          "type": "uint256"
        },
        {
          "internalType": "bytes",
          "name": "_data",
          "type": "bytes"
        }
      ],
      "name": "safeTransferFrom",
      "outputs": [],
      "stateMutability": "nonpayable",
      "type": "function"
    },
    {
      "inputs": [
        {
          "internalType": "address",
          "name": "operator",
          "type": "address"
        },
        {
          "internalType": "bool",
          "name": "approved",
          "type": "bool"
        }
      ],
      "name": "setApprovalForAll",
      "outputs": [],
      "stateMutability": "nonpayable",
      "type": "function"
    },
    {
      "inputs": [
        {
          "internalType": "bytes4",
          "name": "interfaceId",
          "type": "bytes4"
        }
      ],
      "name": "supportsInterface",
      "outputs": [
        {
          "internalType": "bool",
          "name": "",
          "type": "bool"
        }
      ],
      "stateMutability": "view",
      "type": "function"
    },
    {
      "inputs": [],
      "name": "symbol",
      "outputs": [
        {
          "internalType": "string",
          "name": "",
          "type": "string"
        }
      ],
      "stateMutability": "view",
      "type": "function"
    },
    {
      "inputs": [
        {
          "internalType": "uint256",
          "name": "tokenId",
          "type": "uint256"
        }
      ],
      "name": "tokenURI",
      "outputs": [
        {
          "internalType": "string",
          "name": "",
          "type": "string"
        }
      ],
      "stateMutability": "view",
      "type": "function"
    },
    {
      "inputs": [
        {
          "internalType": "address",
          "name": "from",
          "type": "address"
        },
        {
          "internalType": "address",
          "name": "to",
          "type": "address"
        },
        {
          "internalType": "uint256",
          "name": "tokenId",
          "type": "uint256"
        }
      ],
      "name": "transferFrom",
      "outputs": [],
      "stateMutability": "nonpayable",
      "type": "function"
    }
  ],
  "bytecode": "0x60806040523480156200001157600080fd5b5060405162001aca38038062001aca833981016040819052620000349162000166565b6040805180820182526009815268020b8329023b0b733960bd1b60208083019182528351808501909452600384526241504760e81b9084015281519192916200008091600091620000c0565b50805162000096906001906020840190620000c0565b5050600880546001600160a01b0319166001600160a01b03939093169290921790915550620001d5565b828054620000ce9062000198565b90600052602060002090601f016020900481019282620000f257600085556200013d565b82601f106200010d57805160ff19168380011785556200013d565b828001600101855582156200013d579182015b828111156200013d57825182559160200191906001019062000120565b506200014b9291506200014f565b5090565b5b808211156200014b576000815560010162000150565b6000602082840312156200017957600080fd5b81516001600160a01b03811681146200019157600080fd5b9392505050565b600181811c90821680620001ad57607f821691505b60208210811415620001cf57634e487b7160e01b600052602260045260246000fd5b50919050565b6118e580620001e56000396000f3fe608060405234801561001057600080fd5b50600436106100f55760003560e01c80636352211e11610097578063b88d4fde11610066578063b88d4fde146101ff578063c87b56dd14610212578063da2ed03e14610225578063e985e9c51461023857600080fd5b80636352211e146101b057806370a08231146101c357806395d89b41146101e4578063a22cb465146101ec57600080fd5b8063095ea7b3116100d3578063095ea7b31461016257806323b872dd1461017757806342842e0e1461018a57806342966c681461019d57600080fd5b806301ffc9a7146100fa57806306fdde0314610122578063081812fc14610137575b600080fd5b61010d61010836600461157e565b610274565b60405190151581526020015b60405180910390f35b61012a6102c6565b60405161011991906116b2565b61014a610145366004611601565b610358565b6040516001600160a01b039091168152602001610119565b610175610170366004611554565b6103e5565b005b610175610185366004611460565b6104fb565b610175610198366004611460565b61052d565b6101756101ab366004611601565b610548565b61014a6101be366004611601565b6105c2565b6101d66101d1366004611412565b610639565b604051908152602001610119565b61012a6106c0565b6101756101fa366004611518565b6106cf565b61017561020d36600461149c565b6106de565b61012a610220366004611601565b610716565b6101d66102333660046115b8565b61088d565b61010d61024636600461142d565b6001600160a01b03918216600090815260056020908152604080832093909416825291909152205460ff1690565b60006001600160e01b031982166380ac58cd60e01b14806102a557506001600160e01b03198216635b5e139f60e01b145b806102c057506301ffc9a760e01b6001600160e01b03198316145b92915050565b6060600080546102d5906117d7565b80601f0160208091040260200160405190810160405280929190818152602001828054610301906117d7565b801561034e5780601f106103235761010080835404028352916020019161034e565b820191906000526020600020905b81548152906001019060200180831161033157829003601f168201915b5050505050905090565b6000610363826108d5565b6103c95760405162461bcd60e51b815260206004820152602c60248201527f4552433732313a20617070726f76656420717565727920666f72206e6f6e657860448201526b34b9ba32b73a103a37b5b2b760a11b60648201526084015b60405180910390fd5b506000908152600460205260409020546001600160a01b031690565b60006103f0826105c2565b9050806001600160a01b0316836001600160a01b0316141561045e5760405162461bcd60e51b815260206004820152602160248201527f4552433732313a20617070726f76616c20746f2063757272656e74206f776e656044820152603960f91b60648201526084016103c0565b336001600160a01b038216148061047a575061047a8133610246565b6104ec5760405162461bcd60e51b815260206004820152603860248201527f4552433732313a20617070726f76652063616c6c6572206973206e6f74206f7760448201527f6e6572206e6f7220617070726f76656420666f7220616c6c000000000000000060648201526084016103c0565b6104f683836108f2565b505050565b610506335b82610960565b6105225760405162461bcd60e51b81526004016103c090611717565b6104f6838383610a46565b6104f6838383604051806020016040528060008152506106de565b61055133610500565b6105b65760405162461bcd60e51b815260206004820152603060248201527f4552433732314275726e61626c653a2063616c6c6572206973206e6f74206f7760448201526f1b995c881b9bdc88185c1c1c9bdd995960821b60648201526084016103c0565b6105bf81610be2565b50565b6000818152600260205260408120546001600160a01b0316806102c05760405162461bcd60e51b815260206004820152602960248201527f4552433732313a206f776e657220717565727920666f72206e6f6e657869737460448201526832b73a103a37b5b2b760b91b60648201526084016103c0565b60006001600160a01b0382166106a45760405162461bcd60e51b815260206004820152602a60248201527f4552433732313a2062616c616e636520717565727920666f7220746865207a65604482015269726f206164647265737360b01b60648201526084016103c0565b506001600160a01b031660009081526003602052604090205490565b6060600180546102d5906117d7565b6106da338383610c22565b5050565b6106e83383610960565b6107045760405162461bcd60e51b81526004016103c090611717565b61071084848484610cf1565b50505050565b6060610721826108d5565b6107875760405162461bcd60e51b815260206004820152603160248201527f45524337323155524953746f726167653a2055524920717565727920666f72206044820152703737b732bc34b9ba32b73a103a37b5b2b760791b60648201526084016103c0565b600082815260066020526040812080546107a0906117d7565b80601f01602080910402602001604051908101604052809291908181526020018280546107cc906117d7565b80156108195780601f106107ee57610100808354040283529160200191610819565b820191906000526020600020905b8154815290600101906020018083116107fc57829003601f168201915b50505050509050600061083760408051602081019091526000815290565b905080516000141561084a575092915050565b81511561087c578082604051602001610864929190611646565b60405160208183030381529060405292505050919050565b61088584610d24565b949350505050565b600061089d600780546001019055565b60006108a860075490565b90506108b43382610dfc565b6108be8184610e16565b6008546102c0906001600160a01b031660016106cf565b6000908152600260205260409020546001600160a01b0316151590565b600081815260046020526040902080546001600160a01b0319166001600160a01b0384169081179091558190610927826105c2565b6001600160a01b03167f8c5be1e5ebec7d5bd14f71427d1e84f3dd0314c0f7b2291e5b200ac8c7c3b92560405160405180910390a45050565b600061096b826108d5565b6109cc5760405162461bcd60e51b815260206004820152602c60248201527f4552433732313a206f70657261746f7220717565727920666f72206e6f6e657860448201526b34b9ba32b73a103a37b5b2b760a11b60648201526084016103c0565b60006109d7836105c2565b9050806001600160a01b0316846001600160a01b03161480610a125750836001600160a01b0316610a0784610358565b6001600160a01b0316145b8061088557506001600160a01b0380821660009081526005602090815260408083209388168352929052205460ff16610885565b826001600160a01b0316610a59826105c2565b6001600160a01b031614610abd5760405162461bcd60e51b815260206004820152602560248201527f4552433732313a207472616e736665722066726f6d20696e636f72726563742060448201526437bbb732b960d91b60648201526084016103c0565b6001600160a01b038216610b1f5760405162461bcd60e51b8152602060048201526024808201527f4552433732313a207472616e7366657220746f20746865207a65726f206164646044820152637265737360e01b60648201526084016103c0565b610b2a6000826108f2565b6001600160a01b0383166000908152600360205260408120805460019290610b53908490611794565b90915550506001600160a01b0382166000908152600360205260408120805460019290610b81908490611768565b909155505060008181526002602052604080822080546001600160a01b0319166001600160a01b0386811691821790925591518493918716917fddf252ad1be2c89b69c2b068fc378daa952ba7f163c4a11628f55a4df523b3ef91a4505050565b610beb81610ea1565b60008181526006602052604090208054610c04906117d7565b1590506105bf5760008181526006602052604081206105bf916112ad565b816001600160a01b0316836001600160a01b03161415610c845760405162461bcd60e51b815260206004820152601960248201527f4552433732313a20617070726f766520746f2063616c6c65720000000000000060448201526064016103c0565b6001600160a01b03838116600081815260056020908152604080832094871680845294825291829020805460ff191686151590811790915591519182527f17307eab39ab6107e8899845ad3d59bd9653f200f220920489ca2b5937696c31910160405180910390a3505050565b610cfc848484610a46565b610d0884848484610f3c565b6107105760405162461bcd60e51b81526004016103c0906116c5565b6060610d2f826108d5565b610d935760405162461bcd60e51b815260206004820152602f60248201527f4552433732314d657461646174613a2055524920717565727920666f72206e6f60448201526e3732bc34b9ba32b73a103a37b5b2b760891b60648201526084016103c0565b6000610daa60408051602081019091526000815290565b90506000815111610dca5760405180602001604052806000815250610df5565b80610dd484611049565b604051602001610de5929190611646565b6040516020818303038152906040525b9392505050565b6106da828260405180602001604052806000815250611147565b610e1f826108d5565b610e825760405162461bcd60e51b815260206004820152602e60248201527f45524337323155524953746f726167653a2055524920736574206f66206e6f6e60448201526d32bc34b9ba32b73a103a37b5b2b760911b60648201526084016103c0565b600082815260066020908152604090912082516104f6928401906112e7565b6000610eac826105c2565b9050610eb96000836108f2565b6001600160a01b0381166000908152600360205260408120805460019290610ee2908490611794565b909155505060008281526002602052604080822080546001600160a01b0319169055518391906001600160a01b038416907fddf252ad1be2c89b69c2b068fc378daa952ba7f163c4a11628f55a4df523b3ef908390a45050565b60006001600160a01b0384163b1561103e57604051630a85bd0160e11b81526001600160a01b0385169063150b7a0290610f80903390899088908890600401611675565b602060405180830381600087803b158015610f9a57600080fd5b505af1925050508015610fca575060408051601f3d908101601f19168201909252610fc79181019061159b565b60015b611024573d808015610ff8576040519150601f19603f3d011682016040523d82523d6000602084013e610ffd565b606091505b50805161101c5760405162461bcd60e51b81526004016103c0906116c5565b805181602001fd5b6001600160e01b031916630a85bd0160e11b149050610885565b506001949350505050565b60608161106d5750506040805180820190915260018152600360fc1b602082015290565b8160005b8115611097578061108181611812565b91506110909050600a83611780565b9150611071565b60008167ffffffffffffffff8111156110b2576110b2611883565b6040519080825280601f01601f1916602001820160405280156110dc576020820181803683370190505b5090505b8415610885576110f1600183611794565b91506110fe600a8661182d565b611109906030611768565b60f81b81838151811061111e5761111e61186d565b60200101906001600160f81b031916908160001a905350611140600a86611780565b94506110e0565b611151838361117a565b61115e6000848484610f3c565b6104f65760405162461bcd60e51b81526004016103c0906116c5565b6001600160a01b0382166111d05760405162461bcd60e51b815260206004820181905260248201527f4552433732313a206d696e7420746f20746865207a65726f206164647265737360448201526064016103c0565b6111d9816108d5565b156112265760405162461bcd60e51b815260206004820152601c60248201527f4552433732313a20746f6b656e20616c7265616479206d696e7465640000000060448201526064016103c0565b6001600160a01b038216600090815260036020526040812080546001929061124f908490611768565b909155505060008181526002602052604080822080546001600160a01b0319166001600160a01b03861690811790915590518392907fddf252ad1be2c89b69c2b068fc378daa952ba7f163c4a11628f55a4df523b3ef908290a45050565b5080546112b9906117d7565b6000825580601f106112c9575050565b601f0160209004906000526020600020908101906105bf919061136b565b8280546112f3906117d7565b90600052602060002090601f016020900481019282611315576000855561135b565b82601f1061132e57805160ff191683800117855561135b565b8280016001018555821561135b579182015b8281111561135b578251825591602001919060010190611340565b5061136792915061136b565b5090565b5b80821115611367576000815560010161136c565b600067ffffffffffffffff8084111561139b5761139b611883565b604051601f8501601f19908116603f011681019082821181831017156113c3576113c3611883565b816040528093508581528686860111156113dc57600080fd5b858560208301376000602087830101525050509392505050565b80356001600160a01b038116811461140d57600080fd5b919050565b60006020828403121561142457600080fd5b610df5826113f6565b6000806040838503121561144057600080fd5b611449836113f6565b9150611457602084016113f6565b90509250929050565b60008060006060848603121561147557600080fd5b61147e846113f6565b925061148c602085016113f6565b9150604084013590509250925092565b600080600080608085870312156114b257600080fd5b6114bb856113f6565b93506114c9602086016113f6565b925060408501359150606085013567ffffffffffffffff8111156114ec57600080fd5b8501601f810187136114fd57600080fd5b61150c87823560208401611380565b91505092959194509250565b6000806040838503121561152b57600080fd5b611534836113f6565b91506020830135801515811461154957600080fd5b809150509250929050565b6000806040838503121561156757600080fd5b611570836113f6565b946020939093013593505050565b60006020828403121561159057600080fd5b8135610df581611899565b6000602082840312156115ad57600080fd5b8151610df581611899565b6000602082840312156115ca57600080fd5b813567ffffffffffffffff8111156115e157600080fd5b8201601f810184136115f257600080fd5b61088584823560208401611380565b60006020828403121561161357600080fd5b5035919050565b600081518084526116328160208601602086016117ab565b601f01601f19169290920160200192915050565b600083516116588184602088016117ab565b83519083019061166c8183602088016117ab565b01949350505050565b6001600160a01b03858116825284166020820152604081018390526080606082018190526000906116a89083018461161a565b9695505050505050565b602081526000610df5602083018461161a565b60208082526032908201527f4552433732313a207472616e7366657220746f206e6f6e20455243373231526560408201527131b2b4bb32b91034b6b83632b6b2b73a32b960711b606082015260800190565b60208082526031908201527f4552433732313a207472616e736665722063616c6c6572206973206e6f74206f6040820152701ddb995c881b9bdc88185c1c1c9bdd9959607a1b606082015260800190565b6000821982111561177b5761177b611841565b500190565b60008261178f5761178f611857565b500490565b6000828210156117a6576117a6611841565b500390565b60005b838110156117c65781810151838201526020016117ae565b838111156107105750506000910152565b600181811c908216806117eb57607f821691505b6020821081141561180c57634e487b7160e01b600052602260045260246000fd5b50919050565b600060001982141561182657611826611841565b5060010190565b60008261183c5761183c611857565b500690565b634e487b7160e01b600052601160045260246000fd5b634e487b7160e01b600052601260045260246000fd5b634e487b7160e01b600052603260045260246000fd5b634e487b7160e01b600052604160045260246000fd5b6001600160e01b0319811681146105bf57600080fdfea264697066735822122021c6a0e8e5a95e1ab92d5306ae5996dbbb900ade7f9a358e59a7ce2956231ad964736f6c63430008070033",
  "linkReferences": {},
  "deployedLinkReferences": {}
}