{
  "_format": "hh-sol-artifact-1",
  "contractName": "NftMarketPlace",
  "sourceName": "contracts/NftMarketPlace.sol",
  "abi": [
    {
      "inputs": [],
      "stateMutability": "nonpayable",
      "type": "constructor"
    },
    {
      "anonymous": false,
      "inputs": [
        {
          "indexed": true,
          "internalType": "address",
          "name": "nftContractAddress",
          "type": "address"
        },
        {
          "indexed": false,
          "internalType": "uint256",
          "name": "tokenId",
          "type": "uint256"
        },
        {
          "indexed": false,
          "internalType": "uint256",
          "name": "price",
          "type": "uint256"
        },
        {
          "indexed": false,
          "internalType": "bool",
          "name": "onSale",
          "type": "bool"
        },
        {
          "indexed": false,
          "internalType": "address",
          "name": "owner",
          "type": "address"
        },
        {
          "indexed": true,
          "internalType": "address",
          "name": "seller",
          "type": "address"
        },
        {
          "indexed": false,
          "internalType": "address",
          "name": "minter",
          "type": "address"
        }
      ],
      "name": "marketItemBought",
      "type": "event"
    },
    {
      "anonymous": false,
      "inputs": [
        {
          "indexed": true,
          "internalType": "address",
          "name": "nftContractAddress",
          "type": "address"
        },
        {
          "indexed": true,
          "internalType": "uint256",
          "name": "tokenId",
          "type": "uint256"
        },
        {
          "indexed": false,
          "internalType": "uint256",
          "name": "price",
          "type": "uint256"
        },
        {
          "indexed": false,
          "internalType": "bool",
          "name": "onSale",
          "type": "bool"
        },
        {
          "indexed": true,
          "internalType": "address",
          "name": "owner",
          "type": "address"
        },
        {
          "indexed": false,
          "internalType": "address",
          "name": "seller",
          "type": "address"
        },
        {
          "indexed": false,
          "internalType": "address",
          "name": "minter",
          "type": "address"
        }
      ],
      "name": "marketItemCreated",
      "type": "event"
    },
    {
      "anonymous": false,
      "inputs": [
        {
          "indexed": true,
          "internalType": "address",
          "name": "nftContractAddress",
          "type": "address"
        },
        {
          "indexed": false,
          "internalType": "uint256",
          "name": "tokenId",
          "type": "uint256"
        },
        {
          "indexed": false,
          "internalType": "uint256",
          "name": "price",
          "type": "uint256"
        },
        {
          "indexed": false,
          "internalType": "bool",
          "name": "onSale",
          "type": "bool"
        },
        {
          "indexed": false,
          "internalType": "address",
          "name": "owner",
          "type": "address"
        },
        {
          "indexed": true,
          "internalType": "address",
          "name": "seller",
          "type": "address"
        },
        {
          "indexed": false,
          "internalType": "address",
          "name": "minter",
          "type": "address"
        }
      ],
      "name": "marketItemOnSale",
      "type": "event"
    },
    {
      "inputs": [
        {
          "internalType": "uint256",
          "name": "_tokenId",
          "type": "uint256"
        },
        {
          "internalType": "address",
          "name": "_nftContractAddress",
          "type": "address"
        }
      ],
      "name": "buyMarketToken",
      "outputs": [],
      "stateMutability": "payable",
      "type": "function"
    },
    {
      "inputs": [],
      "name": "fetchAllMyTokens",
      "outputs": [
        {
          "components": [
            {
              "internalType": "address",
              "name": "nftContractAddress",
              "type": "address"
            },
            {
              "internalType": "uint256",
              "name": "tokenId",
              "type": "uint256"
            },
            {
              "internalType": "uint256",
              "name": "price",
              "type": "uint256"
            },
            {
              "internalType": "bool",
              "name": "onSale",
              "type": "bool"
            },
            {
              "internalType": "address payable",
              "name": "owner",
              "type": "address"
            },
            {
              "internalType": "address payable",
              "name": "seller",
              "type": "address"
            },
            {
              "internalType": "address",
              "name": "minter",
              "type": "address"
            }
          ],
          "internalType": "struct NftMarketPlace.MarketToken[]",
          "name": "",
          "type": "tuple[]"
        }
      ],
      "stateMutability": "view",
      "type": "function"
    },
    {
      "inputs": [],
      "name": "fetchAllTokens",
      "outputs": [
        {
          "components": [
            {
              "internalType": "address",
              "name": "nftContractAddress",
              "type": "address"
            },
            {
              "internalType": "uint256",
              "name": "tokenId",
              "type": "uint256"
            },
            {
              "internalType": "uint256",
              "name": "price",
              "type": "uint256"
            },
            {
              "internalType": "bool",
              "name": "onSale",
              "type": "bool"
            },
            {
              "internalType": "address payable",
              "name": "owner",
              "type": "address"
            },
            {
              "internalType": "address payable",
              "name": "seller",
              "type": "address"
            },
            {
              "internalType": "address",
              "name": "minter",
              "type": "address"
            }
          ],
          "internalType": "struct NftMarketPlace.MarketToken[]",
          "name": "",
          "type": "tuple[]"
        }
      ],
      "stateMutability": "view",
      "type": "function"
    },
    {
      "inputs": [],
      "name": "fetchAllTokensOnSale",
      "outputs": [
        {
          "components": [
            {
              "internalType": "address",
              "name": "nftContractAddress",
              "type": "address"
            },
            {
              "internalType": "uint256",
              "name": "tokenId",
              "type": "uint256"
            },
            {
              "internalType": "uint256",
              "name": "price",
              "type": "uint256"
            },
            {
              "internalType": "bool",
              "name": "onSale",
              "type": "bool"
            },
            {
              "internalType": "address payable",
              "name": "owner",
              "type": "address"
            },
            {
              "internalType": "address payable",
              "name": "seller",
              "type": "address"
            },
            {
              "internalType": "address",
              "name": "minter",
              "type": "address"
            }
          ],
          "internalType": "struct NftMarketPlace.MarketToken[]",
          "name": "",
          "type": "tuple[]"
        }
      ],
      "stateMutability": "view",
      "type": "function"
    },
    {
      "inputs": [],
      "name": "fetchTokensMintedByCaller",
      "outputs": [
        {
          "components": [
            {
              "internalType": "address",
              "name": "nftContractAddress",
              "type": "address"
            },
            {
              "internalType": "uint256",
              "name": "tokenId",
              "type": "uint256"
            },
            {
              "internalType": "uint256",
              "name": "price",
              "type": "uint256"
            },
            {
              "internalType": "bool",
              "name": "onSale",
              "type": "bool"
            },
            {
              "internalType": "address payable",
              "name": "owner",
              "type": "address"
            },
            {
              "internalType": "address payable",
              "name": "seller",
              "type": "address"
            },
            {
              "internalType": "address",
              "name": "minter",
              "type": "address"
            }
          ],
          "internalType": "struct NftMarketPlace.MarketToken[]",
          "name": "",
          "type": "tuple[]"
        }
      ],
      "stateMutability": "view",
      "type": "function"
    },
    {
      "inputs": [],
      "name": "getListingPrice",
      "outputs": [
        {
          "internalType": "uint256",
          "name": "",
          "type": "uint256"
        }
      ],
      "stateMutability": "view",
      "type": "function"
    },
    {
      "inputs": [
        {
          "internalType": "uint256",
          "name": "",
          "type": "uint256"
        }
      ],
      "name": "idToMarketToken",
      "outputs": [
        {
          "internalType": "address",
          "name": "nftContractAddress",
          "type": "address"
        },
        {
          "internalType": "uint256",
          "name": "tokenId",
          "type": "uint256"
        },
        {
          "internalType": "uint256",
          "name": "price",
          "type": "uint256"
        },
        {
          "internalType": "bool",
          "name": "onSale",
          "type": "bool"
        },
        {
          "internalType": "address payable",
          "name": "owner",
          "type": "address"
        },
        {
          "internalType": "address payable",
          "name": "seller",
          "type": "address"
        },
        {
          "internalType": "address",
          "name": "minter",
          "type": "address"
        }
      ],
      "stateMutability": "view",
      "type": "function"
    },
    {
      "inputs": [],
      "name": "listingPrice",
      "outputs": [
        {
          "internalType": "uint256",
          "name": "",
          "type": "uint256"
        }
      ],
      "stateMutability": "view",
      "type": "function"
    },
    {
      "inputs": [
        {
          "internalType": "address",
          "name": "_nftContractAddress",
          "type": "address"
        }
      ],
      "name": "mintMarketToken",
      "outputs": [],
      "stateMutability": "payable",
      "type": "function"
    },
    {
      "inputs": [],
      "name": "owner",
      "outputs": [
        {
          "internalType": "address",
          "name": "",
          "type": "address"
        }
      ],
      "stateMutability": "view",
      "type": "function"
    },
    {
      "inputs": [
        {
          "internalType": "uint256",
          "name": "_tokenId",
          "type": "uint256"
        },
        {
          "internalType": "uint256",
          "name": "sellPrice",
          "type": "uint256"
        },
        {
          "internalType": "address",
          "name": "_nftContractAddress",
          "type": "address"
        }
      ],
      "name": "saleMarketToken",
      "outputs": [],
      "stateMutability": "nonpayable",
      "type": "function"
    },
    {
      "inputs": [],
      "name": "withdrawContractProfits",
      "outputs": [],
      "stateMutability": "nonpayable",
      "type": "function"
    }
  ],
  "bytecode": "0x60a060405234801561001057600080fd5b5060016000553360601b60805260805160601c611217610042600039600081816101e20152610bcc01526112176000f3fe6080604052600436106100a75760003560e01c806390effc831161006457806390effc831461021c5780639e65442c14610231578063b6248dc414610246578063b8c3617c1461025b578063c78f19f914610270578063f9d138c31461028b57600080fd5b806312e85585146100ac5780631b9e19c6146100d55780632528b676146100ea57806338433c051461010c5780637929d1b51461011f5780638da5cb5b146101d0575b600080fd5b3480156100b857600080fd5b5066071afd498d00005b6040519081526020015b60405180910390f35b6100e86100e336600461103c565b6102ab565b005b3480156100f657600080fd5b506100ff610467565b6040516100cc91906110d8565b6100e861011a366004611077565b610594565b34801561012b57600080fd5b5061018b61013a36600461105e565b60036020819052600091825260409091208054600182015460028301549383015460048401546005909401546001600160a01b03938416959294929360ff8316936101009093048116928116911687565b604080516001600160a01b0398891681526020810197909752860194909452911515606085015284166080840152831660a083015290911660c082015260e0016100cc565b3480156101dc57600080fd5b506102047f000000000000000000000000000000000000000000000000000000000000000081565b6040516001600160a01b0390911681526020016100cc565b34801561022857600080fd5b506100ff610883565b34801561023d57600080fd5b506100ff610a1f565b34801561025257600080fd5b506100e8610bc1565b34801561026757600080fd5b506100ff610c78565b34801561027c57600080fd5b506100c266071afd498d000081565b34801561029757600080fd5b506100e86102a63660046110a3565b610e0e565b66071afd498d000034146103065760405162461bcd60e51b815260206004820181905260248201527f596f75206e65656420746f2070617920746865206c697374696e67507269636560448201526064015b60405180910390fd5b610314600180546001019055565b600061031f60015490565b6040805160e0810182526001600160a01b0380861682526020808301858152600084860181815260608601828152336080880181815260a0890185815260c08a019283528b8652600397889052998520985189549089166001600160a01b0319918216178a55955160018a015592516002890155905194870180549251871661010002610100600160a81b0319961515969096166001600160a81b031990931692909217949094179055945160048086018054928616928416929092179091559151600590940180549490931693169290921790558054929350349290919061040990849061116c565b909155505060408051600080825260208201819052818301523360608201819052915183916001600160a01b038616917f9dcc3573116b077cd633ea2be8f76d15617a8ab58fb28ba75f89e5d778db07ca9181900360800190a45050565b6060600061047460015490565b905060008167ffffffffffffffff811115610491576104916111cb565b6040519080825280602002602001820160405280156104ca57816020015b6104b7610fe4565b8152602001906001900390816104af5790505b509050600060015b83811161058b57600081815260036020818152604092839020835160e08101855281546001600160a01b0390811682526001830154938201939093526002820154948101949094529182015460ff8116151560608501526101009004811660808401526004820154811660a08401526005909101541660c08201528351849084908110610561576105616111b5565b602090810291909101015261057760018361116c565b91508061058381611184565b9150506104d2565b50909392505050565b600260005414156105e75760405162461bcd60e51b815260206004820152601f60248201527f5265656e7472616e637947756172643a207265656e7472616e742063616c6c0060448201526064016102fd565b6002600055816106325760405162461bcd60e51b81526020600482015260166024820152750546f6b656e4964206d757374206265206f76657220360541b60448201526064016102fd565b60008281526003602052604090206002015434146106a35760405162461bcd60e51b815260206004820152602860248201527f4d6573736167652076616c7565206d75737420626520657175616c20746f2073604482015267656c6c507269636560c01b60648201526084016102fd565b6000828152600360208190526040909120015460ff16151560011461070a5760405162461bcd60e51b815260206004820152601760248201527f4e4654206d75737420626520757020666f722073616c6500000000000000000060448201526064016102fd565b6000828152600360208190526040909120015461010090046001600160a01b03163314156107a05760405162461bcd60e51b815260206004820152603d60248201527f596f752063616e6e6f7420627579206f6620796f757273656c66202861746c6560448201527f617374206e6f742077697468207468652073616d65206164647265737300000060648201526084016102fd565b6040516323b872dd60e01b8152306004820152336024820152604481018390526001600160a01b038216906323b872dd90606401600060405180830381600087803b1580156107ee57600080fd5b505af1158015610802573d6000803e3d6000fd5b5050506000838152600360205260408082206004015490516001600160a01b0390911692503480156108fc0292909190818181858888f1935050505015801561084f573d6000803e3d6000fd5b505060009081526003602081905260408220600281018390550180546001600160a81b031916610100330217905560019055565b6060600061089060015490565b9050600060015b8281116108de576000818152600360208190526040909120015460ff161515600114156108cc576108c960018361116c565b91505b806108d681611184565b915050610897565b5060008167ffffffffffffffff8111156108fa576108fa6111cb565b60405190808252806020026020018201604052801561093357816020015b610920610fe4565b8152602001906001900390816109185790505b509050600060015b848111610a15576000818152600360208190526040909120015460ff16151560011415610a0357600081815260036020818152604092839020835160e08101855281546001600160a01b0390811682526001830154938201939093526002820154948101949094529182015460ff8116151560608501526101009004811660808401526004820154811660a08401526005909101541660c082015283518490849081106109ea576109ea6111b5565b6020908102919091010152610a0060018361116c565b91505b80610a0d81611184565b91505061093b565b5090949350505050565b60606000610a2c60015490565b9050600060015b828111610a82576000818152600360208190526040909120015461010090046001600160a01b0316331415610a7057610a6d60018361116c565b91505b80610a7a81611184565b915050610a33565b5060008167ffffffffffffffff811115610a9e57610a9e6111cb565b604051908082528060200260200182016040528015610ad757816020015b610ac4610fe4565b815260200190600190039081610abc5790505b509050600060015b848111610a15576000818152600360208190526040909120015461010090046001600160a01b0316331415610baf57600081815260036020818152604092839020835160e08101855281546001600160a01b0390811682526001830154938201939093526002820154948101949094529182015460ff8116151560608501526101009004811660808401526004820154811660a08401526005909101541660c08201528351849084908110610b9657610b966111b5565b6020908102919091010152610bac60018361116c565b91505b80610bb981611184565b915050610adf565b336001600160a01b037f00000000000000000000000000000000000000000000000000000000000000001614610c475760405162461bcd60e51b815260206004820152602560248201527f6f6e6c7920746865206f776e65722063616e2063616c6c20746869732066756e60448201526431ba34b7b760d91b60648201526084016102fd565b600454604051339180156108fc02916000818181858888f19350505050158015610c75573d6000803e3d6000fd5b50565b60606000610c8560015490565b9050600060015b828111610cd5576000818152600360205260409020600501546001600160a01b0316331415610cc357610cc060018361116c565b91505b80610ccd81611184565b915050610c8c565b5060008167ffffffffffffffff811115610cf157610cf16111cb565b604051908082528060200260200182016040528015610d2a57816020015b610d17610fe4565b815260200190600190039081610d0f5790505b509050600060015b848111610a15576000818152600360205260409020600501546001600160a01b0316331415610dfc57600081815260036020818152604092839020835160e08101855281546001600160a01b0390811682526001830154938201939093526002820154948101949094529182015460ff8116151560608501526101009004811660808401526004820154811660a08401526005909101541660c08201528351849084908110610de357610de36111b5565b6020908102919091010152610df960018361116c565b91505b80610e0681611184565b915050610d32565b60008211610e5e5760405162461bcd60e51b815260206004820152601d60248201527f5072696365206d7573742062652061746c65617374206f6e652077656900000060448201526064016102fd565b6000838152600360208190526040909120015460ff1615610ec15760405162461bcd60e51b815260206004820152601c60248201527f54686520746f6b656e20697320616c7265616479206f6e2073616c650000000060448201526064016102fd565b6000838152600360208190526040909120015461010090046001600160a01b03163314610f415760405162461bcd60e51b815260206004820152602860248201527f6f6e6c79206f776e6572206f6620746f6b656e2063616e2063616c6c207468696044820152671cc81b595d1a1bd960c21b60648201526084016102fd565b6040516323b872dd60e01b8152336004820152306024820152604481018490526001600160a01b038216906323b872dd90606401600060405180830381600087803b158015610f8f57600080fd5b505af1158015610fa3573d6000803e3d6000fd5b505050600093845250506003602081905260409092206002810191909155908101805460ff1916600117905560040180546001600160a01b03191633179055565b6040805160e081018252600080825260208201819052918101829052606081018290526080810182905260a0810182905260c081019190915290565b80356001600160a01b038116811461103757600080fd5b919050565b60006020828403121561104e57600080fd5b61105782611020565b9392505050565b60006020828403121561107057600080fd5b5035919050565b6000806040838503121561108a57600080fd5b8235915061109a60208401611020565b90509250929050565b6000806000606084860312156110b857600080fd5b83359250602084013591506110cf60408501611020565b90509250925092565b602080825282518282018190526000919060409081850190868401855b8281101561115f57815180516001600160a01b0390811686528782015188870152868201518787015260608083015115159087015260808083015182169087015260a08083015182169087015260c091820151169085015260e090930192908501906001016110f5565b5091979650505050505050565b6000821982111561117f5761117f61119f565b500190565b60006000198214156111985761119861119f565b5060010190565b634e487b7160e01b600052601160045260246000fd5b634e487b7160e01b600052603260045260246000fd5b634e487b7160e01b600052604160045260246000fdfea264697066735822122037d445e5583b4d5bc088e795ef17b3cb36ad066837b94bd941948aaae26ca87864736f6c63430008070033",
  "linkReferences": {},
  "deployedLinkReferences": {}
}