{
  "_format": "hh-sol-artifact-1",
  "contractName": "NftMarketPlace",
  "sourceName": "contracts/NftMarketPlace.sol",
  "abi": [
    {
      "inputs": [
        {
          "internalType": "address",
          "name": "_DutchAuctionFactory",
          "type": "address"
        },
        {
          "internalType": "address",
          "name": "_EngFactoryContract",
          "type": "address"
        },
        {
          "internalType": "address",
          "name": "forwarder",
          "type": "address"
        }
      ],
      "stateMutability": "nonpayable",
      "type": "constructor"
    },
    {
      "inputs": [
        {
          "internalType": "address",
          "name": "caller",
          "type": "address"
        },
        {
          "internalType": "uint256",
          "name": "tokenId",
          "type": "uint256"
        }
      ],
      "name": "NftMarketPlace__CallerIsOwnerOfToken",
      "type": "error"
    },
    {
      "inputs": [
        {
          "internalType": "uint256",
          "name": "value",
          "type": "uint256"
        }
      ],
      "name": "NftMarketPlace__DidNotPayLISTINGPRICE",
      "type": "error"
    },
    {
      "inputs": [
        {
          "internalType": "address",
          "name": "requester",
          "type": "address"
        }
      ],
      "name": "NftMarketPlace__NotOwnerOfContract",
      "type": "error"
    },
    {
      "inputs": [
        {
          "internalType": "address",
          "name": "sender",
          "type": "address"
        },
        {
          "internalType": "uint256",
          "name": "tokenId",
          "type": "uint256"
        }
      ],
      "name": "NftMarketPlace__NotOwnerOfToken",
      "type": "error"
    },
    {
      "inputs": [
        {
          "internalType": "uint256",
          "name": "tokenId",
          "type": "uint256"
        }
      ],
      "name": "NftMarketPlace__TokenAlreadyOnSale",
      "type": "error"
    },
    {
      "inputs": [
        {
          "internalType": "uint256",
          "name": "tokenId",
          "type": "uint256"
        }
      ],
      "name": "NftMarketPlace__TokenIdUnderOne",
      "type": "error"
    },
    {
      "inputs": [
        {
          "internalType": "uint256",
          "name": "tokenId",
          "type": "uint256"
        }
      ],
      "name": "NftMarketPlace__TokenNotOnSale",
      "type": "error"
    },
    {
      "inputs": [
        {
          "internalType": "uint256",
          "name": "valueSend",
          "type": "uint256"
        }
      ],
      "name": "NftMarketPlace__UnequalToSellPrice",
      "type": "error"
    },
    {
      "inputs": [
        {
          "internalType": "address",
          "name": "sender",
          "type": "address"
        },
        {
          "internalType": "uint256",
          "name": "valueSend",
          "type": "uint256"
        }
      ],
      "name": "NftMarketPlace__invalidSellPrice",
      "type": "error"
    },
    {
      "anonymous": false,
      "inputs": [
        {
          "indexed": true,
          "internalType": "address",
          "name": "nftContractAddress",
          "type": "address"
        },
        {
          "indexed": false,
          "internalType": "uint256",
          "name": "tokenId",
          "type": "uint256"
        },
        {
          "indexed": false,
          "internalType": "uint256",
          "name": "price",
          "type": "uint256"
        },
        {
          "indexed": false,
          "internalType": "bool",
          "name": "onSale",
          "type": "bool"
        },
        {
          "indexed": false,
          "internalType": "address",
          "name": "owner",
          "type": "address"
        },
        {
          "indexed": true,
          "internalType": "address",
          "name": "seller",
          "type": "address"
        },
        {
          "indexed": false,
          "internalType": "address",
          "name": "minter",
          "type": "address"
        }
      ],
      "name": "marketItemBought",
      "type": "event"
    },
    {
      "anonymous": false,
      "inputs": [
        {
          "indexed": true,
          "internalType": "address",
          "name": "nftContractAddress",
          "type": "address"
        },
        {
          "indexed": true,
          "internalType": "uint256",
          "name": "tokenId",
          "type": "uint256"
        },
        {
          "indexed": false,
          "internalType": "uint256",
          "name": "price",
          "type": "uint256"
        },
        {
          "indexed": false,
          "internalType": "bool",
          "name": "onSale",
          "type": "bool"
        },
        {
          "indexed": true,
          "internalType": "address",
          "name": "owner",
          "type": "address"
        },
        {
          "indexed": false,
          "internalType": "address",
          "name": "seller",
          "type": "address"
        },
        {
          "indexed": false,
          "internalType": "address",
          "name": "minter",
          "type": "address"
        }
      ],
      "name": "marketItemCreated",
      "type": "event"
    },
    {
      "anonymous": false,
      "inputs": [
        {
          "indexed": true,
          "internalType": "address",
          "name": "nftContractAddress",
          "type": "address"
        },
        {
          "indexed": false,
          "internalType": "uint256",
          "name": "tokenId",
          "type": "uint256"
        },
        {
          "indexed": false,
          "internalType": "uint256",
          "name": "price",
          "type": "uint256"
        },
        {
          "indexed": false,
          "internalType": "bool",
          "name": "onSale",
          "type": "bool"
        },
        {
          "indexed": false,
          "internalType": "address",
          "name": "owner",
          "type": "address"
        },
        {
          "indexed": true,
          "internalType": "address",
          "name": "seller",
          "type": "address"
        },
        {
          "indexed": false,
          "internalType": "address",
          "name": "minter",
          "type": "address"
        }
      ],
      "name": "marketItemOnSale",
      "type": "event"
    },
    {
      "stateMutability": "payable",
      "type": "fallback"
    },
    {
      "inputs": [],
      "name": "LISTINGPRICE",
      "outputs": [
        {
          "internalType": "uint256",
          "name": "",
          "type": "uint256"
        }
      ],
      "stateMutability": "view",
      "type": "function"
    },
    {
      "inputs": [
        {
          "internalType": "uint256",
          "name": "_startingPrice",
          "type": "uint256"
        },
        {
          "internalType": "uint256",
          "name": "_discountRate",
          "type": "uint256"
        },
        {
          "internalType": "address",
          "name": "_nft",
          "type": "address"
        },
        {
          "internalType": "uint256",
          "name": "_nftId",
          "type": "uint256"
        }
      ],
      "name": "McreateDutchAuction",
      "outputs": [],
      "stateMutability": "nonpayable",
      "type": "function"
    },
    {
      "inputs": [
        {
          "internalType": "address",
          "name": "_nft",
          "type": "address"
        },
        {
          "internalType": "uint256",
          "name": "_nftId",
          "type": "uint256"
        },
        {
          "internalType": "uint256",
          "name": "_startingBid",
          "type": "uint256"
        }
      ],
      "name": "McreateEngAuction",
      "outputs": [],
      "stateMutability": "nonpayable",
      "type": "function"
    },
    {
      "inputs": [
        {
          "internalType": "uint256",
          "name": "_tokenId",
          "type": "uint256"
        },
        {
          "internalType": "address",
          "name": "_nftContractAddress",
          "type": "address"
        }
      ],
      "name": "buyMarketToken",
      "outputs": [],
      "stateMutability": "payable",
      "type": "function"
    },
    {
      "inputs": [],
      "name": "fetchAllMyTokens",
      "outputs": [
        {
          "components": [
            {
              "internalType": "address",
              "name": "nftContractAddress",
              "type": "address"
            },
            {
              "internalType": "uint256",
              "name": "tokenId",
              "type": "uint256"
            },
            {
              "internalType": "uint256",
              "name": "price",
              "type": "uint256"
            },
            {
              "internalType": "bool",
              "name": "onSale",
              "type": "bool"
            },
            {
              "internalType": "address payable",
              "name": "owner",
              "type": "address"
            },
            {
              "internalType": "address payable",
              "name": "seller",
              "type": "address"
            },
            {
              "internalType": "address",
              "name": "minter",
              "type": "address"
            }
          ],
          "internalType": "struct NftMarketPlace.MarketToken[]",
          "name": "",
          "type": "tuple[]"
        }
      ],
      "stateMutability": "view",
      "type": "function"
    },
    {
      "inputs": [],
      "name": "fetchAllTokens",
      "outputs": [
        {
          "components": [
            {
              "internalType": "address",
              "name": "nftContractAddress",
              "type": "address"
            },
            {
              "internalType": "uint256",
              "name": "tokenId",
              "type": "uint256"
            },
            {
              "internalType": "uint256",
              "name": "price",
              "type": "uint256"
            },
            {
              "internalType": "bool",
              "name": "onSale",
              "type": "bool"
            },
            {
              "internalType": "address payable",
              "name": "owner",
              "type": "address"
            },
            {
              "internalType": "address payable",
              "name": "seller",
              "type": "address"
            },
            {
              "internalType": "address",
              "name": "minter",
              "type": "address"
            }
          ],
          "internalType": "struct NftMarketPlace.MarketToken[]",
          "name": "",
          "type": "tuple[]"
        }
      ],
      "stateMutability": "view",
      "type": "function"
    },
    {
      "inputs": [],
      "name": "fetchAllTokensOnSale",
      "outputs": [
        {
          "components": [
            {
              "internalType": "address",
              "name": "nftContractAddress",
              "type": "address"
            },
            {
              "internalType": "uint256",
              "name": "tokenId",
              "type": "uint256"
            },
            {
              "internalType": "uint256",
              "name": "price",
              "type": "uint256"
            },
            {
              "internalType": "bool",
              "name": "onSale",
              "type": "bool"
            },
            {
              "internalType": "address payable",
              "name": "owner",
              "type": "address"
            },
            {
              "internalType": "address payable",
              "name": "seller",
              "type": "address"
            },
            {
              "internalType": "address",
              "name": "minter",
              "type": "address"
            }
          ],
          "internalType": "struct NftMarketPlace.MarketToken[]",
          "name": "",
          "type": "tuple[]"
        }
      ],
      "stateMutability": "view",
      "type": "function"
    },
    {
      "inputs": [],
      "name": "fetchTokensMintedByCaller",
      "outputs": [
        {
          "components": [
            {
              "internalType": "address",
              "name": "nftContractAddress",
              "type": "address"
            },
            {
              "internalType": "uint256",
              "name": "tokenId",
              "type": "uint256"
            },
            {
              "internalType": "uint256",
              "name": "price",
              "type": "uint256"
            },
            {
              "internalType": "bool",
              "name": "onSale",
              "type": "bool"
            },
            {
              "internalType": "address payable",
              "name": "owner",
              "type": "address"
            },
            {
              "internalType": "address payable",
              "name": "seller",
              "type": "address"
            },
            {
              "internalType": "address",
              "name": "minter",
              "type": "address"
            }
          ],
          "internalType": "struct NftMarketPlace.MarketToken[]",
          "name": "",
          "type": "tuple[]"
        }
      ],
      "stateMutability": "view",
      "type": "function"
    },
    {
      "inputs": [],
      "name": "getListingPrice",
      "outputs": [
        {
          "internalType": "uint256",
          "name": "",
          "type": "uint256"
        }
      ],
      "stateMutability": "pure",
      "type": "function"
    },
    {
      "inputs": [],
      "name": "getTrustedForwarder",
      "outputs": [
        {
          "internalType": "address",
          "name": "forwarder",
          "type": "address"
        }
      ],
      "stateMutability": "view",
      "type": "function"
    },
    {
      "inputs": [
        {
          "internalType": "uint256",
          "name": "",
          "type": "uint256"
        }
      ],
      "name": "idToMarketToken",
      "outputs": [
        {
          "internalType": "address",
          "name": "nftContractAddress",
          "type": "address"
        },
        {
          "internalType": "uint256",
          "name": "tokenId",
          "type": "uint256"
        },
        {
          "internalType": "uint256",
          "name": "price",
          "type": "uint256"
        },
        {
          "internalType": "bool",
          "name": "onSale",
          "type": "bool"
        },
        {
          "internalType": "address payable",
          "name": "owner",
          "type": "address"
        },
        {
          "internalType": "address payable",
          "name": "seller",
          "type": "address"
        },
        {
          "internalType": "address",
          "name": "minter",
          "type": "address"
        }
      ],
      "stateMutability": "view",
      "type": "function"
    },
    {
      "inputs": [
        {
          "internalType": "address",
          "name": "forwarder",
          "type": "address"
        }
      ],
      "name": "isTrustedForwarder",
      "outputs": [
        {
          "internalType": "bool",
          "name": "",
          "type": "bool"
        }
      ],
      "stateMutability": "view",
      "type": "function"
    },
    {
      "inputs": [
        {
          "internalType": "address",
          "name": "_nftContractAddress",
          "type": "address"
        }
      ],
      "name": "mintMarketToken",
      "outputs": [],
      "stateMutability": "payable",
      "type": "function"
    },
    {
      "inputs": [
        {
          "internalType": "uint256",
          "name": "_tokenId",
          "type": "uint256"
        },
        {
          "internalType": "uint256",
          "name": "sellPrice",
          "type": "uint256"
        },
        {
          "internalType": "address",
          "name": "_nftContractAddress",
          "type": "address"
        }
      ],
      "name": "saleMarketToken",
      "outputs": [],
      "stateMutability": "nonpayable",
      "type": "function"
    },
    {
      "inputs": [],
      "name": "versionRecipient",
      "outputs": [
        {
          "internalType": "string",
          "name": "",
          "type": "string"
        }
      ],
      "stateMutability": "view",
      "type": "function"
    },
    {
      "inputs": [],
      "name": "withdrawContractsProfits",
      "outputs": [],
      "stateMutability": "nonpayable",
      "type": "function"
    }
  ],
  "bytecode": "0x60e06040526040518060400160405280600681526020017f76302e302e31000000000000000000000000000000000000000000000000000081525060059080519060200190620000519291906200024e565b503480156200005f57600080fd5b5060405162002d7638038062002d76833981810160405281019062000085919062000368565b60016000819055506200009d6200015260201b60201c565b73ffffffffffffffffffffffffffffffffffffffff1660808173ffffffffffffffffffffffffffffffffffffffff16815250508273ffffffffffffffffffffffffffffffffffffffff1660a08173ffffffffffffffffffffffffffffffffffffffff16815250508173ffffffffffffffffffffffffffffffffffffffff1660c08173ffffffffffffffffffffffffffffffffffffffff168152505062000149816200016e60201b60201c565b50505062000428565b600062000169620001b260201b62001e281760201c565b905090565b80600160006101000a81548173ffffffffffffffffffffffffffffffffffffffff021916908373ffffffffffffffffffffffffffffffffffffffff16021790555050565b60006014600036905010158015620001d75750620001d633620001f460201b60201c565b5b15620001ed57601436033560601c9050620001f1565b3390505b90565b6000600160009054906101000a900473ffffffffffffffffffffffffffffffffffffffff1673ffffffffffffffffffffffffffffffffffffffff168273ffffffffffffffffffffffffffffffffffffffff16149050919050565b8280546200025c90620003f3565b90600052602060002090601f016020900481019282620002805760008555620002cc565b82601f106200029b57805160ff1916838001178555620002cc565b82800160010185558215620002cc579182015b82811115620002cb578251825591602001919060010190620002ae565b5b509050620002db9190620002df565b5090565b5b80821115620002fa576000816000905550600101620002e0565b5090565b600080fd5b600073ffffffffffffffffffffffffffffffffffffffff82169050919050565b6000620003308262000303565b9050919050565b620003428162000323565b81146200034e57600080fd5b50565b600081519050620003628162000337565b92915050565b600080600060608486031215620003845762000383620002fe565b5b6000620003948682870162000351565b9350506020620003a78682870162000351565b9250506040620003ba8682870162000351565b9150509250925092565b7f4e487b7100000000000000000000000000000000000000000000000000000000600052602260045260246000fd5b600060028204905060018216806200040c57607f821691505b602082108103620004225762000421620003c4565b5b50919050565b60805160a05160c05161291e62000458600039600061175401526000610cdf01526000610eab015261291e6000f3fe6080604052600436106100f75760003560e01c80637929d1b51161008a578063a80df8c011610059578063a80df8c01461030a578063b8c3617c14610335578063ce1b815f14610360578063f9d138c31461038b576100f8565b80637929d1b51461024857806390effc831461028b5780639e65442c146102b6578063a5f21a9f146102e1576100f8565b80633979e09b116100c65780633979e09b146101a0578063486ff0cd146101c9578063572b6c05146101f45780636a31d99214610231576100f8565b806312e85585146101125780631b9e19c61461013d5780632528b6761461015957806338433c0514610184576100f8565b5b346004600082825461010a9190611f62565b925050819055005b34801561011e57600080fd5b506101276103b4565b6040516101349190611fc7565b60405180910390f35b61015760048036038101906101529190612045565b6103c3565b005b34801561016557600080fd5b5061016e6106c3565b60405161017b9190612209565b60405180910390f35b61019e60048036038101906101999190612257565b610929565b005b3480156101ac57600080fd5b506101c760048036038101906101c29190612297565b610cdd565b005b3480156101d557600080fd5b506101de610d74565b6040516101eb9190612397565b60405180910390f35b34801561020057600080fd5b5061021b60048036038101906102169190612045565b610e02565b60405161022891906123c8565b60405180910390f35b34801561023d57600080fd5b50610246610e5c565b005b34801561025457600080fd5b5061026f600480360381019061026a91906123e3565b61100f565b604051610282979695949392919061242e565b60405180910390f35b34801561029757600080fd5b506102a06110de565b6040516102ad9190612209565b60405180910390f35b3480156102c257600080fd5b506102cb6113d7565b6040516102d89190612209565b60405180910390f35b3480156102ed57600080fd5b506103086004803603810190610303919061249d565b611752565b005b34801561031657600080fd5b5061031f6117e6565b60405161032c9190611fc7565b60405180910390f35b34801561034157600080fd5b5061034a6117f1565b6040516103579190612209565b60405180910390f35b34801561036c57600080fd5b50610375611b6c565b60405161038291906124f0565b60405180910390f35b34801561039757600080fd5b506103b260048036038101906103ad919061250b565b611b96565b005b600066071afd498d0000905090565b66071afd498d0000341461040e57346040517f0c3cfc1f0000000000000000000000000000000000000000000000000000000081526004016104059190611fc7565b60405180910390fd5b6104186002611e5f565b60006104246002611e75565b90506040518060e001604052808373ffffffffffffffffffffffffffffffffffffffff1681526020018281526020016000815260200160001515815260200161046b611e83565b73ffffffffffffffffffffffffffffffffffffffff168152602001600073ffffffffffffffffffffffffffffffffffffffff1681526020016104ab611e83565b73ffffffffffffffffffffffffffffffffffffffff168152506003600083815260200190815260200160002060008201518160000160006101000a81548173ffffffffffffffffffffffffffffffffffffffff021916908373ffffffffffffffffffffffffffffffffffffffff160217905550602082015181600101556040820151816002015560608201518160030160006101000a81548160ff02191690831515021790555060808201518160030160016101000a81548173ffffffffffffffffffffffffffffffffffffffff021916908373ffffffffffffffffffffffffffffffffffffffff16021790555060a08201518160040160006101000a81548173ffffffffffffffffffffffffffffffffffffffff021916908373ffffffffffffffffffffffffffffffffffffffff16021790555060c08201518160050160006101000a81548173ffffffffffffffffffffffffffffffffffffffff021916908373ffffffffffffffffffffffffffffffffffffffff160217905550905050346004600082825461063c9190611f62565b9250508190555061064b611e83565b73ffffffffffffffffffffffffffffffffffffffff16818373ffffffffffffffffffffffffffffffffffffffff167f9dcc3573116b077cd633ea2be8f76d15617a8ab58fb28ba75f89e5d778db07ca60008060006106a7611e83565b6040516106b794939291906125a3565b60405180910390a45050565b606060006106d16002611e75565b905060008167ffffffffffffffff8111156106ef576106ee6125e8565b5b60405190808252806020026020018201604052801561072857816020015b610715611e92565b81526020019060019003908161070d5790505b509050600080600190505b83811161091f57600360008281526020019081526020016000206040518060e00160405290816000820160009054906101000a900473ffffffffffffffffffffffffffffffffffffffff1673ffffffffffffffffffffffffffffffffffffffff1673ffffffffffffffffffffffffffffffffffffffff16815260200160018201548152602001600282015481526020016003820160009054906101000a900460ff161515151581526020016003820160019054906101000a900473ffffffffffffffffffffffffffffffffffffffff1673ffffffffffffffffffffffffffffffffffffffff1673ffffffffffffffffffffffffffffffffffffffff1681526020016004820160009054906101000a900473ffffffffffffffffffffffffffffffffffffffff1673ffffffffffffffffffffffffffffffffffffffff1673ffffffffffffffffffffffffffffffffffffffff1681526020016005820160009054906101000a900473ffffffffffffffffffffffffffffffffffffffff1673ffffffffffffffffffffffffffffffffffffffff1673ffffffffffffffffffffffffffffffffffffffff16815250508383815181106108f2576108f1612617565b5b602002602001018190525060018261090a9190611f62565b9150808061091790612646565b915050610733565b5081935050505090565b60026000540361096e576040517f08c379a0000000000000000000000000000000000000000000000000000000008152600401610965906126da565b60405180910390fd5b6002600081905550600082116109bb57816040517f681f56150000000000000000000000000000000000000000000000000000000081526004016109b29190611fc7565b60405180910390fd5b600115156003600084815260200190815260200160002060030160009054906101000a900460ff16151514610a2757816040517f61e4bceb000000000000000000000000000000000000000000000000000000008152600401610a1e9190611fc7565b60405180910390fd5b60036000838152602001908152602001600020600201543414610a8157346040517f45f11e18000000000000000000000000000000000000000000000000000000008152600401610a789190611fc7565b60405180910390fd5b6003600083815260200190815260200160002060030160019054906101000a900473ffffffffffffffffffffffffffffffffffffffff1673ffffffffffffffffffffffffffffffffffffffff16610ad6611e83565b73ffffffffffffffffffffffffffffffffffffffff1603610b3757610af9611e83565b826040517fbb4cd47d000000000000000000000000000000000000000000000000000000008152600401610b2e9291906126fa565b60405180910390fd5b8073ffffffffffffffffffffffffffffffffffffffff166323b872dd30610b5c611e83565b856040518463ffffffff1660e01b8152600401610b7b93929190612723565b600060405180830381600087803b158015610b9557600080fd5b505af1158015610ba9573d6000803e3d6000fd5b505050506003600083815260200190815260200160002060040160009054906101000a900473ffffffffffffffffffffffffffffffffffffffff1673ffffffffffffffffffffffffffffffffffffffff166108fc349081150290604051600060405180830381858888f19350505050158015610c29573d6000803e3d6000fd5b506000600360008481526020019081526020016000206002018190555060006003600084815260200190815260200160002060030160006101000a81548160ff021916908315150217905550610c7d611e83565b6003600084815260200190815260200160002060030160016101000a81548173ffffffffffffffffffffffffffffffffffffffff021916908373ffffffffffffffffffffffffffffffffffffffff16021790555060016000819055505050565b7f000000000000000000000000000000000000000000000000000000000000000073ffffffffffffffffffffffffffffffffffffffff1663e16ca6c0858585856040518563ffffffff1660e01b8152600401610d3c949392919061275a565b600060405180830381600087803b158015610d5657600080fd5b505af1158015610d6a573d6000803e3d6000fd5b5050505050505050565b60058054610d81906127ce565b80601f0160208091040260200160405190810160405280929190818152602001828054610dad906127ce565b8015610dfa5780601f10610dcf57610100808354040283529160200191610dfa565b820191906000526020600020905b815481529060010190602001808311610ddd57829003601f168201915b505050505081565b6000600160009054906101000a900473ffffffffffffffffffffffffffffffffffffffff1673ffffffffffffffffffffffffffffffffffffffff168273ffffffffffffffffffffffffffffffffffffffff16149050919050565b600260005403610ea1576040517f08c379a0000000000000000000000000000000000000000000000000000000008152600401610e98906126da565b60405180910390fd5b60026000819055507f000000000000000000000000000000000000000000000000000000000000000073ffffffffffffffffffffffffffffffffffffffff16610ee8611e83565b73ffffffffffffffffffffffffffffffffffffffff1614610f4757610f0b611e83565b6040517fbb324d94000000000000000000000000000000000000000000000000000000008152600401610f3e91906124f0565b60405180910390fd5b6000610f51611e83565b73ffffffffffffffffffffffffffffffffffffffff16600454604051610f7690612830565b60006040518083038185875af1925050503d8060008114610fb3576040519150601f19603f3d011682016040523d82523d6000602084013e610fb8565b606091505b5050905080610ffc576040517f08c379a0000000000000000000000000000000000000000000000000000000008152600401610ff390612891565b60405180910390fd5b6000600481905550506001600081905550565b60036020528060005260406000206000915090508060000160009054906101000a900473ffffffffffffffffffffffffffffffffffffffff16908060010154908060020154908060030160009054906101000a900460ff16908060030160019054906101000a900473ffffffffffffffffffffffffffffffffffffffff16908060040160009054906101000a900473ffffffffffffffffffffffffffffffffffffffff16908060050160009054906101000a900473ffffffffffffffffffffffffffffffffffffffff16905087565b606060006110ec6002611e75565b9050600080600190505b82811161114f57600115156003600083815260200190815260200160002060030160009054906101000a900460ff1615150361113c576001826111399190611f62565b91505b808061114790612646565b9150506110f6565b5060008167ffffffffffffffff81111561116c5761116b6125e8565b5b6040519080825280602002602001820160405280156111a557816020015b611192611e92565b81526020019060019003908161118a5790505b509050600080600190505b8481116113cc57600115156003600083815260200190815260200160002060030160009054906101000a900460ff161515036113b957600360008281526020019081526020016000206040518060e00160405290816000820160009054906101000a900473ffffffffffffffffffffffffffffffffffffffff1673ffffffffffffffffffffffffffffffffffffffff1673ffffffffffffffffffffffffffffffffffffffff16815260200160018201548152602001600282015481526020016003820160009054906101000a900460ff161515151581526020016003820160019054906101000a900473ffffffffffffffffffffffffffffffffffffffff1673ffffffffffffffffffffffffffffffffffffffff1673ffffffffffffffffffffffffffffffffffffffff1681526020016004820160009054906101000a900473ffffffffffffffffffffffffffffffffffffffff1673ffffffffffffffffffffffffffffffffffffffff1673ffffffffffffffffffffffffffffffffffffffff1681526020016005820160009054906101000a900473ffffffffffffffffffffffffffffffffffffffff1673ffffffffffffffffffffffffffffffffffffffff1673ffffffffffffffffffffffffffffffffffffffff168152505083838151811061139e5761139d612617565b5b60200260200101819052506001826113b69190611f62565b91505b80806113c490612646565b9150506111b0565b508194505050505090565b606060006113e56002611e75565b9050600080600190505b828111611489576113fe611e83565b73ffffffffffffffffffffffffffffffffffffffff166003600083815260200190815260200160002060030160019054906101000a900473ffffffffffffffffffffffffffffffffffffffff1673ffffffffffffffffffffffffffffffffffffffff1603611476576001826114739190611f62565b91505b808061148190612646565b9150506113ef565b5060008167ffffffffffffffff8111156114a6576114a56125e8565b5b6040519080825280602002602001820160405280156114df57816020015b6114cc611e92565b8152602001906001900390816114c45790505b509050600080600190505b848111611747576114f9611e83565b73ffffffffffffffffffffffffffffffffffffffff166003600083815260200190815260200160002060030160019054906101000a900473ffffffffffffffffffffffffffffffffffffffff1673ffffffffffffffffffffffffffffffffffffffff160361173457600360008281526020019081526020016000206040518060e00160405290816000820160009054906101000a900473ffffffffffffffffffffffffffffffffffffffff1673ffffffffffffffffffffffffffffffffffffffff1673ffffffffffffffffffffffffffffffffffffffff16815260200160018201548152602001600282015481526020016003820160009054906101000a900460ff161515151581526020016003820160019054906101000a900473ffffffffffffffffffffffffffffffffffffffff1673ffffffffffffffffffffffffffffffffffffffff1673ffffffffffffffffffffffffffffffffffffffff1681526020016004820160009054906101000a900473ffffffffffffffffffffffffffffffffffffffff1673ffffffffffffffffffffffffffffffffffffffff1673ffffffffffffffffffffffffffffffffffffffff1681526020016005820160009054906101000a900473ffffffffffffffffffffffffffffffffffffffff1673ffffffffffffffffffffffffffffffffffffffff1673ffffffffffffffffffffffffffffffffffffffff168152505083838151811061171957611718612617565b5b60200260200101819052506001826117319190611f62565b91505b808061173f90612646565b9150506114ea565b508194505050505090565b7f000000000000000000000000000000000000000000000000000000000000000073ffffffffffffffffffffffffffffffffffffffff16639762bb0d8484846040518463ffffffff1660e01b81526004016117af939291906128b1565b600060405180830381600087803b1580156117c957600080fd5b505af11580156117dd573d6000803e3d6000fd5b50505050505050565b66071afd498d000081565b606060006117ff6002611e75565b9050600080600190505b8281116118a357611818611e83565b73ffffffffffffffffffffffffffffffffffffffff166003600083815260200190815260200160002060050160009054906101000a900473ffffffffffffffffffffffffffffffffffffffff1673ffffffffffffffffffffffffffffffffffffffff16036118905760018261188d9190611f62565b91505b808061189b90612646565b915050611809565b5060008167ffffffffffffffff8111156118c0576118bf6125e8565b5b6040519080825280602002602001820160405280156118f957816020015b6118e6611e92565b8152602001906001900390816118de5790505b509050600080600190505b848111611b6157611913611e83565b73ffffffffffffffffffffffffffffffffffffffff166003600083815260200190815260200160002060050160009054906101000a900473ffffffffffffffffffffffffffffffffffffffff1673ffffffffffffffffffffffffffffffffffffffff1603611b4e57600360008281526020019081526020016000206040518060e00160405290816000820160009054906101000a900473ffffffffffffffffffffffffffffffffffffffff1673ffffffffffffffffffffffffffffffffffffffff1673ffffffffffffffffffffffffffffffffffffffff16815260200160018201548152602001600282015481526020016003820160009054906101000a900460ff161515151581526020016003820160019054906101000a900473ffffffffffffffffffffffffffffffffffffffff1673ffffffffffffffffffffffffffffffffffffffff1673ffffffffffffffffffffffffffffffffffffffff1681526020016004820160009054906101000a900473ffffffffffffffffffffffffffffffffffffffff1673ffffffffffffffffffffffffffffffffffffffff1673ffffffffffffffffffffffffffffffffffffffff1681526020016005820160009054906101000a900473ffffffffffffffffffffffffffffffffffffffff1673ffffffffffffffffffffffffffffffffffffffff1673ffffffffffffffffffffffffffffffffffffffff1681525050838381518110611b3357611b32612617565b5b6020026020010181905250600182611b4b9190611f62565b91505b8080611b5990612646565b915050611904565b508194505050505090565b6000600160009054906101000a900473ffffffffffffffffffffffffffffffffffffffff16905090565b60008211611be457611ba6611e83565b826040517fab30c829000000000000000000000000000000000000000000000000000000008152600401611bdb9291906126fa565b60405180910390fd5b600015156003600085815260200190815260200160002060030160009054906101000a900460ff1615151503611c5157826040517f8d4ee15a000000000000000000000000000000000000000000000000000000008152600401611c489190611fc7565b60405180910390fd5b611c59611e83565b73ffffffffffffffffffffffffffffffffffffffff166003600085815260200190815260200160002060030160019054906101000a900473ffffffffffffffffffffffffffffffffffffffff1673ffffffffffffffffffffffffffffffffffffffff1614611d0757611cc9611e83565b836040517f814d1379000000000000000000000000000000000000000000000000000000008152600401611cfe9291906126fa565b60405180910390fd5b8073ffffffffffffffffffffffffffffffffffffffff166323b872dd611d2b611e83565b30866040518463ffffffff1660e01b8152600401611d4b93929190612723565b600060405180830381600087803b158015611d6557600080fd5b505af1158015611d79573d6000803e3d6000fd5b5050505081600360008581526020019081526020016000206002018190555060016003600085815260200190815260200160002060030160006101000a81548160ff021916908315150217905550611dcf611e83565b6003600085815260200190815260200160002060040160006101000a81548173ffffffffffffffffffffffffffffffffffffffff021916908373ffffffffffffffffffffffffffffffffffffffff160217905550505050565b60006014600036905010158015611e445750611e4333610e02565b5b15611e5857601436033560601c9050611e5c565b3390505b90565b6001816000016000828254019250508190555050565b600081600001549050919050565b6000611e8d611e28565b905090565b6040518060e00160405280600073ffffffffffffffffffffffffffffffffffffffff1681526020016000815260200160008152602001600015158152602001600073ffffffffffffffffffffffffffffffffffffffff168152602001600073ffffffffffffffffffffffffffffffffffffffff168152602001600073ffffffffffffffffffffffffffffffffffffffff1681525090565b6000819050919050565b7f4e487b7100000000000000000000000000000000000000000000000000000000600052601160045260246000fd5b6000611f6d82611f29565b9150611f7883611f29565b9250827fffffffffffffffffffffffffffffffffffffffffffffffffffffffffffffffff03821115611fad57611fac611f33565b5b828201905092915050565b611fc181611f29565b82525050565b6000602082019050611fdc6000830184611fb8565b92915050565b600080fd5b600073ffffffffffffffffffffffffffffffffffffffff82169050919050565b600061201282611fe7565b9050919050565b61202281612007565b811461202d57600080fd5b50565b60008135905061203f81612019565b92915050565b60006020828403121561205b5761205a611fe2565b5b600061206984828501612030565b91505092915050565b600081519050919050565b600082825260208201905092915050565b6000819050602082019050919050565b6120a781612007565b82525050565b6120b681611f29565b82525050565b60008115159050919050565b6120d1816120bc565b82525050565b60006120e282611fe7565b9050919050565b6120f2816120d7565b82525050565b60e08201600082015161210e600085018261209e565b50602082015161212160208501826120ad565b50604082015161213460408501826120ad565b50606082015161214760608501826120c8565b50608082015161215a60808501826120e9565b5060a082015161216d60a08501826120e9565b5060c082015161218060c085018261209e565b50505050565b600061219283836120f8565b60e08301905092915050565b6000602082019050919050565b60006121b682612072565b6121c0818561207d565b93506121cb8361208e565b8060005b838110156121fc5781516121e38882612186565b97506121ee8361219e565b9250506001810190506121cf565b5085935050505092915050565b6000602082019050818103600083015261222381846121ab565b905092915050565b61223481611f29565b811461223f57600080fd5b50565b6000813590506122518161222b565b92915050565b6000806040838503121561226e5761226d611fe2565b5b600061227c85828601612242565b925050602061228d85828601612030565b9150509250929050565b600080600080608085870312156122b1576122b0611fe2565b5b60006122bf87828801612242565b94505060206122d087828801612242565b93505060406122e187828801612030565b92505060606122f287828801612242565b91505092959194509250565b600081519050919050565b600082825260208201905092915050565b60005b8381101561233857808201518184015260208101905061231d565b83811115612347576000848401525b50505050565b6000601f19601f8301169050919050565b6000612369826122fe565b6123738185612309565b935061238381856020860161231a565b61238c8161234d565b840191505092915050565b600060208201905081810360008301526123b1818461235e565b905092915050565b6123c2816120bc565b82525050565b60006020820190506123dd60008301846123b9565b92915050565b6000602082840312156123f9576123f8611fe2565b5b600061240784828501612242565b91505092915050565b61241981612007565b82525050565b612428816120d7565b82525050565b600060e082019050612443600083018a612410565b6124506020830189611fb8565b61245d6040830188611fb8565b61246a60608301876123b9565b612477608083018661241f565b61248460a083018561241f565b61249160c0830184612410565b98975050505050505050565b6000806000606084860312156124b6576124b5611fe2565b5b60006124c486828701612030565b93505060206124d586828701612242565b92505060406124e686828701612242565b9150509250925092565b60006020820190506125056000830184612410565b92915050565b60008060006060848603121561252457612523611fe2565b5b600061253286828701612242565b935050602061254386828701612242565b925050604061255486828701612030565b9150509250925092565b6000819050919050565b6000819050919050565b600061258d6125886125838461255e565b612568565b611f29565b9050919050565b61259d81612572565b82525050565b60006080820190506125b86000830187612594565b6125c560208301866123b9565b6125d26040830185612410565b6125df6060830184612410565b95945050505050565b7f4e487b7100000000000000000000000000000000000000000000000000000000600052604160045260246000fd5b7f4e487b7100000000000000000000000000000000000000000000000000000000600052603260045260246000fd5b600061265182611f29565b91507fffffffffffffffffffffffffffffffffffffffffffffffffffffffffffffffff820361268357612682611f33565b5b600182019050919050565b7f5265656e7472616e637947756172643a207265656e7472616e742063616c6c00600082015250565b60006126c4601f83612309565b91506126cf8261268e565b602082019050919050565b600060208201905081810360008301526126f3816126b7565b9050919050565b600060408201905061270f6000830185612410565b61271c6020830184611fb8565b9392505050565b60006060820190506127386000830186612410565b6127456020830185612410565b6127526040830184611fb8565b949350505050565b600060808201905061276f6000830187611fb8565b61277c6020830186611fb8565b6127896040830185612410565b6127966060830184611fb8565b95945050505050565b7f4e487b7100000000000000000000000000000000000000000000000000000000600052602260045260246000fd5b600060028204905060018216806127e657607f821691505b6020821081036127f9576127f861279f565b5b50919050565b600081905092915050565b50565b600061281a6000836127ff565b91506128258261280a565b600082019050919050565b600061283b8261280d565b9150819050919050565b7f5061796d656e74207761736e2774207375636365737366756c6c000000000000600082015250565b600061287b601a83612309565b915061288682612845565b602082019050919050565b600060208201905081810360008301526128aa8161286e565b9050919050565b60006060820190506128c66000830186612410565b6128d36020830185611fb8565b6128e06040830184611fb8565b94935050505056fea2646970667358221220ef2e578a66fc01884f25486a58fca00c492f716eb974085e7d0f6ad4f2169b2464736f6c634300080d0033",
  "linkReferences": {},
  "deployedLinkReferences": {}
}