{
  "_format": "hh-sol-artifact-1",
  "contractName": "NftMarketPlace",
  "sourceName": "contracts/NftMarketPlace.sol",
  "abi": [
    {
      "inputs": [
        {
          "internalType": "address",
          "name": "_DutchAuctionFactory",
          "type": "address"
        },
        {
          "internalType": "address",
          "name": "_EngFactoryContract",
          "type": "address"
        }
      ],
      "stateMutability": "nonpayable",
      "type": "constructor"
    },
    {
      "inputs": [
        {
          "internalType": "address",
          "name": "caller",
          "type": "address"
        },
        {
          "internalType": "uint256",
          "name": "tokenId",
          "type": "uint256"
        }
      ],
      "name": "NftMarketPlace__CallerIsOwnerOfToken",
      "type": "error"
    },
    {
      "inputs": [
        {
          "internalType": "uint256",
          "name": "value",
          "type": "uint256"
        }
      ],
      "name": "NftMarketPlace__DidNotPayLISTINGPRICE",
      "type": "error"
    },
    {
      "inputs": [
        {
          "internalType": "address",
          "name": "requester",
          "type": "address"
        }
      ],
      "name": "NftMarketPlace__NotOwnerOfContract",
      "type": "error"
    },
    {
      "inputs": [
        {
          "internalType": "address",
          "name": "sender",
          "type": "address"
        },
        {
          "internalType": "uint256",
          "name": "tokenId",
          "type": "uint256"
        }
      ],
      "name": "NftMarketPlace__NotOwnerOfToken",
      "type": "error"
    },
    {
      "inputs": [
        {
          "internalType": "uint256",
          "name": "tokenId",
          "type": "uint256"
        }
      ],
      "name": "NftMarketPlace__TokenAlreadyOnSale",
      "type": "error"
    },
    {
      "inputs": [
        {
          "internalType": "uint256",
          "name": "tokenId",
          "type": "uint256"
        }
      ],
      "name": "NftMarketPlace__TokenIdUnderOne",
      "type": "error"
    },
    {
      "inputs": [
        {
          "internalType": "uint256",
          "name": "tokenId",
          "type": "uint256"
        }
      ],
      "name": "NftMarketPlace__TokenNotOnSale",
      "type": "error"
    },
    {
      "inputs": [
        {
          "internalType": "uint256",
          "name": "valueSend",
          "type": "uint256"
        }
      ],
      "name": "NftMarketPlace__UnequalToSellPrice",
      "type": "error"
    },
    {
      "inputs": [
        {
          "internalType": "address",
          "name": "sender",
          "type": "address"
        },
        {
          "internalType": "uint256",
          "name": "valueSend",
          "type": "uint256"
        }
      ],
      "name": "NftMarketPlace__invalidSellPrice",
      "type": "error"
    },
    {
      "anonymous": false,
      "inputs": [
        {
          "indexed": true,
          "internalType": "address",
          "name": "nftContractAddress",
          "type": "address"
        },
        {
          "indexed": false,
          "internalType": "uint256",
          "name": "tokenId",
          "type": "uint256"
        },
        {
          "indexed": false,
          "internalType": "uint256",
          "name": "price",
          "type": "uint256"
        },
        {
          "indexed": false,
          "internalType": "bool",
          "name": "onSale",
          "type": "bool"
        },
        {
          "indexed": false,
          "internalType": "address",
          "name": "owner",
          "type": "address"
        },
        {
          "indexed": true,
          "internalType": "address",
          "name": "seller",
          "type": "address"
        },
        {
          "indexed": false,
          "internalType": "address",
          "name": "minter",
          "type": "address"
        }
      ],
      "name": "marketItemBought",
      "type": "event"
    },
    {
      "anonymous": false,
      "inputs": [
        {
          "indexed": true,
          "internalType": "address",
          "name": "nftContractAddress",
          "type": "address"
        },
        {
          "indexed": true,
          "internalType": "uint256",
          "name": "tokenId",
          "type": "uint256"
        },
        {
          "indexed": false,
          "internalType": "uint256",
          "name": "price",
          "type": "uint256"
        },
        {
          "indexed": false,
          "internalType": "bool",
          "name": "onSale",
          "type": "bool"
        },
        {
          "indexed": true,
          "internalType": "address",
          "name": "owner",
          "type": "address"
        },
        {
          "indexed": false,
          "internalType": "address",
          "name": "seller",
          "type": "address"
        },
        {
          "indexed": false,
          "internalType": "address",
          "name": "minter",
          "type": "address"
        }
      ],
      "name": "marketItemCreated",
      "type": "event"
    },
    {
      "anonymous": false,
      "inputs": [
        {
          "indexed": true,
          "internalType": "address",
          "name": "nftContractAddress",
          "type": "address"
        },
        {
          "indexed": false,
          "internalType": "uint256",
          "name": "tokenId",
          "type": "uint256"
        },
        {
          "indexed": false,
          "internalType": "uint256",
          "name": "price",
          "type": "uint256"
        },
        {
          "indexed": false,
          "internalType": "bool",
          "name": "onSale",
          "type": "bool"
        },
        {
          "indexed": false,
          "internalType": "address",
          "name": "owner",
          "type": "address"
        },
        {
          "indexed": true,
          "internalType": "address",
          "name": "seller",
          "type": "address"
        },
        {
          "indexed": false,
          "internalType": "address",
          "name": "minter",
          "type": "address"
        }
      ],
      "name": "marketItemOnSale",
      "type": "event"
    },
    {
      "stateMutability": "payable",
      "type": "fallback"
    },
    {
      "inputs": [],
      "name": "LISTINGPRICE",
      "outputs": [
        {
          "internalType": "uint256",
          "name": "",
          "type": "uint256"
        }
      ],
      "stateMutability": "view",
      "type": "function"
    },
    {
      "inputs": [
        {
          "internalType": "uint256",
          "name": "_startingPrice",
          "type": "uint256"
        },
        {
          "internalType": "uint256",
          "name": "_discountRate",
          "type": "uint256"
        },
        {
          "internalType": "address",
          "name": "_nft",
          "type": "address"
        },
        {
          "internalType": "uint256",
          "name": "_nftId",
          "type": "uint256"
        }
      ],
      "name": "McreateDutchAuction",
      "outputs": [],
      "stateMutability": "nonpayable",
      "type": "function"
    },
    {
      "inputs": [
        {
          "internalType": "address",
          "name": "_nft",
          "type": "address"
        },
        {
          "internalType": "uint256",
          "name": "_nftId",
          "type": "uint256"
        },
        {
          "internalType": "uint256",
          "name": "_startingBid",
          "type": "uint256"
        }
      ],
      "name": "McreateEngAuction",
      "outputs": [],
      "stateMutability": "nonpayable",
      "type": "function"
    },
    {
      "inputs": [
        {
          "internalType": "uint256",
          "name": "_tokenId",
          "type": "uint256"
        },
        {
          "internalType": "address",
          "name": "_nftContractAddress",
          "type": "address"
        }
      ],
      "name": "buyMarketToken",
      "outputs": [],
      "stateMutability": "payable",
      "type": "function"
    },
    {
      "inputs": [],
      "name": "fetchAllMyTokens",
      "outputs": [
        {
          "components": [
            {
              "internalType": "address",
              "name": "nftContractAddress",
              "type": "address"
            },
            {
              "internalType": "uint256",
              "name": "tokenId",
              "type": "uint256"
            },
            {
              "internalType": "uint256",
              "name": "price",
              "type": "uint256"
            },
            {
              "internalType": "bool",
              "name": "onSale",
              "type": "bool"
            },
            {
              "internalType": "address payable",
              "name": "owner",
              "type": "address"
            },
            {
              "internalType": "address payable",
              "name": "seller",
              "type": "address"
            },
            {
              "internalType": "address",
              "name": "minter",
              "type": "address"
            }
          ],
          "internalType": "struct NftMarketPlace.MarketToken[]",
          "name": "",
          "type": "tuple[]"
        }
      ],
      "stateMutability": "view",
      "type": "function"
    },
    {
      "inputs": [],
      "name": "fetchAllTokens",
      "outputs": [
        {
          "components": [
            {
              "internalType": "address",
              "name": "nftContractAddress",
              "type": "address"
            },
            {
              "internalType": "uint256",
              "name": "tokenId",
              "type": "uint256"
            },
            {
              "internalType": "uint256",
              "name": "price",
              "type": "uint256"
            },
            {
              "internalType": "bool",
              "name": "onSale",
              "type": "bool"
            },
            {
              "internalType": "address payable",
              "name": "owner",
              "type": "address"
            },
            {
              "internalType": "address payable",
              "name": "seller",
              "type": "address"
            },
            {
              "internalType": "address",
              "name": "minter",
              "type": "address"
            }
          ],
          "internalType": "struct NftMarketPlace.MarketToken[]",
          "name": "",
          "type": "tuple[]"
        }
      ],
      "stateMutability": "view",
      "type": "function"
    },
    {
      "inputs": [],
      "name": "fetchAllTokensOnSale",
      "outputs": [
        {
          "components": [
            {
              "internalType": "address",
              "name": "nftContractAddress",
              "type": "address"
            },
            {
              "internalType": "uint256",
              "name": "tokenId",
              "type": "uint256"
            },
            {
              "internalType": "uint256",
              "name": "price",
              "type": "uint256"
            },
            {
              "internalType": "bool",
              "name": "onSale",
              "type": "bool"
            },
            {
              "internalType": "address payable",
              "name": "owner",
              "type": "address"
            },
            {
              "internalType": "address payable",
              "name": "seller",
              "type": "address"
            },
            {
              "internalType": "address",
              "name": "minter",
              "type": "address"
            }
          ],
          "internalType": "struct NftMarketPlace.MarketToken[]",
          "name": "",
          "type": "tuple[]"
        }
      ],
      "stateMutability": "view",
      "type": "function"
    },
    {
      "inputs": [],
      "name": "fetchTokensMintedByCaller",
      "outputs": [
        {
          "components": [
            {
              "internalType": "address",
              "name": "nftContractAddress",
              "type": "address"
            },
            {
              "internalType": "uint256",
              "name": "tokenId",
              "type": "uint256"
            },
            {
              "internalType": "uint256",
              "name": "price",
              "type": "uint256"
            },
            {
              "internalType": "bool",
              "name": "onSale",
              "type": "bool"
            },
            {
              "internalType": "address payable",
              "name": "owner",
              "type": "address"
            },
            {
              "internalType": "address payable",
              "name": "seller",
              "type": "address"
            },
            {
              "internalType": "address",
              "name": "minter",
              "type": "address"
            }
          ],
          "internalType": "struct NftMarketPlace.MarketToken[]",
          "name": "",
          "type": "tuple[]"
        }
      ],
      "stateMutability": "view",
      "type": "function"
    },
    {
      "inputs": [],
      "name": "getListingPrice",
      "outputs": [
        {
          "internalType": "uint256",
          "name": "",
          "type": "uint256"
        }
      ],
      "stateMutability": "pure",
      "type": "function"
    },
    {
      "inputs": [
        {
          "internalType": "uint256",
          "name": "",
          "type": "uint256"
        }
      ],
      "name": "idToMarketToken",
      "outputs": [
        {
          "internalType": "address",
          "name": "nftContractAddress",
          "type": "address"
        },
        {
          "internalType": "uint256",
          "name": "tokenId",
          "type": "uint256"
        },
        {
          "internalType": "uint256",
          "name": "price",
          "type": "uint256"
        },
        {
          "internalType": "bool",
          "name": "onSale",
          "type": "bool"
        },
        {
          "internalType": "address payable",
          "name": "owner",
          "type": "address"
        },
        {
          "internalType": "address payable",
          "name": "seller",
          "type": "address"
        },
        {
          "internalType": "address",
          "name": "minter",
          "type": "address"
        }
      ],
      "stateMutability": "view",
      "type": "function"
    },
    {
      "inputs": [
        {
          "internalType": "address",
          "name": "_nftContractAddress",
          "type": "address"
        }
      ],
      "name": "mintMarketToken",
      "outputs": [],
      "stateMutability": "payable",
      "type": "function"
    },
    {
      "inputs": [
        {
          "internalType": "uint256",
          "name": "_tokenId",
          "type": "uint256"
        },
        {
          "internalType": "uint256",
          "name": "sellPrice",
          "type": "uint256"
        },
        {
          "internalType": "address",
          "name": "_nftContractAddress",
          "type": "address"
        }
      ],
      "name": "saleMarketToken",
      "outputs": [],
      "stateMutability": "nonpayable",
      "type": "function"
    },
    {
      "inputs": [],
      "name": "withdrawContractsProfits",
      "outputs": [],
      "stateMutability": "nonpayable",
      "type": "function"
    }
  ],
  "bytecode": "0x60e06040523480156200001157600080fd5b50604051620027153803806200271583398181016040528101906200003791906200014d565b60016000819055503373ffffffffffffffffffffffffffffffffffffffff1660808173ffffffffffffffffffffffffffffffffffffffff16815250508173ffffffffffffffffffffffffffffffffffffffff1660a08173ffffffffffffffffffffffffffffffffffffffff16815250508073ffffffffffffffffffffffffffffffffffffffff1660c08173ffffffffffffffffffffffffffffffffffffffff1681525050505062000194565b600080fd5b600073ffffffffffffffffffffffffffffffffffffffff82169050919050565b60006200011582620000e8565b9050919050565b620001278162000108565b81146200013357600080fd5b50565b60008151905062000147816200011c565b92915050565b60008060408385031215620001675762000166620000e3565b5b6000620001778582860162000136565b92505060206200018a8582860162000136565b9150509250929050565b60805160a05160c051612551620001c4600039600061154d01526000610be301526000610cc701526125516000f3fe6080604052600436106100c65760003560e01c80637929d1b51161007f578063a5f21a9f11610059578063a5f21a9f14610248578063a80df8c014610271578063b8c3617c1461029c578063f9d138c3146102c7576100c7565b80637929d1b5146101af57806390effc83146101f25780639e65442c1461021d576100c7565b806312e85585146100e15780631b9e19c61461010c5780632528b6761461012857806338433c05146101535780633979e09b1461016f5780636a31d99214610198576100c7565b5b34600360008282546100d99190611cba565b925050819055005b3480156100ed57600080fd5b506100f66102f0565b6040516101039190611d1f565b60405180910390f35b61012660048036038101906101219190611d9d565b6102ff565b005b34801561013457600080fd5b5061013d6105e3565b60405161014a9190611f61565b60405180910390f35b61016d60048036038101906101689190611faf565b610849565b005b34801561017b57600080fd5b5061019660048036038101906101919190611fef565b610be1565b005b3480156101a457600080fd5b506101ad610c78565b005b3480156101bb57600080fd5b506101d660048036038101906101d19190612056565b610e16565b6040516101e997969594939291906120b0565b60405180910390f35b3480156101fe57600080fd5b50610207610ee5565b6040516102149190611f61565b60405180910390f35b34801561022957600080fd5b506102326111de565b60405161023f9190611f61565b60405180910390f35b34801561025457600080fd5b5061026f600480360381019061026a919061211f565b61154b565b005b34801561027d57600080fd5b506102866115df565b6040516102939190611d1f565b60405180910390f35b3480156102a857600080fd5b506102b16115ea565b6040516102be9190611f61565b60405180910390f35b3480156102d357600080fd5b506102ee60048036038101906102e99190612172565b611957565b005b600066071afd498d0000905090565b66071afd498d0000341461034a57346040517f0c3cfc1f0000000000000000000000000000000000000000000000000000000081526004016103419190611d1f565b60405180910390fd5b6103546001611bc6565b60006103606001611bdc565b90506040518060e001604052808373ffffffffffffffffffffffffffffffffffffffff168152602001828152602001600081526020016000151581526020013373ffffffffffffffffffffffffffffffffffffffff168152602001600073ffffffffffffffffffffffffffffffffffffffff1681526020013373ffffffffffffffffffffffffffffffffffffffff168152506002600083815260200190815260200160002060008201518160000160006101000a81548173ffffffffffffffffffffffffffffffffffffffff021916908373ffffffffffffffffffffffffffffffffffffffff160217905550602082015181600101556040820151816002015560608201518160030160006101000a81548160ff02191690831515021790555060808201518160030160016101000a81548173ffffffffffffffffffffffffffffffffffffffff021916908373ffffffffffffffffffffffffffffffffffffffff16021790555060a08201518160040160006101000a81548173ffffffffffffffffffffffffffffffffffffffff021916908373ffffffffffffffffffffffffffffffffffffffff16021790555060c08201518160050160006101000a81548173ffffffffffffffffffffffffffffffffffffffff021916908373ffffffffffffffffffffffffffffffffffffffff160217905550905050346003600082825461056a9190611cba565b925050819055503373ffffffffffffffffffffffffffffffffffffffff16818373ffffffffffffffffffffffffffffffffffffffff167f9dcc3573116b077cd633ea2be8f76d15617a8ab58fb28ba75f89e5d778db07ca6000806000336040516105d7949392919061220a565b60405180910390a45050565b606060006105f16001611bdc565b905060008167ffffffffffffffff81111561060f5761060e61224f565b5b60405190808252806020026020018201604052801561064857816020015b610635611bea565b81526020019060019003908161062d5790505b509050600080600190505b83811161083f57600260008281526020019081526020016000206040518060e00160405290816000820160009054906101000a900473ffffffffffffffffffffffffffffffffffffffff1673ffffffffffffffffffffffffffffffffffffffff1673ffffffffffffffffffffffffffffffffffffffff16815260200160018201548152602001600282015481526020016003820160009054906101000a900460ff161515151581526020016003820160019054906101000a900473ffffffffffffffffffffffffffffffffffffffff1673ffffffffffffffffffffffffffffffffffffffff1673ffffffffffffffffffffffffffffffffffffffff1681526020016004820160009054906101000a900473ffffffffffffffffffffffffffffffffffffffff1673ffffffffffffffffffffffffffffffffffffffff1673ffffffffffffffffffffffffffffffffffffffff1681526020016005820160009054906101000a900473ffffffffffffffffffffffffffffffffffffffff1673ffffffffffffffffffffffffffffffffffffffff1673ffffffffffffffffffffffffffffffffffffffff16815250508383815181106108125761081161227e565b5b602002602001018190525060018261082a9190611cba565b91508080610837906122ad565b915050610653565b5081935050505090565b60026000540361088e576040517f08c379a000000000000000000000000000000000000000000000000000000000815260040161088590612352565b60405180910390fd5b6002600081905550600082116108db57816040517f681f56150000000000000000000000000000000000000000000000000000000081526004016108d29190611d1f565b60405180910390fd5b600115156002600084815260200190815260200160002060030160009054906101000a900460ff1615151461094757816040517f61e4bceb00000000000000000000000000000000000000000000000000000000815260040161093e9190611d1f565b60405180910390fd5b600260008381526020019081526020016000206002015434146109a157346040517f45f11e180000000000000000000000000000000000000000000000000000000081526004016109989190611d1f565b60405180910390fd5b6002600083815260200190815260200160002060030160019054906101000a900473ffffffffffffffffffffffffffffffffffffffff1673ffffffffffffffffffffffffffffffffffffffff163373ffffffffffffffffffffffffffffffffffffffff1603610a495733826040517fbb4cd47d000000000000000000000000000000000000000000000000000000008152600401610a40929190612372565b60405180910390fd5b8073ffffffffffffffffffffffffffffffffffffffff166323b872dd3033856040518463ffffffff1660e01b8152600401610a869392919061239b565b600060405180830381600087803b158015610aa057600080fd5b505af1158015610ab4573d6000803e3d6000fd5b505050506002600083815260200190815260200160002060040160009054906101000a900473ffffffffffffffffffffffffffffffffffffffff1673ffffffffffffffffffffffffffffffffffffffff166108fc349081150290604051600060405180830381858888f19350505050158015610b34573d6000803e3d6000fd5b506000600260008481526020019081526020016000206002018190555060006002600084815260200190815260200160002060030160006101000a81548160ff021916908315150217905550336002600084815260200190815260200160002060030160016101000a81548173ffffffffffffffffffffffffffffffffffffffff021916908373ffffffffffffffffffffffffffffffffffffffff16021790555060016000819055505050565b7f000000000000000000000000000000000000000000000000000000000000000073ffffffffffffffffffffffffffffffffffffffff1663e16ca6c0858585856040518563ffffffff1660e01b8152600401610c4094939291906123d2565b600060405180830381600087803b158015610c5a57600080fd5b505af1158015610c6e573d6000803e3d6000fd5b5050505050505050565b600260005403610cbd576040517f08c379a0000000000000000000000000000000000000000000000000000000008152600401610cb490612352565b60405180910390fd5b60026000819055507f000000000000000000000000000000000000000000000000000000000000000073ffffffffffffffffffffffffffffffffffffffff163373ffffffffffffffffffffffffffffffffffffffff1614610d5557336040517fbb324d94000000000000000000000000000000000000000000000000000000008152600401610d4c9190612417565b60405180910390fd5b60003373ffffffffffffffffffffffffffffffffffffffff16600354604051610d7d90612463565b60006040518083038185875af1925050503d8060008114610dba576040519150601f19603f3d011682016040523d82523d6000602084013e610dbf565b606091505b5050905080610e03576040517f08c379a0000000000000000000000000000000000000000000000000000000008152600401610dfa906124c4565b60405180910390fd5b6000600381905550506001600081905550565b60026020528060005260406000206000915090508060000160009054906101000a900473ffffffffffffffffffffffffffffffffffffffff16908060010154908060020154908060030160009054906101000a900460ff16908060030160019054906101000a900473ffffffffffffffffffffffffffffffffffffffff16908060040160009054906101000a900473ffffffffffffffffffffffffffffffffffffffff16908060050160009054906101000a900473ffffffffffffffffffffffffffffffffffffffff16905087565b60606000610ef36001611bdc565b9050600080600190505b828111610f5657600115156002600083815260200190815260200160002060030160009054906101000a900460ff16151503610f4357600182610f409190611cba565b91505b8080610f4e906122ad565b915050610efd565b5060008167ffffffffffffffff811115610f7357610f7261224f565b5b604051908082528060200260200182016040528015610fac57816020015b610f99611bea565b815260200190600190039081610f915790505b509050600080600190505b8481116111d357600115156002600083815260200190815260200160002060030160009054906101000a900460ff161515036111c057600260008281526020019081526020016000206040518060e00160405290816000820160009054906101000a900473ffffffffffffffffffffffffffffffffffffffff1673ffffffffffffffffffffffffffffffffffffffff1673ffffffffffffffffffffffffffffffffffffffff16815260200160018201548152602001600282015481526020016003820160009054906101000a900460ff161515151581526020016003820160019054906101000a900473ffffffffffffffffffffffffffffffffffffffff1673ffffffffffffffffffffffffffffffffffffffff1673ffffffffffffffffffffffffffffffffffffffff1681526020016004820160009054906101000a900473ffffffffffffffffffffffffffffffffffffffff1673ffffffffffffffffffffffffffffffffffffffff1673ffffffffffffffffffffffffffffffffffffffff1681526020016005820160009054906101000a900473ffffffffffffffffffffffffffffffffffffffff1673ffffffffffffffffffffffffffffffffffffffff1673ffffffffffffffffffffffffffffffffffffffff16815250508383815181106111a5576111a461227e565b5b60200260200101819052506001826111bd9190611cba565b91505b80806111cb906122ad565b915050610fb7565b508194505050505090565b606060006111ec6001611bdc565b9050600080600190505b828111611289573373ffffffffffffffffffffffffffffffffffffffff166002600083815260200190815260200160002060030160019054906101000a900473ffffffffffffffffffffffffffffffffffffffff1673ffffffffffffffffffffffffffffffffffffffff1603611276576001826112739190611cba565b91505b8080611281906122ad565b9150506111f6565b5060008167ffffffffffffffff8111156112a6576112a561224f565b5b6040519080825280602002602001820160405280156112df57816020015b6112cc611bea565b8152602001906001900390816112c45790505b509050600080600190505b848111611540573373ffffffffffffffffffffffffffffffffffffffff166002600083815260200190815260200160002060030160019054906101000a900473ffffffffffffffffffffffffffffffffffffffff1673ffffffffffffffffffffffffffffffffffffffff160361152d57600260008281526020019081526020016000206040518060e00160405290816000820160009054906101000a900473ffffffffffffffffffffffffffffffffffffffff1673ffffffffffffffffffffffffffffffffffffffff1673ffffffffffffffffffffffffffffffffffffffff16815260200160018201548152602001600282015481526020016003820160009054906101000a900460ff161515151581526020016003820160019054906101000a900473ffffffffffffffffffffffffffffffffffffffff1673ffffffffffffffffffffffffffffffffffffffff1673ffffffffffffffffffffffffffffffffffffffff1681526020016004820160009054906101000a900473ffffffffffffffffffffffffffffffffffffffff1673ffffffffffffffffffffffffffffffffffffffff1673ffffffffffffffffffffffffffffffffffffffff1681526020016005820160009054906101000a900473ffffffffffffffffffffffffffffffffffffffff1673ffffffffffffffffffffffffffffffffffffffff1673ffffffffffffffffffffffffffffffffffffffff16815250508383815181106115125761151161227e565b5b602002602001018190525060018261152a9190611cba565b91505b8080611538906122ad565b9150506112ea565b508194505050505090565b7f000000000000000000000000000000000000000000000000000000000000000073ffffffffffffffffffffffffffffffffffffffff16639762bb0d8484846040518463ffffffff1660e01b81526004016115a8939291906124e4565b600060405180830381600087803b1580156115c257600080fd5b505af11580156115d6573d6000803e3d6000fd5b50505050505050565b66071afd498d000081565b606060006115f86001611bdc565b9050600080600190505b828111611695573373ffffffffffffffffffffffffffffffffffffffff166002600083815260200190815260200160002060050160009054906101000a900473ffffffffffffffffffffffffffffffffffffffff1673ffffffffffffffffffffffffffffffffffffffff16036116825760018261167f9190611cba565b91505b808061168d906122ad565b915050611602565b5060008167ffffffffffffffff8111156116b2576116b161224f565b5b6040519080825280602002602001820160405280156116eb57816020015b6116d8611bea565b8152602001906001900390816116d05790505b509050600080600190505b84811161194c573373ffffffffffffffffffffffffffffffffffffffff166002600083815260200190815260200160002060050160009054906101000a900473ffffffffffffffffffffffffffffffffffffffff1673ffffffffffffffffffffffffffffffffffffffff160361193957600260008281526020019081526020016000206040518060e00160405290816000820160009054906101000a900473ffffffffffffffffffffffffffffffffffffffff1673ffffffffffffffffffffffffffffffffffffffff1673ffffffffffffffffffffffffffffffffffffffff16815260200160018201548152602001600282015481526020016003820160009054906101000a900460ff161515151581526020016003820160019054906101000a900473ffffffffffffffffffffffffffffffffffffffff1673ffffffffffffffffffffffffffffffffffffffff1673ffffffffffffffffffffffffffffffffffffffff1681526020016004820160009054906101000a900473ffffffffffffffffffffffffffffffffffffffff1673ffffffffffffffffffffffffffffffffffffffff1673ffffffffffffffffffffffffffffffffffffffff1681526020016005820160009054906101000a900473ffffffffffffffffffffffffffffffffffffffff1673ffffffffffffffffffffffffffffffffffffffff1673ffffffffffffffffffffffffffffffffffffffff168152505083838151811061191e5761191d61227e565b5b60200260200101819052506001826119369190611cba565b91505b8080611944906122ad565b9150506116f6565b508194505050505090565b6000821161199e5733826040517fab30c829000000000000000000000000000000000000000000000000000000008152600401611995929190612372565b60405180910390fd5b600015156002600085815260200190815260200160002060030160009054906101000a900460ff1615151503611a0b57826040517f8d4ee15a000000000000000000000000000000000000000000000000000000008152600401611a029190611d1f565b60405180910390fd5b3373ffffffffffffffffffffffffffffffffffffffff166002600085815260200190815260200160002060030160019054906101000a900473ffffffffffffffffffffffffffffffffffffffff1673ffffffffffffffffffffffffffffffffffffffff1614611ab35733836040517f814d1379000000000000000000000000000000000000000000000000000000008152600401611aaa929190612372565b60405180910390fd5b8073ffffffffffffffffffffffffffffffffffffffff166323b872dd3330866040518463ffffffff1660e01b8152600401611af09392919061239b565b600060405180830381600087803b158015611b0a57600080fd5b505af1158015611b1e573d6000803e3d6000fd5b5050505081600260008581526020019081526020016000206002018190555060016002600085815260200190815260200160002060030160006101000a81548160ff021916908315150217905550336002600085815260200190815260200160002060040160006101000a81548173ffffffffffffffffffffffffffffffffffffffff021916908373ffffffffffffffffffffffffffffffffffffffff160217905550505050565b6001816000016000828254019250508190555050565b600081600001549050919050565b6040518060e00160405280600073ffffffffffffffffffffffffffffffffffffffff1681526020016000815260200160008152602001600015158152602001600073ffffffffffffffffffffffffffffffffffffffff168152602001600073ffffffffffffffffffffffffffffffffffffffff168152602001600073ffffffffffffffffffffffffffffffffffffffff1681525090565b6000819050919050565b7f4e487b7100000000000000000000000000000000000000000000000000000000600052601160045260246000fd5b6000611cc582611c81565b9150611cd083611c81565b9250827fffffffffffffffffffffffffffffffffffffffffffffffffffffffffffffffff03821115611d0557611d04611c8b565b5b828201905092915050565b611d1981611c81565b82525050565b6000602082019050611d346000830184611d10565b92915050565b600080fd5b600073ffffffffffffffffffffffffffffffffffffffff82169050919050565b6000611d6a82611d3f565b9050919050565b611d7a81611d5f565b8114611d8557600080fd5b50565b600081359050611d9781611d71565b92915050565b600060208284031215611db357611db2611d3a565b5b6000611dc184828501611d88565b91505092915050565b600081519050919050565b600082825260208201905092915050565b6000819050602082019050919050565b611dff81611d5f565b82525050565b611e0e81611c81565b82525050565b60008115159050919050565b611e2981611e14565b82525050565b6000611e3a82611d3f565b9050919050565b611e4a81611e2f565b82525050565b60e082016000820151611e666000850182611df6565b506020820151611e796020850182611e05565b506040820151611e8c6040850182611e05565b506060820151611e9f6060850182611e20565b506080820151611eb26080850182611e41565b5060a0820151611ec560a0850182611e41565b5060c0820151611ed860c0850182611df6565b50505050565b6000611eea8383611e50565b60e08301905092915050565b6000602082019050919050565b6000611f0e82611dca565b611f188185611dd5565b9350611f2383611de6565b8060005b83811015611f54578151611f3b8882611ede565b9750611f4683611ef6565b925050600181019050611f27565b5085935050505092915050565b60006020820190508181036000830152611f7b8184611f03565b905092915050565b611f8c81611c81565b8114611f9757600080fd5b50565b600081359050611fa981611f83565b92915050565b60008060408385031215611fc657611fc5611d3a565b5b6000611fd485828601611f9a565b9250506020611fe585828601611d88565b9150509250929050565b6000806000806080858703121561200957612008611d3a565b5b600061201787828801611f9a565b945050602061202887828801611f9a565b935050604061203987828801611d88565b925050606061204a87828801611f9a565b91505092959194509250565b60006020828403121561206c5761206b611d3a565b5b600061207a84828501611f9a565b91505092915050565b61208c81611d5f565b82525050565b61209b81611e14565b82525050565b6120aa81611e2f565b82525050565b600060e0820190506120c5600083018a612083565b6120d26020830189611d10565b6120df6040830188611d10565b6120ec6060830187612092565b6120f960808301866120a1565b61210660a08301856120a1565b61211360c0830184612083565b98975050505050505050565b60008060006060848603121561213857612137611d3a565b5b600061214686828701611d88565b935050602061215786828701611f9a565b925050604061216886828701611f9a565b9150509250925092565b60008060006060848603121561218b5761218a611d3a565b5b600061219986828701611f9a565b93505060206121aa86828701611f9a565b92505060406121bb86828701611d88565b9150509250925092565b6000819050919050565b6000819050919050565b60006121f46121ef6121ea846121c5565b6121cf565b611c81565b9050919050565b612204816121d9565b82525050565b600060808201905061221f60008301876121fb565b61222c6020830186612092565b6122396040830185612083565b6122466060830184612083565b95945050505050565b7f4e487b7100000000000000000000000000000000000000000000000000000000600052604160045260246000fd5b7f4e487b7100000000000000000000000000000000000000000000000000000000600052603260045260246000fd5b60006122b882611c81565b91507fffffffffffffffffffffffffffffffffffffffffffffffffffffffffffffffff82036122ea576122e9611c8b565b5b600182019050919050565b600082825260208201905092915050565b7f5265656e7472616e637947756172643a207265656e7472616e742063616c6c00600082015250565b600061233c601f836122f5565b915061234782612306565b602082019050919050565b6000602082019050818103600083015261236b8161232f565b9050919050565b60006040820190506123876000830185612083565b6123946020830184611d10565b9392505050565b60006060820190506123b06000830186612083565b6123bd6020830185612083565b6123ca6040830184611d10565b949350505050565b60006080820190506123e76000830187611d10565b6123f46020830186611d10565b6124016040830185612083565b61240e6060830184611d10565b95945050505050565b600060208201905061242c6000830184612083565b92915050565b600081905092915050565b50565b600061244d600083612432565b91506124588261243d565b600082019050919050565b600061246e82612440565b9150819050919050565b7f5061796d656e74207761736e2774207375636365737366756c6c000000000000600082015250565b60006124ae601a836122f5565b91506124b982612478565b602082019050919050565b600060208201905081810360008301526124dd816124a1565b9050919050565b60006060820190506124f96000830186612083565b6125066020830185611d10565b6125136040830184611d10565b94935050505056fea2646970667358221220ae9fc01fbdd926b4a8b746240c257d4027d0354582f0d1504e63c13b766aa7b664736f6c634300080d0033",
  "linkReferences": {},
  "deployedLinkReferences": {}
}