{
  "_format": "hh-sol-artifact-1",
  "contractName": "NftMarketPlace",
  "sourceName": "contracts/NftMarketPlace.sol",
  "abi": [
    {
      "inputs": [],
      "stateMutability": "nonpayable",
      "type": "constructor"
    },
    {
      "anonymous": false,
      "inputs": [
        {
          "indexed": true,
          "internalType": "address",
          "name": "nftContractAddress",
          "type": "address"
        },
        {
          "indexed": false,
          "internalType": "uint256",
          "name": "tokenId",
          "type": "uint256"
        },
        {
          "indexed": false,
          "internalType": "uint256",
          "name": "price",
          "type": "uint256"
        },
        {
          "indexed": false,
          "internalType": "bool",
          "name": "onSale",
          "type": "bool"
        },
        {
          "indexed": false,
          "internalType": "address",
          "name": "owner",
          "type": "address"
        },
        {
          "indexed": true,
          "internalType": "address",
          "name": "seller",
          "type": "address"
        },
        {
          "indexed": false,
          "internalType": "address",
          "name": "minter",
          "type": "address"
        }
      ],
      "name": "marketItemBought",
      "type": "event"
    },
    {
      "anonymous": false,
      "inputs": [
        {
          "indexed": true,
          "internalType": "address",
          "name": "nftContractAddress",
          "type": "address"
        },
        {
          "indexed": true,
          "internalType": "uint256",
          "name": "tokenId",
          "type": "uint256"
        },
        {
          "indexed": false,
          "internalType": "uint256",
          "name": "price",
          "type": "uint256"
        },
        {
          "indexed": false,
          "internalType": "bool",
          "name": "onSale",
          "type": "bool"
        },
        {
          "indexed": true,
          "internalType": "address",
          "name": "owner",
          "type": "address"
        },
        {
          "indexed": false,
          "internalType": "address",
          "name": "seller",
          "type": "address"
        },
        {
          "indexed": false,
          "internalType": "address",
          "name": "minter",
          "type": "address"
        }
      ],
      "name": "marketItemCreated",
      "type": "event"
    },
    {
      "anonymous": false,
      "inputs": [
        {
          "indexed": true,
          "internalType": "address",
          "name": "nftContractAddress",
          "type": "address"
        },
        {
          "indexed": false,
          "internalType": "uint256",
          "name": "tokenId",
          "type": "uint256"
        },
        {
          "indexed": false,
          "internalType": "uint256",
          "name": "price",
          "type": "uint256"
        },
        {
          "indexed": false,
          "internalType": "bool",
          "name": "onSale",
          "type": "bool"
        },
        {
          "indexed": false,
          "internalType": "address",
          "name": "owner",
          "type": "address"
        },
        {
          "indexed": true,
          "internalType": "address",
          "name": "seller",
          "type": "address"
        },
        {
          "indexed": false,
          "internalType": "address",
          "name": "minter",
          "type": "address"
        }
      ],
      "name": "marketItemOnSale",
      "type": "event"
    },
    {
      "inputs": [
        {
          "internalType": "uint256",
          "name": "_tokenId",
          "type": "uint256"
        },
        {
          "internalType": "address",
          "name": "_nftContractAddress",
          "type": "address"
        }
      ],
      "name": "buyMarketToken",
      "outputs": [],
      "stateMutability": "payable",
      "type": "function"
    },
    {
      "inputs": [],
      "name": "fetchAllMyTokens",
      "outputs": [
        {
          "components": [
            {
              "internalType": "address",
              "name": "nftContractAddress",
              "type": "address"
            },
            {
              "internalType": "uint256",
              "name": "tokenId",
              "type": "uint256"
            },
            {
              "internalType": "uint256",
              "name": "price",
              "type": "uint256"
            },
            {
              "internalType": "bool",
              "name": "onSale",
              "type": "bool"
            },
            {
              "internalType": "address payable",
              "name": "owner",
              "type": "address"
            },
            {
              "internalType": "address payable",
              "name": "seller",
              "type": "address"
            },
            {
              "internalType": "address",
              "name": "minter",
              "type": "address"
            }
          ],
          "internalType": "struct NftMarketPlace.MarketToken[]",
          "name": "",
          "type": "tuple[]"
        }
      ],
      "stateMutability": "view",
      "type": "function"
    },
    {
      "inputs": [],
      "name": "fetchAllTokens",
      "outputs": [
        {
          "components": [
            {
              "internalType": "address",
              "name": "nftContractAddress",
              "type": "address"
            },
            {
              "internalType": "uint256",
              "name": "tokenId",
              "type": "uint256"
            },
            {
              "internalType": "uint256",
              "name": "price",
              "type": "uint256"
            },
            {
              "internalType": "bool",
              "name": "onSale",
              "type": "bool"
            },
            {
              "internalType": "address payable",
              "name": "owner",
              "type": "address"
            },
            {
              "internalType": "address payable",
              "name": "seller",
              "type": "address"
            },
            {
              "internalType": "address",
              "name": "minter",
              "type": "address"
            }
          ],
          "internalType": "struct NftMarketPlace.MarketToken[]",
          "name": "",
          "type": "tuple[]"
        }
      ],
      "stateMutability": "view",
      "type": "function"
    },
    {
      "inputs": [],
      "name": "fetchAllTokensOnSale",
      "outputs": [
        {
          "components": [
            {
              "internalType": "address",
              "name": "nftContractAddress",
              "type": "address"
            },
            {
              "internalType": "uint256",
              "name": "tokenId",
              "type": "uint256"
            },
            {
              "internalType": "uint256",
              "name": "price",
              "type": "uint256"
            },
            {
              "internalType": "bool",
              "name": "onSale",
              "type": "bool"
            },
            {
              "internalType": "address payable",
              "name": "owner",
              "type": "address"
            },
            {
              "internalType": "address payable",
              "name": "seller",
              "type": "address"
            },
            {
              "internalType": "address",
              "name": "minter",
              "type": "address"
            }
          ],
          "internalType": "struct NftMarketPlace.MarketToken[]",
          "name": "",
          "type": "tuple[]"
        }
      ],
      "stateMutability": "view",
      "type": "function"
    },
    {
      "inputs": [],
      "name": "fetchTokensMintedByCaller",
      "outputs": [
        {
          "components": [
            {
              "internalType": "address",
              "name": "nftContractAddress",
              "type": "address"
            },
            {
              "internalType": "uint256",
              "name": "tokenId",
              "type": "uint256"
            },
            {
              "internalType": "uint256",
              "name": "price",
              "type": "uint256"
            },
            {
              "internalType": "bool",
              "name": "onSale",
              "type": "bool"
            },
            {
              "internalType": "address payable",
              "name": "owner",
              "type": "address"
            },
            {
              "internalType": "address payable",
              "name": "seller",
              "type": "address"
            },
            {
              "internalType": "address",
              "name": "minter",
              "type": "address"
            }
          ],
          "internalType": "struct NftMarketPlace.MarketToken[]",
          "name": "",
          "type": "tuple[]"
        }
      ],
      "stateMutability": "view",
      "type": "function"
    },
    {
      "inputs": [
        {
          "internalType": "uint256",
          "name": "",
          "type": "uint256"
        }
      ],
      "name": "idToMarketToken",
      "outputs": [
        {
          "internalType": "address",
          "name": "nftContractAddress",
          "type": "address"
        },
        {
          "internalType": "uint256",
          "name": "tokenId",
          "type": "uint256"
        },
        {
          "internalType": "uint256",
          "name": "price",
          "type": "uint256"
        },
        {
          "internalType": "bool",
          "name": "onSale",
          "type": "bool"
        },
        {
          "internalType": "address payable",
          "name": "owner",
          "type": "address"
        },
        {
          "internalType": "address payable",
          "name": "seller",
          "type": "address"
        },
        {
          "internalType": "address",
          "name": "minter",
          "type": "address"
        }
      ],
      "stateMutability": "view",
      "type": "function"
    },
    {
      "inputs": [],
      "name": "listingPrice",
      "outputs": [
        {
          "internalType": "uint256",
          "name": "",
          "type": "uint256"
        }
      ],
      "stateMutability": "view",
      "type": "function"
    },
    {
      "inputs": [
        {
          "internalType": "address",
          "name": "_nftContractAddress",
          "type": "address"
        }
      ],
      "name": "mintMarketToken",
      "outputs": [],
      "stateMutability": "payable",
      "type": "function"
    },
    {
      "inputs": [],
      "name": "owner",
      "outputs": [
        {
          "internalType": "address",
          "name": "",
          "type": "address"
        }
      ],
      "stateMutability": "view",
      "type": "function"
    },
    {
      "inputs": [
        {
          "internalType": "uint256",
          "name": "_tokenId",
          "type": "uint256"
        },
        {
          "internalType": "uint256",
          "name": "sellPrice",
          "type": "uint256"
        },
        {
          "internalType": "address",
          "name": "_nftContractAddress",
          "type": "address"
        }
      ],
      "name": "saleMarketToken",
      "outputs": [],
      "stateMutability": "nonpayable",
      "type": "function"
    },
    {
      "inputs": [],
      "name": "withdrawContractProfits",
      "outputs": [],
      "stateMutability": "nonpayable",
      "type": "function"
    }
  ],
  "bytecode": "0x60a060405234801561001057600080fd5b5060016000553360601b60805260805160601c6111fa610042600039600081816101b70152610baf01526111fa6000f3fe60806040526004361061009c5760003560e01c806390effc831161006457806390effc83146101f15780639e65442c14610206578063b6248dc41461021b578063b8c3617c14610230578063c78f19f914610245578063f9d138c31461026e57600080fd5b80631b9e19c6146100a15780632528b676146100b657806338433c05146100e15780637929d1b5146100f45780638da5cb5b146101a5575b600080fd5b6100b46100af36600461101f565b61028e565b005b3480156100c257600080fd5b506100cb61044a565b6040516100d891906110bb565b60405180910390f35b6100b46100ef36600461105a565b610577565b34801561010057600080fd5b5061016061010f366004611041565b60036020819052600091825260409091208054600182015460028301549383015460048401546005909401546001600160a01b03938416959294929360ff8316936101009093048116928116911687565b604080516001600160a01b0398891681526020810197909752860194909452911515606085015284166080840152831660a083015290911660c082015260e0016100d8565b3480156101b157600080fd5b506101d97f000000000000000000000000000000000000000000000000000000000000000081565b6040516001600160a01b0390911681526020016100d8565b3480156101fd57600080fd5b506100cb610866565b34801561021257600080fd5b506100cb610a02565b34801561022757600080fd5b506100b4610ba4565b34801561023c57600080fd5b506100cb610c5b565b34801561025157600080fd5b5061026066071afd498d000081565b6040519081526020016100d8565b34801561027a57600080fd5b506100b4610289366004611086565b610df1565b66071afd498d000034146102e95760405162461bcd60e51b815260206004820181905260248201527f596f75206e65656420746f2070617920746865206c697374696e67507269636560448201526064015b60405180910390fd5b6102f7600180546001019055565b600061030260015490565b6040805160e0810182526001600160a01b0380861682526020808301858152600084860181815260608601828152336080880181815260a0890185815260c08a019283528b8652600397889052998520985189549089166001600160a01b0319918216178a55955160018a015592516002890155905194870180549251871661010002610100600160a81b0319961515969096166001600160a81b03199093169290921794909417905594516004808601805492861692841692909217909155915160059094018054949093169316929092179055805492935034929091906103ec90849061114f565b909155505060408051600080825260208201819052818301523360608201819052915183916001600160a01b038616917f9dcc3573116b077cd633ea2be8f76d15617a8ab58fb28ba75f89e5d778db07ca9181900360800190a45050565b6060600061045760015490565b905060008167ffffffffffffffff811115610474576104746111ae565b6040519080825280602002602001820160405280156104ad57816020015b61049a610fc7565b8152602001906001900390816104925790505b509050600060015b83811161056e57600081815260036020818152604092839020835160e08101855281546001600160a01b0390811682526001830154938201939093526002820154948101949094529182015460ff8116151560608501526101009004811660808401526004820154811660a08401526005909101541660c0820152835184908490811061054457610544611198565b602090810291909101015261055a60018361114f565b91508061056681611167565b9150506104b5565b50909392505050565b600260005414156105ca5760405162461bcd60e51b815260206004820152601f60248201527f5265656e7472616e637947756172643a207265656e7472616e742063616c6c0060448201526064016102e0565b6002600055816106155760405162461bcd60e51b81526020600482015260166024820152750546f6b656e4964206d757374206265206f76657220360541b60448201526064016102e0565b60008281526003602052604090206002015434146106865760405162461bcd60e51b815260206004820152602860248201527f4d6573736167652076616c7565206d75737420626520657175616c20746f2073604482015267656c6c507269636560c01b60648201526084016102e0565b6000828152600360208190526040909120015460ff1615156001146106ed5760405162461bcd60e51b815260206004820152601760248201527f4e4654206d75737420626520757020666f722073616c6500000000000000000060448201526064016102e0565b6000828152600360208190526040909120015461010090046001600160a01b03163314156107835760405162461bcd60e51b815260206004820152603d60248201527f596f752063616e6e6f7420627579206f6620796f757273656c66202861746c6560448201527f617374206e6f742077697468207468652073616d65206164647265737300000060648201526084016102e0565b6040516323b872dd60e01b8152306004820152336024820152604481018390526001600160a01b038216906323b872dd90606401600060405180830381600087803b1580156107d157600080fd5b505af11580156107e5573d6000803e3d6000fd5b5050506000838152600360205260408082206004015490516001600160a01b0390911692503480156108fc0292909190818181858888f19350505050158015610832573d6000803e3d6000fd5b505060009081526003602081905260408220600281018390550180546001600160a81b031916610100330217905560019055565b6060600061087360015490565b9050600060015b8281116108c1576000818152600360208190526040909120015460ff161515600114156108af576108ac60018361114f565b91505b806108b981611167565b91505061087a565b5060008167ffffffffffffffff8111156108dd576108dd6111ae565b60405190808252806020026020018201604052801561091657816020015b610903610fc7565b8152602001906001900390816108fb5790505b509050600060015b8481116109f8576000818152600360208190526040909120015460ff161515600114156109e657600081815260036020818152604092839020835160e08101855281546001600160a01b0390811682526001830154938201939093526002820154948101949094529182015460ff8116151560608501526101009004811660808401526004820154811660a08401526005909101541660c082015283518490849081106109cd576109cd611198565b60209081029190910101526109e360018361114f565b91505b806109f081611167565b91505061091e565b5090949350505050565b60606000610a0f60015490565b9050600060015b828111610a65576000818152600360208190526040909120015461010090046001600160a01b0316331415610a5357610a5060018361114f565b91505b80610a5d81611167565b915050610a16565b5060008167ffffffffffffffff811115610a8157610a816111ae565b604051908082528060200260200182016040528015610aba57816020015b610aa7610fc7565b815260200190600190039081610a9f5790505b509050600060015b8481116109f8576000818152600360208190526040909120015461010090046001600160a01b0316331415610b9257600081815260036020818152604092839020835160e08101855281546001600160a01b0390811682526001830154938201939093526002820154948101949094529182015460ff8116151560608501526101009004811660808401526004820154811660a08401526005909101541660c08201528351849084908110610b7957610b79611198565b6020908102919091010152610b8f60018361114f565b91505b80610b9c81611167565b915050610ac2565b336001600160a01b037f00000000000000000000000000000000000000000000000000000000000000001614610c2a5760405162461bcd60e51b815260206004820152602560248201527f6f6e6c7920746865206f776e65722063616e2063616c6c20746869732066756e60448201526431ba34b7b760d91b60648201526084016102e0565b600454604051339180156108fc02916000818181858888f19350505050158015610c58573d6000803e3d6000fd5b50565b60606000610c6860015490565b9050600060015b828111610cb8576000818152600360205260409020600501546001600160a01b0316331415610ca657610ca360018361114f565b91505b80610cb081611167565b915050610c6f565b5060008167ffffffffffffffff811115610cd457610cd46111ae565b604051908082528060200260200182016040528015610d0d57816020015b610cfa610fc7565b815260200190600190039081610cf25790505b509050600060015b8481116109f8576000818152600360205260409020600501546001600160a01b0316331415610ddf57600081815260036020818152604092839020835160e08101855281546001600160a01b0390811682526001830154938201939093526002820154948101949094529182015460ff8116151560608501526101009004811660808401526004820154811660a08401526005909101541660c08201528351849084908110610dc657610dc6611198565b6020908102919091010152610ddc60018361114f565b91505b80610de981611167565b915050610d15565b60008211610e415760405162461bcd60e51b815260206004820152601d60248201527f5072696365206d7573742062652061746c65617374206f6e652077656900000060448201526064016102e0565b6000838152600360208190526040909120015460ff1615610ea45760405162461bcd60e51b815260206004820152601c60248201527f54686520746f6b656e20697320616c7265616479206f6e2073616c650000000060448201526064016102e0565b6000838152600360208190526040909120015461010090046001600160a01b03163314610f245760405162461bcd60e51b815260206004820152602860248201527f6f6e6c79206f776e6572206f6620746f6b656e2063616e2063616c6c207468696044820152671cc81b595d1a1bd960c21b60648201526084016102e0565b6040516323b872dd60e01b8152336004820152306024820152604481018490526001600160a01b038216906323b872dd90606401600060405180830381600087803b158015610f7257600080fd5b505af1158015610f86573d6000803e3d6000fd5b505050600093845250506003602081905260409092206002810191909155908101805460ff1916600117905560040180546001600160a01b03191633179055565b6040805160e081018252600080825260208201819052918101829052606081018290526080810182905260a0810182905260c081019190915290565b80356001600160a01b038116811461101a57600080fd5b919050565b60006020828403121561103157600080fd5b61103a82611003565b9392505050565b60006020828403121561105357600080fd5b5035919050565b6000806040838503121561106d57600080fd5b8235915061107d60208401611003565b90509250929050565b60008060006060848603121561109b57600080fd5b83359250602084013591506110b260408501611003565b90509250925092565b602080825282518282018190526000919060409081850190868401855b8281101561114257815180516001600160a01b0390811686528782015188870152868201518787015260608083015115159087015260808083015182169087015260a08083015182169087015260c091820151169085015260e090930192908501906001016110d8565b5091979650505050505050565b6000821982111561116257611162611182565b500190565b600060001982141561117b5761117b611182565b5060010190565b634e487b7160e01b600052601160045260246000fd5b634e487b7160e01b600052603260045260246000fd5b634e487b7160e01b600052604160045260246000fdfea2646970667358221220ff07e78a2d1d85af9363e8fdfd3edde38270ac7dad394656140bf615028f63af64736f6c63430008070033",
  "linkReferences": {},
  "deployedLinkReferences": {}
}